{
  "address": "0x3FfC9Cfcb786C321416D874C3D41b7Ad004FE08d",
  "abi": [
    {
      "inputs": [],
      "stateMutability": "nonpayable",
      "type": "constructor"
    },
    {
      "inputs": [
        {
          "internalType": "address",
          "name": "admin",
          "type": "address"
        }
      ],
      "name": "AdminAddressInvalid",
      "type": "error"
    },
    {
      "inputs": [],
      "name": "implementation",
      "outputs": [
        {
          "internalType": "address",
          "name": "",
          "type": "address"
        }
      ],
      "stateMutability": "view",
      "type": "function"
    },
    {
      "inputs": [
        {
          "internalType": "address",
          "name": "_dao",
          "type": "address"
        },
        {
          "internalType": "bytes",
          "name": "_data",
          "type": "bytes"
        }
      ],
      "name": "prepareInstallation",
      "outputs": [
        {
          "internalType": "address",
          "name": "plugin",
          "type": "address"
        },
        {
          "components": [
            {
              "internalType": "address[]",
              "name": "helpers",
              "type": "address[]"
            },
            {
              "components": [
                {
                  "internalType": "enum PermissionLib.Operation",
                  "name": "operation",
                  "type": "uint8"
                },
                {
                  "internalType": "address",
                  "name": "where",
                  "type": "address"
                },
                {
                  "internalType": "address",
                  "name": "who",
                  "type": "address"
                },
                {
                  "internalType": "address",
                  "name": "condition",
                  "type": "address"
                },
                {
                  "internalType": "bytes32",
                  "name": "permissionId",
                  "type": "bytes32"
                }
              ],
              "internalType": "struct PermissionLib.MultiTargetPermission[]",
              "name": "permissions",
              "type": "tuple[]"
            }
          ],
          "internalType": "struct IPluginSetup.PreparedSetupData",
          "name": "preparedSetupData",
          "type": "tuple"
        }
      ],
      "stateMutability": "nonpayable",
      "type": "function"
    },
    {
      "inputs": [
        {
          "internalType": "address",
          "name": "_dao",
          "type": "address"
        },
        {
          "components": [
            {
              "internalType": "address",
              "name": "plugin",
              "type": "address"
            },
            {
              "internalType": "address[]",
              "name": "currentHelpers",
              "type": "address[]"
            },
            {
              "internalType": "bytes",
              "name": "data",
              "type": "bytes"
            }
          ],
          "internalType": "struct IPluginSetup.SetupPayload",
          "name": "_payload",
          "type": "tuple"
        }
      ],
      "name": "prepareUninstallation",
      "outputs": [
        {
          "components": [
            {
              "internalType": "enum PermissionLib.Operation",
              "name": "operation",
              "type": "uint8"
            },
            {
              "internalType": "address",
              "name": "where",
              "type": "address"
            },
            {
              "internalType": "address",
              "name": "who",
              "type": "address"
            },
            {
              "internalType": "address",
              "name": "condition",
              "type": "address"
            },
            {
              "internalType": "bytes32",
              "name": "permissionId",
              "type": "bytes32"
            }
          ],
          "internalType": "struct PermissionLib.MultiTargetPermission[]",
          "name": "permissions",
          "type": "tuple[]"
        }
      ],
      "stateMutability": "view",
      "type": "function"
    },
    {
      "inputs": [
        {
          "internalType": "address",
          "name": "_dao",
          "type": "address"
        },
        {
          "internalType": "uint16",
          "name": "_currentBuild",
          "type": "uint16"
        },
        {
          "components": [
            {
              "internalType": "address",
              "name": "plugin",
              "type": "address"
            },
            {
              "internalType": "address[]",
              "name": "currentHelpers",
              "type": "address[]"
            },
            {
              "internalType": "bytes",
              "name": "data",
              "type": "bytes"
            }
          ],
          "internalType": "struct IPluginSetup.SetupPayload",
          "name": "_payload",
          "type": "tuple"
        }
      ],
      "name": "prepareUpdate",
      "outputs": [
        {
          "internalType": "bytes",
          "name": "initData",
          "type": "bytes"
        },
        {
          "components": [
            {
              "internalType": "address[]",
              "name": "helpers",
              "type": "address[]"
            },
            {
              "components": [
                {
                  "internalType": "enum PermissionLib.Operation",
                  "name": "operation",
                  "type": "uint8"
                },
                {
                  "internalType": "address",
                  "name": "where",
                  "type": "address"
                },
                {
                  "internalType": "address",
                  "name": "who",
                  "type": "address"
                },
                {
                  "internalType": "address",
                  "name": "condition",
                  "type": "address"
                },
                {
                  "internalType": "bytes32",
                  "name": "permissionId",
                  "type": "bytes32"
                }
              ],
              "internalType": "struct PermissionLib.MultiTargetPermission[]",
              "name": "permissions",
              "type": "tuple[]"
            }
          ],
          "internalType": "struct IPluginSetup.PreparedSetupData",
          "name": "preparedSetupData",
          "type": "tuple"
        }
      ],
      "stateMutability": "nonpayable",
      "type": "function"
    },
    {
      "inputs": [
        {
          "internalType": "bytes4",
          "name": "_interfaceId",
          "type": "bytes4"
        }
      ],
      "name": "supportsInterface",
      "outputs": [
        {
          "internalType": "bool",
          "name": "",
          "type": "bool"
        }
      ],
      "stateMutability": "view",
      "type": "function"
    }
  ],
  "transactionHash": "0x90d2c6a64f5bd5c6d48d99e21feee6f72bc8a94365c915e8e3639717b634f171",
  "args": [],
  "numDeployments": 1,
  "solcInputHash": "f97dc15e6d1f74cd3e4f0c0726ba97cc",
  "bytecode": "0x60a060405234801561001057600080fd5b5060405161001d9061004b565b604051809103906000f080158015610039573d6000803e3d6000fd5b506001600160a01b0316608052610058565b610fb580610aaa83390190565b608051610a3161007960003960008181609101526103130152610a316000f3fe608060405234801561001057600080fd5b50600436106100575760003560e01c806301ffc9a71461005c5780635c60da1b146100845780639cb0a124146100bb578063a8a9c29e146100db578063f10832f1146100fc575b600080fd5b61006f61006a36600461063d565b61011d565b60405190151581526020015b60405180910390f35b6040516001600160a01b037f000000000000000000000000000000000000000000000000000000000000000016815260200161007b565b6100ce6100c936600461069e565b610154565b60405161007b9190610754565b6100ee6100e936600461079d565b610281565b60405161007b929190610899565b61010f61010a3660046108fe565b6102a8565b60405161007b929190610983565b60006001600160e01b0319821663099718b560e41b148061014e57506301ffc9a760e01b6001600160e01b03198316145b92915050565b604080516001808252818301909252606091816020015b6040805160a08101825260008082526020808301829052928201819052606082018190526080820152825260001990920191018161016b5750506040805160a081018252600181526001600160a01b03861660208083019190915292935091908201906101da908501856109af565b6001600160a01b0316815260200160006001600160a01b03168152602001846001600160a01b0316630729d0546040518163ffffffff1660e01b8152600401602060405180830381865afa158015610236573d6000803e3d6000fd5b505050506040513d601f19601f8201168201806040525081019061025a91906109cc565b81525081600081518110610270576102706109e5565b602002602001018190525092915050565b60606102a0604051806040016040528060608152602001606081525090565b935093915050565b60006102c7604051806040016040528060608152602001606081525090565b60006102d5848601866109af565b90506001600160a01b03811661030e57604051630849afa760e01b81526001600160a01b03821660048201526024015b60405180910390fd5b6103407f00000000000000000000000000000000000000000000000000000000000000006001600160a01b03166105a3565b60405163189acdbd60e31b81526001600160a01b0388811660048301529194509084169063c4d66de890602401600060405180830381600087803b15801561038757600080fd5b505af115801561039b573d6000803e3d6000fd5b5060009250600291506103ab9050565b60405190808252806020026020018201604052801561040457816020015b6040805160a0810182526000808252602080830182905292820181905260608201819052608082015282526000199092019101816103c95790505b506040805160a081019091529091508060008152602001856001600160a01b03168152602001836001600160a01b0316815260200160006001600160a01b03168152602001856001600160a01b031663cfceb5886040518163ffffffff1660e01b8152600401602060405180830381865afa158015610487573d6000803e3d6000fd5b505050506040513d601f19601f820116820180604052508101906104ab91906109cc565b815250816000815181106104c1576104c16109e5565b60209081029190910101526040805160a081019091528060008152602001886001600160a01b03168152602001856001600160a01b0316815260200160006001600160a01b03168152602001886001600160a01b0316630729d0546040518163ffffffff1660e01b8152600401602060405180830381865afa15801561054b573d6000803e3d6000fd5b505050506040513d601f19601f8201168201806040525081019061056f91906109cc565b81525081600181518110610585576105856109e5565b60200260200101819052508083602001819052505050935093915050565b6000763d602d80600a3d3981f3363d3d373d3d3d363d730000008260601b60e81c176000526e5af43d82803e903d91602b57fd5bf38260781b17602052603760096000f090506001600160a01b0381166106385760405162461bcd60e51b8152602060048201526016602482015275115490cc4c4d8dce8818dc99585d194819985a5b195960521b6044820152606401610305565b919050565b60006020828403121561064f57600080fd5b81356001600160e01b03198116811461066757600080fd5b9392505050565b6001600160a01b038116811461068357600080fd5b50565b60006060828403121561069857600080fd5b50919050565b600080604083850312156106b157600080fd5b82356106bc8161066e565b9150602083013567ffffffffffffffff8111156106d857600080fd5b6106e485828601610686565b9150509250929050565b600081516003811061071057634e487b7160e01b600052602160045260246000fd5b8352506020818101516001600160a01b0390811691840191909152604080830151821690840152606080830151909116908301526080908101519082015260a00190565b6020808252825182820181905260009190848201906040850190845b81811015610791576107838385516106ee565b938501939250600101610770565b50909695505050505050565b6000806000606084860312156107b257600080fd5b83356107bd8161066e565b9250602084013561ffff811681146107d457600080fd5b9150604084013567ffffffffffffffff8111156107f057600080fd5b6107fc86828701610686565b9150509250925092565b805160408084528151908401819052600091602091908201906060860190845b8181101561084b5783516001600160a01b031683529284019291840191600101610826565b50508483015186820387850152805180835290840192506000918401905b8083101561088e5761087c8285516106ee565b91508484019350600183019250610869565b509695505050505050565b604081526000835180604084015260005b818110156108c757602081870181015160608684010152016108aa565b50600060608285010152601f19601f8201168301905060608382030160208401526108f56060820185610806565b95945050505050565b60008060006040848603121561091357600080fd5b833561091e8161066e565b9250602084013567ffffffffffffffff8082111561093b57600080fd5b818601915086601f83011261094f57600080fd5b81358181111561095e57600080fd5b87602082850101111561097057600080fd5b6020830194508093505050509250925092565b6001600160a01b03831681526040602082018190526000906109a790830184610806565b949350505050565b6000602082840312156109c157600080fd5b81356106678161066e565b6000602082840312156109de57600080fd5b5051919050565b634e487b7160e01b600052603260045260246000fdfea26469706673582212204dff0ebaae0e6203cc0edee0b2a520ed4865633591a5caeeafc2b33f774bbaac64736f6c63430008110033608060405234801561001057600080fd5b5061001961001e565b6100de565b600054610100900460ff161561008a5760405162461bcd60e51b815260206004820152602760248201527f496e697469616c697a61626c653a20636f6e747261637420697320696e697469604482015266616c697a696e6760c81b606482015260840160405180910390fd5b60005460ff90811610156100dc576000805460ff191660ff9081179091556040519081527f7f26b83ff96e1f2b6a682f133852f6798a09c465da95921460cefb38474024989060200160405180910390a15b565b610ec8806100ed6000396000f3fe608060405234801561001057600080fd5b50600436106100885760003560e01c8063a230c5241161005b578063a230c524146100f4578063c4d66de814610107578063cfceb5881461011a578063da35c6641461014f57600080fd5b806301ffc9a71461008d5780634162169f146100b557806341de6830146100d057806361af5ebe146100df575b600080fd5b6100a061009b366004610776565b610157565b60405190151581526020015b60405180910390f35b6065546040516001600160a01b0390911681526020016100ac565b60016040516100ac91906107a7565b6100f26100ed3660046107cf565b61019d565b005b6100a06101023660046108b1565b61022d565b6100f26101153660046108b1565b6102e2565b6101417ff281525e53675515a6ba7cc7bea8a81e649b3608423ee2d73be1752cea88788981565b6040519081526020016100ac565b61014161042e565b60006001600160e01b031982166352bc99ab60e11b148061018857506001600160e01b0319821663288c314960e21b145b8061019757506101978261043e565b92915050565b6065547ff281525e53675515a6ba7cc7bea8a81e649b3608423ee2d73be1752cea887889906101da906001600160a01b0316303384600036610463565b60006101e54261051f565b905060006101f933898985868b8b8b61058c565b90506102216102106065546001600160a01b031690565b8261021b888a61098a565b876105f2565b50505050505050505050565b60006102416065546001600160a01b031690565b6001600160a01b031663fdef910630847ff281525e53675515a6ba7cc7bea8a81e649b3608423ee2d73be1752cea887889604051806020016040528060008152506040518563ffffffff1660e01b81526004016102a19493929190610ae4565b602060405180830381865afa1580156102be573d6000803e3d6000fd5b505050506040513d601f19601f820116820180604052508101906101979190610b21565b600054610100900460ff16158080156103025750600054600160ff909116105b8061031c5750303b15801561031c575060005460ff166001145b6103845760405162461bcd60e51b815260206004820152602e60248201527f496e697469616c697a61626c653a20636f6e747261637420697320616c72656160448201526d191e481a5b9a5d1a585b1a5e995960921b60648201526084015b60405180910390fd5b6000805460ff1916600117905580156103a7576000805461ff0019166101001790555b6103b0826106a8565b6040516001600160a01b038316907f3f1ec22954d444cb99f80a1989ac8f631616b8a575a89379e514c0f7f748c93390600090a2801561042a576000805461ff0019169055604051600181527f7f26b83ff96e1f2b6a682f133852f6798a09c465da95921460cefb38474024989060200160405180910390a15b5050565b600061043960975490565b905090565b60006001600160e01b0319821663368d719960e21b14806101975750610197826106db565b604051637ef7c88360e11b81526001600160a01b0387169063fdef9106906104979088908890889088908890600401610b6c565b602060405180830381865afa1580156104b4573d6000803e3d6000fd5b505050506040513d601f19601f820116820180604052508101906104d89190610b21565b61051757604051630cb6f8ed60e21b81526001600160a01b0380881660048301528087166024830152851660448201526064810184905260840161037b565b505050505050565b600067ffffffffffffffff8211156105885760405162461bcd60e51b815260206004820152602660248201527f53616665436173743a2076616c756520646f65736e27742066697420696e203660448201526534206269747360d01b606482015260840161037b565b5090565b6000610596610710565b9050886001600160a01b0316817fa6c1f8f4276dc3f243459e13b557c84e8f4e90b2e09070bad5f6909cee687c9288888c8c8a8a8a6040516105de9796959493929190610bab565b60405180910390a398975050505050505050565b6040516331c6fcc960e21b81526060906000906001600160a01b0387169063c71bf3249061062890889088908890600401610cbb565b6000604051808303816000875af1158015610647573d6000803e3d6000fd5b505050506040513d6000823e601f3d908101601f1916820160405261066f9190810190610d53565b604051919350915085907f712ae1383f79ac853f8d882153778e0260ef8f03b504e2866e0593e04d2b291f90600090a294509492505050565b600054610100900460ff166106cf5760405162461bcd60e51b815260040161037b90610e47565b6106d88161072d565b50565b60006001600160e01b0319821663041de68360e41b148061019757506301ffc9a760e01b6001600160e01b0319831614610197565b600061071a61042e565b905061072a609780546001019055565b90565b600054610100900460ff166107545760405162461bcd60e51b815260040161037b90610e47565b606580546001600160a01b0319166001600160a01b0392909216919091179055565b60006020828403121561078857600080fd5b81356001600160e01b0319811681146107a057600080fd5b9392505050565b60208101600383106107c957634e487b7160e01b600052602160045260246000fd5b91905290565b6000806000806000606086880312156107e757600080fd5b853567ffffffffffffffff808211156107ff57600080fd5b818801915088601f83011261081357600080fd5b81358181111561082257600080fd5b89602082850101111561083457600080fd5b60209283019750955090870135908082111561084f57600080fd5b818801915088601f83011261086357600080fd5b81358181111561087257600080fd5b8960208260051b850101111561088757600080fd5b96999598505060200195604001359392505050565b6001600160a01b03811681146106d857600080fd5b6000602082840312156108c357600080fd5b81356107a08161089c565b634e487b7160e01b600052604160045260246000fd5b6040516060810167ffffffffffffffff81118282101715610907576109076108ce565b60405290565b604051601f8201601f1916810167ffffffffffffffff81118282101715610936576109366108ce565b604052919050565b600067ffffffffffffffff821115610958576109586108ce565b5060051b60200190565b600067ffffffffffffffff82111561097c5761097c6108ce565b50601f01601f191660200190565b600061099d6109988461093e565b61090d565b80848252602080830192508560051b8501368111156109bb57600080fd5b855b81811015610a8857803567ffffffffffffffff808211156109de5760008081fd5b8189019150606082360312156109f45760008081fd5b6109fc6108e4565b8235610a078161089c565b8152828601358682015260408084013583811115610a255760008081fd5b939093019236601f850112610a3c57600092508283fd5b83359250610a4c61099884610962565b8381523688858701011115610a615760008081fd5b838886018983013760009381018801939093528101919091528652509382019382016109bd565b50919695505050505050565b60005b83811015610aaf578181015183820152602001610a97565b50506000910152565b60008151808452610ad0816020860160208601610a94565b601f01601f19169290920160200192915050565b6001600160a01b0385811682528416602082015260408101839052608060608201819052600090610b1790830184610ab8565b9695505050505050565b600060208284031215610b3357600080fd5b815180151581146107a057600080fd5b81835281816020850137506000828201602090810191909152601f909101601f19169091010190565b6001600160a01b0386811682528516602082015260408101849052608060608201819052600090610ba09083018486610b43565b979650505050505050565b600067ffffffffffffffff808a1683526020818a1681850152604060a081860152610bda60a086018a8c610b43565b606086820381880152818983528483019050848a60051b8401018b60005b8c811015610c9d57858303601f190184528135368f9003605e19018112610c1e57600080fd5b8e018035610c2b8161089c565b6001600160a01b0316845280890135898501528781013536829003601e19018112610c5557600080fd5b0188810190358a811115610c6857600080fd5b803603821315610c7757600080fd5b8689860152610c898786018284610b43565b958a01959450505090870190600101610bf8565b50508097505050505050505082608083015298975050505050505050565b600060608083018684526020828186015281875180845260808701915060808160051b880101935082890160005b82811015610d3c57888603607f19018452815180516001600160a01b031687528581015186880152604090810151908701889052610d2988880182610ab8565b9650509284019290840190600101610ce9565b505050505060409390930193909352509392505050565b6000806040808486031215610d6757600080fd5b835167ffffffffffffffff80821115610d7f57600080fd5b818601915086601f830112610d9357600080fd5b81516020610da36109988361093e565b82815260059290921b8401810191818101908a841115610dc257600080fd5b8286015b84811015610e3357805186811115610dde5760008081fd5b8701603f81018d13610df05760008081fd5b84810151610e0061099882610962565b8181528e8b838501011115610e155760008081fd5b610e24828883018d8601610a94565b85525050918301918301610dc6565b509890910151979997985050505050505050565b6020808252602b908201527f496e697469616c697a61626c653a20636f6e7472616374206973206e6f74206960408201526a6e697469616c697a696e6760a81b60608201526080019056fea26469706673582212205f0519810a68493332948c03ab3f9c23ebd5be1787d30fa68ba8b10bb42ed26e64736f6c63430008110033",
  "devdoc": {
    "author": "Aragon Association - 2022-2023",
    "errors": {
      "AdminAddressInvalid(address)": [
        {
          "params": {
            "admin": "The admin address."
          }
        }
      ]
    },
    "kind": "dev",
    "methods": {
      "implementation()": {
        "details": "The implementation can be instantiated via the `new` keyword, cloned via the minimal clones pattern (see [ERC-1167](https://eips.ethereum.org/EIPS/eip-1167)), or proxied via the UUPS pattern (see [ERC-1822](https://eips.ethereum.org/EIPS/eip-1822)).",
        "returns": {
          "_0": "The address of the plugin implementation contract."
        }
      },
      "prepareInstallation(address,bytes)": {
        "params": {
          "_dao": "The address of the installing DAO.",
          "_data": "The bytes-encoded data containing the input parameters for the installation as specified in the plugin's build metadata JSON file."
        },
        "returns": {
          "plugin": "The address of the `Plugin` contract being prepared for installation.",
          "preparedSetupData": "The deployed plugin's relevant data which consists of helpers and permissions."
        }
      },
      "prepareUninstallation(address,(address,address[],bytes))": {
        "details": "Currently, there is no reliable way to revoke the `ADMIN_EXECUTE_PERMISSION_ID` from all addresses it has been granted to. Accordingly, only the `EXECUTE_PERMISSION_ID` is revoked for this uninstallation.",
        "params": {
          "_dao": "The address of the uninstalling DAO.",
          "_payload": "The relevant data necessary for the `prepareUninstallation`. See above."
        },
        "returns": {
          "permissions": "The array of multi-targeted permission operations to be applied by the `PluginSetupProcessor` to the uninstalling DAO."
        }
      },
      "prepareUpdate(address,uint16,(address,address[],bytes))": {
        "params": {
          "_currentBuild": "The build number of the plugin to update from.",
          "_dao": "The address of the updating DAO.",
          "_payload": "The relevant data necessary for the `prepareUpdate`. See above."
        },
        "returns": {
          "initData": "The initialization data to be passed to upgradeable contracts when the update is applied in the `PluginSetupProcessor`.",
          "preparedSetupData": "The deployed plugin's relevant data which consists of helpers and permissions."
        }
      },
      "supportsInterface(bytes4)": {
        "params": {
          "_interfaceId": "The ID of the interface."
        },
        "returns": {
          "_0": "Returns `true` if the interface is supported."
        }
      }
    },
    "title": "AdminAddressSetup",
    "version": 1
  },
  "userdoc": {
    "errors": {
      "AdminAddressInvalid(address)": [
        {
          "notice": "Thrown if the admin address is zero."
        }
      ]
    },
    "kind": "user",
    "methods": {
      "constructor": {
        "notice": "The constructor setting the `Admin` implementation contract to clone from."
      },
      "implementation()": {
        "notice": "Returns the plugin implementation address."
      },
      "prepareInstallation(address,bytes)": {
        "notice": "Prepares the installation of a plugin."
      },
      "prepareUninstallation(address,(address,address[],bytes))": {
        "notice": "Prepares the uninstallation of a plugin."
      },
      "prepareUpdate(address,uint16,(address,address[],bytes))": {
        "notice": "Prepares the update of a plugin."
      },
      "supportsInterface(bytes4)": {
        "notice": "Checks if this or the parent contract supports an interface by its ID."
      }
    },
    "notice": "The setup contract of the `Admin` plugin.",
    "version": 1
  },
  "storageLayout": {
    "storage": [],
    "types": null
  }
}