{
  "address": "0xe539E7E0c759df437461878e43A5dbD30dF905dc",
  "abi": [
    {
      "inputs": [
        {
          "internalType": "address",
          "name": "dao",
          "type": "address"
        },
        {
          "internalType": "address",
          "name": "where",
          "type": "address"
        },
        {
          "internalType": "address",
          "name": "who",
          "type": "address"
        },
        {
          "internalType": "bytes32",
          "name": "permissionId",
          "type": "bytes32"
        }
      ],
      "name": "DaoUnauthorized",
      "type": "error"
    },
    {
      "anonymous": false,
      "inputs": [
        {
          "indexed": false,
          "internalType": "uint8",
          "name": "version",
          "type": "uint8"
        }
      ],
      "name": "Initialized",
      "type": "event"
    },
    {
      "anonymous": false,
      "inputs": [
        {
          "indexed": false,
          "internalType": "address[]",
          "name": "members",
          "type": "address[]"
        }
      ],
      "name": "MembersAdded",
      "type": "event"
    },
    {
      "anonymous": false,
      "inputs": [
        {
          "indexed": false,
          "internalType": "address[]",
          "name": "members",
          "type": "address[]"
        }
      ],
      "name": "MembersRemoved",
      "type": "event"
    },
    {
      "anonymous": false,
      "inputs": [
        {
          "indexed": true,
          "internalType": "address",
          "name": "definingContract",
          "type": "address"
        }
      ],
      "name": "MembershipContractAnnounced",
      "type": "event"
    },
    {
      "anonymous": false,
      "inputs": [
        {
          "indexed": true,
          "internalType": "uint256",
          "name": "proposalId",
          "type": "uint256"
        },
        {
          "indexed": true,
          "internalType": "address",
          "name": "creator",
          "type": "address"
        },
        {
          "indexed": false,
          "internalType": "uint64",
          "name": "startDate",
          "type": "uint64"
        },
        {
          "indexed": false,
          "internalType": "uint64",
          "name": "endDate",
          "type": "uint64"
        },
        {
          "indexed": false,
          "internalType": "bytes",
          "name": "metadata",
          "type": "bytes"
        },
        {
          "components": [
            {
              "internalType": "address",
              "name": "to",
              "type": "address"
            },
            {
              "internalType": "uint256",
              "name": "value",
              "type": "uint256"
            },
            {
              "internalType": "bytes",
              "name": "data",
              "type": "bytes"
            }
          ],
          "indexed": false,
          "internalType": "struct IDAO.Action[]",
          "name": "actions",
          "type": "tuple[]"
        },
        {
          "indexed": false,
          "internalType": "uint256",
          "name": "allowFailureMap",
          "type": "uint256"
        }
      ],
      "name": "ProposalCreated",
      "type": "event"
    },
    {
      "anonymous": false,
      "inputs": [
        {
          "indexed": true,
          "internalType": "uint256",
          "name": "proposalId",
          "type": "uint256"
        }
      ],
      "name": "ProposalExecuted",
      "type": "event"
    },
    {
      "inputs": [],
      "name": "EXECUTE_PROPOSAL_PERMISSION_ID",
      "outputs": [
        {
          "internalType": "bytes32",
          "name": "",
          "type": "bytes32"
        }
      ],
      "stateMutability": "view",
      "type": "function"
    },
    {
      "inputs": [],
      "name": "dao",
      "outputs": [
        {
          "internalType": "contract IDAO",
          "name": "",
          "type": "address"
        }
      ],
      "stateMutability": "view",
      "type": "function"
    },
    {
      "inputs": [
        {
          "internalType": "bytes",
          "name": "_metadata",
          "type": "bytes"
        },
        {
          "components": [
            {
              "internalType": "address",
              "name": "to",
              "type": "address"
            },
            {
              "internalType": "uint256",
              "name": "value",
              "type": "uint256"
            },
            {
              "internalType": "bytes",
              "name": "data",
              "type": "bytes"
            }
          ],
          "internalType": "struct IDAO.Action[]",
          "name": "_actions",
          "type": "tuple[]"
        },
        {
          "internalType": "uint256",
          "name": "_allowFailureMap",
          "type": "uint256"
        }
      ],
      "name": "executeProposal",
      "outputs": [],
      "stateMutability": "nonpayable",
      "type": "function"
    },
    {
      "inputs": [
        {
          "internalType": "contract IDAO",
          "name": "_dao",
          "type": "address"
        }
      ],
      "name": "initialize",
      "outputs": [],
      "stateMutability": "nonpayable",
      "type": "function"
    },
    {
      "inputs": [
        {
          "internalType": "address",
          "name": "_account",
          "type": "address"
        }
      ],
      "name": "isMember",
      "outputs": [
        {
          "internalType": "bool",
          "name": "",
          "type": "bool"
        }
      ],
      "stateMutability": "view",
      "type": "function"
    },
    {
      "inputs": [],
      "name": "pluginType",
      "outputs": [
        {
          "internalType": "enum IPlugin.PluginType",
          "name": "",
          "type": "uint8"
        }
      ],
      "stateMutability": "pure",
      "type": "function"
    },
    {
      "inputs": [],
      "name": "proposalCount",
      "outputs": [
        {
          "internalType": "uint256",
          "name": "",
          "type": "uint256"
        }
      ],
      "stateMutability": "view",
      "type": "function"
    },
    {
      "inputs": [
        {
          "internalType": "bytes4",
          "name": "_interfaceId",
          "type": "bytes4"
        }
      ],
      "name": "supportsInterface",
      "outputs": [
        {
          "internalType": "bool",
          "name": "",
          "type": "bool"
        }
      ],
      "stateMutability": "view",
      "type": "function"
    }
  ],
  "numDeployments": 1,
  "solcInputHash": "f97dc15e6d1f74cd3e4f0c0726ba97cc",
  "bytecode": "0x608060405234801561001057600080fd5b5061001961001e565b6100de565b600054610100900460ff161561008a5760405162461bcd60e51b815260206004820152602760248201527f496e697469616c697a61626c653a20636f6e747261637420697320696e697469604482015266616c697a696e6760c81b606482015260840160405180910390fd5b60005460ff90811610156100dc576000805460ff191660ff9081179091556040519081527f7f26b83ff96e1f2b6a682f133852f6798a09c465da95921460cefb38474024989060200160405180910390a15b565b610ec8806100ed6000396000f3fe608060405234801561001057600080fd5b50600436106100885760003560e01c8063a230c5241161005b578063a230c524146100f4578063c4d66de814610107578063cfceb5881461011a578063da35c6641461014f57600080fd5b806301ffc9a71461008d5780634162169f146100b557806341de6830146100d057806361af5ebe146100df575b600080fd5b6100a061009b366004610776565b610157565b60405190151581526020015b60405180910390f35b6065546040516001600160a01b0390911681526020016100ac565b60016040516100ac91906107a7565b6100f26100ed3660046107cf565b61019d565b005b6100a06101023660046108b1565b61022d565b6100f26101153660046108b1565b6102e2565b6101417ff281525e53675515a6ba7cc7bea8a81e649b3608423ee2d73be1752cea88788981565b6040519081526020016100ac565b61014161042e565b60006001600160e01b031982166352bc99ab60e11b148061018857506001600160e01b0319821663288c314960e21b145b8061019757506101978261043e565b92915050565b6065547ff281525e53675515a6ba7cc7bea8a81e649b3608423ee2d73be1752cea887889906101da906001600160a01b0316303384600036610463565b60006101e54261051f565b905060006101f933898985868b8b8b61058c565b90506102216102106065546001600160a01b031690565b8261021b888a61098a565b876105f2565b50505050505050505050565b60006102416065546001600160a01b031690565b6001600160a01b031663fdef910630847ff281525e53675515a6ba7cc7bea8a81e649b3608423ee2d73be1752cea887889604051806020016040528060008152506040518563ffffffff1660e01b81526004016102a19493929190610ae4565b602060405180830381865afa1580156102be573d6000803e3d6000fd5b505050506040513d601f19601f820116820180604052508101906101979190610b21565b600054610100900460ff16158080156103025750600054600160ff909116105b8061031c5750303b15801561031c575060005460ff166001145b6103845760405162461bcd60e51b815260206004820152602e60248201527f496e697469616c697a61626c653a20636f6e747261637420697320616c72656160448201526d191e481a5b9a5d1a585b1a5e995960921b60648201526084015b60405180910390fd5b6000805460ff1916600117905580156103a7576000805461ff0019166101001790555b6103b0826106a8565b6040516001600160a01b038316907f3f1ec22954d444cb99f80a1989ac8f631616b8a575a89379e514c0f7f748c93390600090a2801561042a576000805461ff0019169055604051600181527f7f26b83ff96e1f2b6a682f133852f6798a09c465da95921460cefb38474024989060200160405180910390a15b5050565b600061043960975490565b905090565b60006001600160e01b0319821663368d719960e21b14806101975750610197826106db565b604051637ef7c88360e11b81526001600160a01b0387169063fdef9106906104979088908890889088908890600401610b6c565b602060405180830381865afa1580156104b4573d6000803e3d6000fd5b505050506040513d601f19601f820116820180604052508101906104d89190610b21565b61051757604051630cb6f8ed60e21b81526001600160a01b0380881660048301528087166024830152851660448201526064810184905260840161037b565b505050505050565b600067ffffffffffffffff8211156105885760405162461bcd60e51b815260206004820152602660248201527f53616665436173743a2076616c756520646f65736e27742066697420696e203660448201526534206269747360d01b606482015260840161037b565b5090565b6000610596610710565b9050886001600160a01b0316817fa6c1f8f4276dc3f243459e13b557c84e8f4e90b2e09070bad5f6909cee687c9288888c8c8a8a8a6040516105de9796959493929190610bab565b60405180910390a398975050505050505050565b6040516331c6fcc960e21b81526060906000906001600160a01b0387169063c71bf3249061062890889088908890600401610cbb565b6000604051808303816000875af1158015610647573d6000803e3d6000fd5b505050506040513d6000823e601f3d908101601f1916820160405261066f9190810190610d53565b604051919350915085907f712ae1383f79ac853f8d882153778e0260ef8f03b504e2866e0593e04d2b291f90600090a294509492505050565b600054610100900460ff166106cf5760405162461bcd60e51b815260040161037b90610e47565b6106d88161072d565b50565b60006001600160e01b0319821663041de68360e41b148061019757506301ffc9a760e01b6001600160e01b0319831614610197565b600061071a61042e565b905061072a609780546001019055565b90565b600054610100900460ff166107545760405162461bcd60e51b815260040161037b90610e47565b606580546001600160a01b0319166001600160a01b0392909216919091179055565b60006020828403121561078857600080fd5b81356001600160e01b0319811681146107a057600080fd5b9392505050565b60208101600383106107c957634e487b7160e01b600052602160045260246000fd5b91905290565b6000806000806000606086880312156107e757600080fd5b853567ffffffffffffffff808211156107ff57600080fd5b818801915088601f83011261081357600080fd5b81358181111561082257600080fd5b89602082850101111561083457600080fd5b60209283019750955090870135908082111561084f57600080fd5b818801915088601f83011261086357600080fd5b81358181111561087257600080fd5b8960208260051b850101111561088757600080fd5b96999598505060200195604001359392505050565b6001600160a01b03811681146106d857600080fd5b6000602082840312156108c357600080fd5b81356107a08161089c565b634e487b7160e01b600052604160045260246000fd5b6040516060810167ffffffffffffffff81118282101715610907576109076108ce565b60405290565b604051601f8201601f1916810167ffffffffffffffff81118282101715610936576109366108ce565b604052919050565b600067ffffffffffffffff821115610958576109586108ce565b5060051b60200190565b600067ffffffffffffffff82111561097c5761097c6108ce565b50601f01601f191660200190565b600061099d6109988461093e565b61090d565b80848252602080830192508560051b8501368111156109bb57600080fd5b855b81811015610a8857803567ffffffffffffffff808211156109de5760008081fd5b8189019150606082360312156109f45760008081fd5b6109fc6108e4565b8235610a078161089c565b8152828601358682015260408084013583811115610a255760008081fd5b939093019236601f850112610a3c57600092508283fd5b83359250610a4c61099884610962565b8381523688858701011115610a615760008081fd5b838886018983013760009381018801939093528101919091528652509382019382016109bd565b50919695505050505050565b60005b83811015610aaf578181015183820152602001610a97565b50506000910152565b60008151808452610ad0816020860160208601610a94565b601f01601f19169290920160200192915050565b6001600160a01b0385811682528416602082015260408101839052608060608201819052600090610b1790830184610ab8565b9695505050505050565b600060208284031215610b3357600080fd5b815180151581146107a057600080fd5b81835281816020850137506000828201602090810191909152601f909101601f19169091010190565b6001600160a01b0386811682528516602082015260408101849052608060608201819052600090610ba09083018486610b43565b979650505050505050565b600067ffffffffffffffff808a1683526020818a1681850152604060a081860152610bda60a086018a8c610b43565b606086820381880152818983528483019050848a60051b8401018b60005b8c811015610c9d57858303601f190184528135368f9003605e19018112610c1e57600080fd5b8e018035610c2b8161089c565b6001600160a01b0316845280890135898501528781013536829003601e19018112610c5557600080fd5b0188810190358a811115610c6857600080fd5b803603821315610c7757600080fd5b8689860152610c898786018284610b43565b958a01959450505090870190600101610bf8565b50508097505050505050505082608083015298975050505050505050565b600060608083018684526020828186015281875180845260808701915060808160051b880101935082890160005b82811015610d3c57888603607f19018452815180516001600160a01b031687528581015186880152604090810151908701889052610d2988880182610ab8565b9650509284019290840190600101610ce9565b505050505060409390930193909352509392505050565b6000806040808486031215610d6757600080fd5b835167ffffffffffffffff80821115610d7f57600080fd5b818601915086601f830112610d9357600080fd5b81516020610da36109988361093e565b82815260059290921b8401810191818101908a841115610dc257600080fd5b8286015b84811015610e3357805186811115610dde5760008081fd5b8701603f81018d13610df05760008081fd5b84810151610e0061099882610962565b8181528e8b838501011115610e155760008081fd5b610e24828883018d8601610a94565b85525050918301918301610dc6565b509890910151979997985050505050505050565b6020808252602b908201527f496e697469616c697a61626c653a20636f6e7472616374206973206e6f74206960408201526a6e697469616c697a696e6760a81b60608201526080019056fea26469706673582212205f0519810a68493332948c03ab3f9c23ebd5be1787d30fa68ba8b10bb42ed26e64736f6c63430008110033",
  "devdoc": {
    "author": "Aragon Association - 2022-2023",
    "errors": {
      "DaoUnauthorized(address,address,address,bytes32)": [
        {
          "params": {
            "dao": "The associated DAO.",
            "permissionId": "The permission identifier.",
            "where": "The context in which the authorization reverted.",
            "who": "The address (EOA or contract) missing the permission."
          }
        }
      ]
    },
    "kind": "dev",
    "methods": {
      "dao()": {
        "returns": {
          "_0": "The DAO contract."
        }
      },
      "executeProposal(bytes,(address,uint256,bytes)[],uint256)": {
        "params": {
          "_actions": "The actions to be executed.",
          "_allowFailureMap": "A bitmap allowing the proposal to succeed, even if individual actions might revert. If the bit at index `i` is 1, the proposal succeeds even if the `i`th action reverts. A failure map value of 0 requires every action to not revert.",
          "_metadata": "The metadata of the proposal."
        }
      },
      "initialize(address)": {
        "details": "This method is required to support [ERC-1167](https://eips.ethereum.org/EIPS/eip-1167).",
        "params": {
          "_dao": "The associated DAO."
        }
      },
      "isMember(address)": {
        "details": "This function must be implemented in the plugin contract that introduces the members to the DAO.",
        "params": {
          "_account": "The address of the account to be checked."
        },
        "returns": {
          "_0": "Whether the account is a member or not."
        }
      },
      "proposalCount()": {
        "returns": {
          "_0": "The proposal count."
        }
      },
      "supportsInterface(bytes4)": {
        "params": {
          "_interfaceId": "The ID of the interface."
        },
        "returns": {
          "_0": "Returns `true` if the interface is supported."
        }
      }
    },
    "title": "Admin",
    "version": 1
  },
  "userdoc": {
    "errors": {
      "DaoUnauthorized(address,address,address,bytes32)": [
        {
          "notice": "Thrown if a call is unauthorized in the associated DAO."
        }
      ]
    },
    "events": {
      "MembersAdded(address[])": {
        "notice": "Emitted when members are added to the DAO plugin."
      },
      "MembersRemoved(address[])": {
        "notice": "Emitted when members are removed from the DAO plugin."
      },
      "MembershipContractAnnounced(address)": {
        "notice": "Emitted to announce the membership being defined by a contract."
      },
      "ProposalCreated(uint256,address,uint64,uint64,bytes,(address,uint256,bytes)[],uint256)": {
        "notice": "Emitted when a proposal is created."
      },
      "ProposalExecuted(uint256)": {
        "notice": "Emitted when a proposal is executed."
      }
    },
    "kind": "user",
    "methods": {
      "EXECUTE_PROPOSAL_PERMISSION_ID()": {
        "notice": "The ID of the permission required to call the `executeProposal` function."
      },
      "dao()": {
        "notice": "Returns the DAO contract."
      },
      "executeProposal(bytes,(address,uint256,bytes)[],uint256)": {
        "notice": "Creates and executes a new proposal."
      },
      "initialize(address)": {
        "notice": "Initializes the contract."
      },
      "isMember(address)": {
        "notice": "Checks if an account is a member of the DAO."
      },
      "pluginType()": {
        "notice": "Returns the plugin's type"
      },
      "proposalCount()": {
        "notice": "Returns the proposal count determining the next proposal ID."
      },
      "supportsInterface(bytes4)": {
        "notice": "Checks if this or the parent contract supports an interface by its ID."
      }
    },
    "notice": "The admin governance plugin giving execution permission on the DAO to a single address.",
    "version": 1
  },
  "storageLayout": {
    "storage": [
      {
        "astId": 6275,
        "contract": "src/plugins/governance/admin/Admin.sol:Admin",
        "label": "_initialized",
        "offset": 0,
        "slot": "0",
        "type": "t_uint8"
      },
      {
        "astId": 6278,
        "contract": "src/plugins/governance/admin/Admin.sol:Admin",
        "label": "_initializing",
        "offset": 1,
        "slot": "0",
        "type": "t_bool"
      },
      {
        "astId": 13460,
        "contract": "src/plugins/governance/admin/Admin.sol:Admin",
        "label": "__gap",
        "offset": 0,
        "slot": "1",
        "type": "t_array(t_uint256)50_storage"
      },
      {
        "astId": 12331,
        "contract": "src/plugins/governance/admin/Admin.sol:Admin",
        "label": "__gap",
        "offset": 0,
        "slot": "51",
        "type": "t_array(t_uint256)50_storage"
      },
      {
        "astId": 23983,
        "contract": "src/plugins/governance/admin/Admin.sol:Admin",
        "label": "dao_",
        "offset": 0,
        "slot": "101",
        "type": "t_contract(IDAO)22869"
      },
      {
        "astId": 24032,
        "contract": "src/plugins/governance/admin/Admin.sol:Admin",
        "label": "__gap",
        "offset": 0,
        "slot": "102",
        "type": "t_array(t_uint256)49_storage"
      },
      {
        "astId": 24265,
        "contract": "src/plugins/governance/admin/Admin.sol:Admin",
        "label": "proposalCounter",
        "offset": 0,
        "slot": "151",
        "type": "t_struct(Counter)12338_storage"
      },
      {
        "astId": 24396,
        "contract": "src/plugins/governance/admin/Admin.sol:Admin",
        "label": "__gap",
        "offset": 0,
        "slot": "152",
        "type": "t_array(t_uint256)49_storage"
      }
    ],
    "types": {
      "t_array(t_uint256)49_storage": {
        "base": "t_uint256",
        "encoding": "inplace",
        "label": "uint256[49]",
        "numberOfBytes": "1568"
      },
      "t_array(t_uint256)50_storage": {
        "base": "t_uint256",
        "encoding": "inplace",
        "label": "uint256[50]",
        "numberOfBytes": "1600"
      },
      "t_bool": {
        "encoding": "inplace",
        "label": "bool",
        "numberOfBytes": "1"
      },
      "t_contract(IDAO)22869": {
        "encoding": "inplace",
        "label": "contract IDAO",
        "numberOfBytes": "20"
      },
      "t_struct(Counter)12338_storage": {
        "encoding": "inplace",
        "label": "struct CountersUpgradeable.Counter",
        "members": [
          {
            "astId": 12337,
            "contract": "src/plugins/governance/admin/Admin.sol:Admin",
            "label": "_value",
            "offset": 0,
            "slot": "0",
            "type": "t_uint256"
          }
        ],
        "numberOfBytes": "32"
      },
      "t_uint256": {
        "encoding": "inplace",
        "label": "uint256",
        "numberOfBytes": "32"
      },
      "t_uint8": {
        "encoding": "inplace",
        "label": "uint8",
        "numberOfBytes": "1"
      }
    }
  }
}