{
  "address": "0x3C47fBceCc7D8F4f7758CA95C5EEaFaa35DbD2A1",
  "abi": [
    {
      "inputs": [],
      "stateMutability": "nonpayable",
      "type": "constructor"
    },
    {
      "inputs": [
        {
          "internalType": "uint256",
          "name": "index",
          "type": "uint256"
        }
      ],
      "name": "ActionFailed",
      "type": "error"
    },
    {
      "inputs": [],
      "name": "AnyAddressDisallowedForWhoAndWhere",
      "type": "error"
    },
    {
      "inputs": [],
      "name": "ConditionNotPresentForAnyAddress",
      "type": "error"
    },
    {
      "inputs": [],
      "name": "InsufficientGas",
      "type": "error"
    },
    {
      "inputs": [
        {
          "internalType": "uint256",
          "name": "expected",
          "type": "uint256"
        },
        {
          "internalType": "uint256",
          "name": "actual",
          "type": "uint256"
        }
      ],
      "name": "NativeTokenDepositAmountMismatch",
      "type": "error"
    },
    {
      "inputs": [
        {
          "internalType": "address",
          "name": "where",
          "type": "address"
        },
        {
          "internalType": "address",
          "name": "who",
          "type": "address"
        },
        {
          "internalType": "bytes32",
          "name": "permissionId",
          "type": "bytes32"
        },
        {
          "internalType": "address",
          "name": "currentCondition",
          "type": "address"
        },
        {
          "internalType": "address",
          "name": "newCondition",
          "type": "address"
        }
      ],
      "name": "PermissionAlreadyGrantedForDifferentCondition",
      "type": "error"
    },
    {
      "inputs": [],
      "name": "PermissionsForAnyAddressDisallowed",
      "type": "error"
    },
    {
      "inputs": [
        {
          "internalType": "uint8[3]",
          "name": "protocolVersion",
          "type": "uint8[3]"
        }
      ],
      "name": "ProtocolVersionUpgradeNotSupported",
      "type": "error"
    },
    {
      "inputs": [],
      "name": "ReentrantCall",
      "type": "error"
    },
    {
      "inputs": [],
      "name": "TooManyActions",
      "type": "error"
    },
    {
      "inputs": [
        {
          "internalType": "address",
          "name": "where",
          "type": "address"
        },
        {
          "internalType": "address",
          "name": "who",
          "type": "address"
        },
        {
          "internalType": "bytes32",
          "name": "permissionId",
          "type": "bytes32"
        }
      ],
      "name": "Unauthorized",
      "type": "error"
    },
    {
      "inputs": [
        {
          "internalType": "bytes4",
          "name": "callbackSelector",
          "type": "bytes4"
        },
        {
          "internalType": "bytes4",
          "name": "magicNumber",
          "type": "bytes4"
        }
      ],
      "name": "UnkownCallback",
      "type": "error"
    },
    {
      "inputs": [],
      "name": "ZeroAmount",
      "type": "error"
    },
    {
      "anonymous": false,
      "inputs": [
        {
          "indexed": false,
          "internalType": "address",
          "name": "previousAdmin",
          "type": "address"
        },
        {
          "indexed": false,
          "internalType": "address",
          "name": "newAdmin",
          "type": "address"
        }
      ],
      "name": "AdminChanged",
      "type": "event"
    },
    {
      "anonymous": false,
      "inputs": [
        {
          "indexed": true,
          "internalType": "address",
          "name": "beacon",
          "type": "address"
        }
      ],
      "name": "BeaconUpgraded",
      "type": "event"
    },
    {
      "anonymous": false,
      "inputs": [
        {
          "indexed": false,
          "internalType": "address",
          "name": "sender",
          "type": "address"
        },
        {
          "indexed": true,
          "internalType": "bytes4",
          "name": "sig",
          "type": "bytes4"
        },
        {
          "indexed": false,
          "internalType": "bytes",
          "name": "data",
          "type": "bytes"
        }
      ],
      "name": "CallbackReceived",
      "type": "event"
    },
    {
      "anonymous": false,
      "inputs": [
        {
          "indexed": true,
          "internalType": "address",
          "name": "sender",
          "type": "address"
        },
        {
          "indexed": true,
          "internalType": "address",
          "name": "token",
          "type": "address"
        },
        {
          "indexed": false,
          "internalType": "uint256",
          "name": "amount",
          "type": "uint256"
        },
        {
          "indexed": false,
          "internalType": "string",
          "name": "_reference",
          "type": "string"
        }
      ],
      "name": "Deposited",
      "type": "event"
    },
    {
      "anonymous": false,
      "inputs": [
        {
          "indexed": true,
          "internalType": "address",
          "name": "actor",
          "type": "address"
        },
        {
          "indexed": false,
          "internalType": "bytes32",
          "name": "callId",
          "type": "bytes32"
        },
        {
          "components": [
            {
              "internalType": "address",
              "name": "to",
              "type": "address"
            },
            {
              "internalType": "uint256",
              "name": "value",
              "type": "uint256"
            },
            {
              "internalType": "bytes",
              "name": "data",
              "type": "bytes"
            }
          ],
          "indexed": false,
          "internalType": "struct IDAO.Action[]",
          "name": "actions",
          "type": "tuple[]"
        },
        {
          "indexed": false,
          "internalType": "uint256",
          "name": "allowFailureMap",
          "type": "uint256"
        },
        {
          "indexed": false,
          "internalType": "uint256",
          "name": "failureMap",
          "type": "uint256"
        },
        {
          "indexed": false,
          "internalType": "bytes[]",
          "name": "execResults",
          "type": "bytes[]"
        }
      ],
      "name": "Executed",
      "type": "event"
    },
    {
      "anonymous": false,
      "inputs": [
        {
          "indexed": true,
          "internalType": "bytes32",
          "name": "permissionId",
          "type": "bytes32"
        },
        {
          "indexed": true,
          "internalType": "address",
          "name": "here",
          "type": "address"
        },
        {
          "indexed": false,
          "internalType": "address",
          "name": "where",
          "type": "address"
        },
        {
          "indexed": true,
          "internalType": "address",
          "name": "who",
          "type": "address"
        },
        {
          "indexed": false,
          "internalType": "contract IPermissionCondition",
          "name": "condition",
          "type": "address"
        }
      ],
      "name": "Granted",
      "type": "event"
    },
    {
      "anonymous": false,
      "inputs": [
        {
          "indexed": false,
          "internalType": "uint8",
          "name": "version",
          "type": "uint8"
        }
      ],
      "name": "Initialized",
      "type": "event"
    },
    {
      "anonymous": false,
      "inputs": [
        {
          "indexed": false,
          "internalType": "bytes",
          "name": "metadata",
          "type": "bytes"
        }
      ],
      "name": "MetadataSet",
      "type": "event"
    },
    {
      "anonymous": false,
      "inputs": [
        {
          "indexed": false,
          "internalType": "address",
          "name": "sender",
          "type": "address"
        },
        {
          "indexed": false,
          "internalType": "uint256",
          "name": "amount",
          "type": "uint256"
        }
      ],
      "name": "NativeTokenDeposited",
      "type": "event"
    },
    {
      "anonymous": false,
      "inputs": [
        {
          "indexed": false,
          "internalType": "string",
          "name": "daoURI",
          "type": "string"
        }
      ],
      "name": "NewURI",
      "type": "event"
    },
    {
      "anonymous": false,
      "inputs": [
        {
          "indexed": true,
          "internalType": "bytes32",
          "name": "permissionId",
          "type": "bytes32"
        },
        {
          "indexed": true,
          "internalType": "address",
          "name": "here",
          "type": "address"
        },
        {
          "indexed": false,
          "internalType": "address",
          "name": "where",
          "type": "address"
        },
        {
          "indexed": true,
          "internalType": "address",
          "name": "who",
          "type": "address"
        }
      ],
      "name": "Revoked",
      "type": "event"
    },
    {
      "anonymous": false,
      "inputs": [
        {
          "indexed": false,
          "internalType": "address",
          "name": "signatureValidator",
          "type": "address"
        }
      ],
      "name": "SignatureValidatorSet",
      "type": "event"
    },
    {
      "anonymous": false,
      "inputs": [
        {
          "indexed": false,
          "internalType": "bytes4",
          "name": "interfaceId",
          "type": "bytes4"
        },
        {
          "indexed": false,
          "internalType": "bytes4",
          "name": "callbackSelector",
          "type": "bytes4"
        },
        {
          "indexed": false,
          "internalType": "bytes4",
          "name": "magicNumber",
          "type": "bytes4"
        }
      ],
      "name": "StandardCallbackRegistered",
      "type": "event"
    },
    {
      "anonymous": false,
      "inputs": [
        {
          "indexed": false,
          "internalType": "address",
          "name": "forwarder",
          "type": "address"
        }
      ],
      "name": "TrustedForwarderSet",
      "type": "event"
    },
    {
      "anonymous": false,
      "inputs": [
        {
          "indexed": true,
          "internalType": "address",
          "name": "implementation",
          "type": "address"
        }
      ],
      "name": "Upgraded",
      "type": "event"
    },
    {
      "stateMutability": "nonpayable",
      "type": "fallback"
    },
    {
      "inputs": [],
      "name": "EXECUTE_PERMISSION_ID",
      "outputs": [
        {
          "internalType": "bytes32",
          "name": "",
          "type": "bytes32"
        }
      ],
      "stateMutability": "view",
      "type": "function"
    },
    {
      "inputs": [],
      "name": "REGISTER_STANDARD_CALLBACK_PERMISSION_ID",
      "outputs": [
        {
          "internalType": "bytes32",
          "name": "",
          "type": "bytes32"
        }
      ],
      "stateMutability": "view",
      "type": "function"
    },
    {
      "inputs": [],
      "name": "ROOT_PERMISSION_ID",
      "outputs": [
        {
          "internalType": "bytes32",
          "name": "",
          "type": "bytes32"
        }
      ],
      "stateMutability": "view",
      "type": "function"
    },
    {
      "inputs": [],
      "name": "SET_METADATA_PERMISSION_ID",
      "outputs": [
        {
          "internalType": "bytes32",
          "name": "",
          "type": "bytes32"
        }
      ],
      "stateMutability": "view",
      "type": "function"
    },
    {
      "inputs": [],
      "name": "SET_SIGNATURE_VALIDATOR_PERMISSION_ID",
      "outputs": [
        {
          "internalType": "bytes32",
          "name": "",
          "type": "bytes32"
        }
      ],
      "stateMutability": "view",
      "type": "function"
    },
    {
      "inputs": [],
      "name": "SET_TRUSTED_FORWARDER_PERMISSION_ID",
      "outputs": [
        {
          "internalType": "bytes32",
          "name": "",
          "type": "bytes32"
        }
      ],
      "stateMutability": "view",
      "type": "function"
    },
    {
      "inputs": [],
      "name": "UPGRADE_DAO_PERMISSION_ID",
      "outputs": [
        {
          "internalType": "bytes32",
          "name": "",
          "type": "bytes32"
        }
      ],
      "stateMutability": "view",
      "type": "function"
    },
    {
      "inputs": [
        {
          "components": [
            {
              "internalType": "enum PermissionLib.Operation",
              "name": "operation",
              "type": "uint8"
            },
            {
              "internalType": "address",
              "name": "where",
              "type": "address"
            },
            {
              "internalType": "address",
              "name": "who",
              "type": "address"
            },
            {
              "internalType": "address",
              "name": "condition",
              "type": "address"
            },
            {
              "internalType": "bytes32",
              "name": "permissionId",
              "type": "bytes32"
            }
          ],
          "internalType": "struct PermissionLib.MultiTargetPermission[]",
          "name": "_items",
          "type": "tuple[]"
        }
      ],
      "name": "applyMultiTargetPermissions",
      "outputs": [],
      "stateMutability": "nonpayable",
      "type": "function"
    },
    {
      "inputs": [
        {
          "internalType": "address",
          "name": "_where",
          "type": "address"
        },
        {
          "components": [
            {
              "internalType": "enum PermissionLib.Operation",
              "name": "operation",
              "type": "uint8"
            },
            {
              "internalType": "address",
              "name": "who",
              "type": "address"
            },
            {
              "internalType": "bytes32",
              "name": "permissionId",
              "type": "bytes32"
            }
          ],
          "internalType": "struct PermissionLib.SingleTargetPermission[]",
          "name": "items",
          "type": "tuple[]"
        }
      ],
      "name": "applySingleTargetPermissions",
      "outputs": [],
      "stateMutability": "nonpayable",
      "type": "function"
    },
    {
      "inputs": [],
      "name": "daoURI",
      "outputs": [
        {
          "internalType": "string",
          "name": "",
          "type": "string"
        }
      ],
      "stateMutability": "view",
      "type": "function"
    },
    {
      "inputs": [
        {
          "internalType": "address",
          "name": "_token",
          "type": "address"
        },
        {
          "internalType": "uint256",
          "name": "_amount",
          "type": "uint256"
        },
        {
          "internalType": "string",
          "name": "_reference",
          "type": "string"
        }
      ],
      "name": "deposit",
      "outputs": [],
      "stateMutability": "payable",
      "type": "function"
    },
    {
      "inputs": [
        {
          "internalType": "bytes32",
          "name": "_callId",
          "type": "bytes32"
        },
        {
          "components": [
            {
              "internalType": "address",
              "name": "to",
              "type": "address"
            },
            {
              "internalType": "uint256",
              "name": "value",
              "type": "uint256"
            },
            {
              "internalType": "bytes",
              "name": "data",
              "type": "bytes"
            }
          ],
          "internalType": "struct IDAO.Action[]",
          "name": "_actions",
          "type": "tuple[]"
        },
        {
          "internalType": "uint256",
          "name": "_allowFailureMap",
          "type": "uint256"
        }
      ],
      "name": "execute",
      "outputs": [
        {
          "internalType": "bytes[]",
          "name": "execResults",
          "type": "bytes[]"
        },
        {
          "internalType": "uint256",
          "name": "failureMap",
          "type": "uint256"
        }
      ],
      "stateMutability": "nonpayable",
      "type": "function"
    },
    {
      "inputs": [],
      "name": "getTrustedForwarder",
      "outputs": [
        {
          "internalType": "address",
          "name": "",
          "type": "address"
        }
      ],
      "stateMutability": "view",
      "type": "function"
    },
    {
      "inputs": [
        {
          "internalType": "address",
          "name": "_where",
          "type": "address"
        },
        {
          "internalType": "address",
          "name": "_who",
          "type": "address"
        },
        {
          "internalType": "bytes32",
          "name": "_permissionId",
          "type": "bytes32"
        }
      ],
      "name": "grant",
      "outputs": [],
      "stateMutability": "nonpayable",
      "type": "function"
    },
    {
      "inputs": [
        {
          "internalType": "address",
          "name": "_where",
          "type": "address"
        },
        {
          "internalType": "address",
          "name": "_who",
          "type": "address"
        },
        {
          "internalType": "bytes32",
          "name": "_permissionId",
          "type": "bytes32"
        },
        {
          "internalType": "contract IPermissionCondition",
          "name": "_condition",
          "type": "address"
        }
      ],
      "name": "grantWithCondition",
      "outputs": [],
      "stateMutability": "nonpayable",
      "type": "function"
    },
    {
      "inputs": [
        {
          "internalType": "address",
          "name": "_where",
          "type": "address"
        },
        {
          "internalType": "address",
          "name": "_who",
          "type": "address"
        },
        {
          "internalType": "bytes32",
          "name": "_permissionId",
          "type": "bytes32"
        },
        {
          "internalType": "bytes",
          "name": "_data",
          "type": "bytes"
        }
      ],
      "name": "hasPermission",
      "outputs": [
        {
          "internalType": "bool",
          "name": "",
          "type": "bool"
        }
      ],
      "stateMutability": "view",
      "type": "function"
    },
    {
      "inputs": [
        {
          "internalType": "bytes",
          "name": "_metadata",
          "type": "bytes"
        },
        {
          "internalType": "address",
          "name": "_initialOwner",
          "type": "address"
        },
        {
          "internalType": "address",
          "name": "_trustedForwarder",
          "type": "address"
        },
        {
          "internalType": "string",
          "name": "daoURI_",
          "type": "string"
        }
      ],
      "name": "initialize",
      "outputs": [],
      "stateMutability": "nonpayable",
      "type": "function"
    },
    {
      "inputs": [
        {
          "internalType": "uint8[3]",
          "name": "_previousProtocolVersion",
          "type": "uint8[3]"
        },
        {
          "internalType": "bytes",
          "name": "_initData",
          "type": "bytes"
        }
      ],
      "name": "initializeFrom",
      "outputs": [],
      "stateMutability": "nonpayable",
      "type": "function"
    },
    {
      "inputs": [
        {
          "internalType": "address",
          "name": "_where",
          "type": "address"
        },
        {
          "internalType": "address",
          "name": "_who",
          "type": "address"
        },
        {
          "internalType": "bytes32",
          "name": "_permissionId",
          "type": "bytes32"
        },
        {
          "internalType": "bytes",
          "name": "_data",
          "type": "bytes"
        }
      ],
      "name": "isGranted",
      "outputs": [
        {
          "internalType": "bool",
          "name": "",
          "type": "bool"
        }
      ],
      "stateMutability": "view",
      "type": "function"
    },
    {
      "inputs": [
        {
          "internalType": "bytes32",
          "name": "_hash",
          "type": "bytes32"
        },
        {
          "internalType": "bytes",
          "name": "_signature",
          "type": "bytes"
        }
      ],
      "name": "isValidSignature",
      "outputs": [
        {
          "internalType": "bytes4",
          "name": "",
          "type": "bytes4"
        }
      ],
      "stateMutability": "view",
      "type": "function"
    },
    {
      "inputs": [],
      "name": "protocolVersion",
      "outputs": [
        {
          "internalType": "uint8[3]",
          "name": "",
          "type": "uint8[3]"
        }
      ],
      "stateMutability": "pure",
      "type": "function"
    },
    {
      "inputs": [],
      "name": "proxiableUUID",
      "outputs": [
        {
          "internalType": "bytes32",
          "name": "",
          "type": "bytes32"
        }
      ],
      "stateMutability": "view",
      "type": "function"
    },
    {
      "inputs": [
        {
          "internalType": "bytes4",
          "name": "_interfaceId",
          "type": "bytes4"
        },
        {
          "internalType": "bytes4",
          "name": "_callbackSelector",
          "type": "bytes4"
        },
        {
          "internalType": "bytes4",
          "name": "_magicNumber",
          "type": "bytes4"
        }
      ],
      "name": "registerStandardCallback",
      "outputs": [],
      "stateMutability": "nonpayable",
      "type": "function"
    },
    {
      "inputs": [
        {
          "internalType": "address",
          "name": "_where",
          "type": "address"
        },
        {
          "internalType": "address",
          "name": "_who",
          "type": "address"
        },
        {
          "internalType": "bytes32",
          "name": "_permissionId",
          "type": "bytes32"
        }
      ],
      "name": "revoke",
      "outputs": [],
      "stateMutability": "nonpayable",
      "type": "function"
    },
    {
      "inputs": [
        {
          "internalType": "string",
          "name": "newDaoURI",
          "type": "string"
        }
      ],
      "name": "setDaoURI",
      "outputs": [],
      "stateMutability": "nonpayable",
      "type": "function"
    },
    {
      "inputs": [
        {
          "internalType": "bytes",
          "name": "_metadata",
          "type": "bytes"
        }
      ],
      "name": "setMetadata",
      "outputs": [],
      "stateMutability": "nonpayable",
      "type": "function"
    },
    {
      "inputs": [
        {
          "internalType": "address",
          "name": "_signatureValidator",
          "type": "address"
        }
      ],
      "name": "setSignatureValidator",
      "outputs": [],
      "stateMutability": "nonpayable",
      "type": "function"
    },
    {
      "inputs": [
        {
          "internalType": "address",
          "name": "_newTrustedForwarder",
          "type": "address"
        }
      ],
      "name": "setTrustedForwarder",
      "outputs": [],
      "stateMutability": "nonpayable",
      "type": "function"
    },
    {
      "inputs": [],
      "name": "signatureValidator",
      "outputs": [
        {
          "internalType": "contract IERC1271",
          "name": "",
          "type": "address"
        }
      ],
      "stateMutability": "view",
      "type": "function"
    },
    {
      "inputs": [
        {
          "internalType": "bytes4",
          "name": "interfaceId",
          "type": "bytes4"
        }
      ],
      "name": "supportsInterface",
      "outputs": [
        {
          "internalType": "bool",
          "name": "",
          "type": "bool"
        }
      ],
      "stateMutability": "view",
      "type": "function"
    },
    {
      "inputs": [
        {
          "internalType": "address",
          "name": "newImplementation",
          "type": "address"
        }
      ],
      "name": "upgradeTo",
      "outputs": [],
      "stateMutability": "nonpayable",
      "type": "function"
    },
    {
      "inputs": [
        {
          "internalType": "address",
          "name": "newImplementation",
          "type": "address"
        },
        {
          "internalType": "bytes",
          "name": "data",
          "type": "bytes"
        }
      ],
      "name": "upgradeToAndCall",
      "outputs": [],
      "stateMutability": "payable",
      "type": "function"
    },
    {
      "stateMutability": "payable",
      "type": "receive"
    }
  ],
  "numDeployments": 1,
  "solcInputHash": "f97dc15e6d1f74cd3e4f0c0726ba97cc",
  "bytecode": "0x60a0604052306080523480156200001557600080fd5b506200002062000026565b620000e8565b600054610100900460ff1615620000935760405162461bcd60e51b815260206004820152602760248201527f496e697469616c697a61626c653a20636f6e747261637420697320696e697469604482015266616c697a696e6760c81b606482015260840160405180910390fd5b60005460ff9081161015620000e6576000805460ff191660ff9081179091556040519081527f7f26b83ff96e1f2b6a682f133852f6798a09c465da95921460cefb38474024989060200160405180910390a15b565b6080516132436200012060003960008181610a4601528181610a8601528181610ca101528181610ce10152610d7401526132436000f3fe6080604052600436106101e75760003560e01c80637034731b11610102578063d96054c411610095578063e978afe511610064578063e978afe5146106e6578063eafb8b0614610706578063ee57e36f14610726578063fdef91061461074657610226565b8063d96054c414610650578063da74222814610670578063e2e3556314610690578063e306bee7146106c457610226565b8063c71bf324116100d1578063c71bf324146105c3578063c9dbc2a4146105f1578063ce1b815f14610611578063d68bad2c1461063057610226565b80637034731b1461053a578063829331a11461055c578063bfe07da614610590578063c4a50145146105a357610226565b806326875b1f1161017a5780633e2ab0d9116101495780633e2ab0d9146104d257806342d8e99e146104f25780634f1ef2861461051257806352d1902d1461052557610226565b806326875b1f146104235780632ae9c600146104575780633659cfe614610479578063388da9341461049957610226565b80631626ba7e116101b65780631626ba7e1461037657806322844d04146103af57806324b4d73f146103cf5780632675fdd01461040357610226565b806301ffc9a7146102bb5780630729d054146102f057806309e56b14146103325780631080f99b1461035457610226565b3661022657604080513381523460208201527f62c2c8e34665db7c56b2cabd7f5fb9702ccd352ffa8150147e450797e9f8e8f3910160405180910390a1005b34801561023257600080fd5b50600036606060006102866000356001600160e01b03191685858080601f01602080910402602001604051908101604052809392919081815260200183838082843760009201919091525061076692505050565b604080516001600160e01b03198316602082015291925001604051602081830303815290604052915050915050805190602001f35b3480156102c757600080fd5b506102db6102d63660046123c9565b61080f565b60405190151581526020015b60405180910390f35b3480156102fc57600080fd5b506103247fbf04b4486c9663d805744005c3da000eda93de6e3308a4a7a812eb565327b78d81565b6040519081526020016102e7565b34801561033e57600080fd5b506103246000805160206131ee83398151915281565b34801561036057600080fd5b5061037461036f36600461242e565b61084b565b005b34801561038257600080fd5b50610396610391366004612511565b610872565b6040516001600160e01b031990911681526020016102e7565b3480156103bb57600080fd5b506103746103ca36600461256c565b610909565b3480156103db57600080fd5b506103247f1f53edd44352e5d15bad2b29233baa93bcd595e09457780bc7c5445bbbe751cc81565b34801561040f57600080fd5b506102db61041e3660046125f3565b6109c7565b34801561042f57600080fd5b506103247ffaf505be9907aa6951c2ebe5b0312f4980e14f21912ed355372103cc8bd683bc81565b34801561046357600080fd5b5061046c610a12565b6040516102e7919061265e565b34801561048557600080fd5b50610374610494366004612692565b610a3c565b3480156104a557600080fd5b5061012d546104ba906001600160a01b031681565b6040516001600160a01b0390911681526020016102e7565b3480156104de57600080fd5b506103746104ed366004612692565b610b1b565b3480156104fe57600080fd5b5061037461050d3660046126af565b610b9c565b610374610520366004612706565b610c97565b34801561053157600080fd5b50610324610d67565b34801561054657600080fd5b5061054f610e1a565b6040516102e7919061278f565b34801561056857600080fd5b506103247f06d294bc8cbad2e393408b20dd019a772661f60b8d633e56761157cb1ec85f8c81565b61037461059e3660046127a2565b610ead565b3480156105af57600080fd5b506103746105be3660046127fd565b610f9c565b3480156105cf57600080fd5b506105e36105de366004612848565b611026565b6040516102e7929190612921565b3480156105fd57600080fd5b5061037461060c366004612943565b6112e7565b34801561061d57600080fd5b5061012e546001600160a01b03166104ba565b34801561063c57600080fd5b5061037461064b366004612996565b61130b565b34801561065c57600080fd5b5061037461066b366004612996565b611334565b34801561067c57600080fd5b5061037461068b366004612692565b611357565b34801561069c57600080fd5b506103247f0dcbfb19b09fb8ff4e9af583d4b8e9c8127cc1b26529b4d96dd3b7e77808837281565b3480156106d057600080fd5b5061032460008051602061318783398151915281565b3480156106f257600080fd5b506103746107013660046129d7565b61138a565b34801561071257600080fd5b50610374610721366004612a4b565b61147f565b34801561073257600080fd5b5061037461074136600461242e565b61158e565b34801561075257600080fd5b506102db6107613660046125f3565b6115b0565b6001600160e01b0319808316600090815260fb6020526040812054909160e09190911b9081166107c257604051632a5ee61f60e11b81526001600160e01b03198086166004830152821660248201526044015b60405180910390fd5b836001600160e01b0319167f4792cb6e46e49876374bea490ba23274bacea6b84c216a64f47abab54027589b33856040516107fe929190612ae3565b60405180910390a290505b92915050565b60006301ffc9a760e01b6001600160e01b0319831614806108095750506001600160e01b03191660009081526033602052604090205460ff1690565b600080516020613187833981519152610863816115be565b61086d838361162d565b505050565b61012d546000906001600160a01b031661088e57506000610809565b61012d54604051630b135d3f60e11b81526001600160a01b0390911690631626ba7e906108c19086908690600401612b07565b602060405180830381865afa1580156108de573d6000803e3d6000fd5b505050506040513d601f19601f820116820180604052508101906109029190612b20565b9392505050565b6000805160206131ee833981519152610921816115be565b60005b828110156109c057600084848381811061094057610940612b3d565b9050606002018036038101906109569190612b67565b905060008151600281111561096d5761096d612bcf565b0361098a57610985868260200151836040015161166d565b6109b7565b60018151600281111561099f5761099f612bcf565b036109b7576109b7868260200151836040015161167a565b50600101610924565b5050505050565b60006109d58585858561170e565b806109ee57506109ee856001600160a01b03858561170e565b80610a075750610a076001600160a01b0385858561170e565b90505b949350505050565b610a1a612395565b5060408051606081018252600181526003602082015260009181019190915290565b6001600160a01b037f0000000000000000000000000000000000000000000000000000000000000000163003610a845760405162461bcd60e51b81526004016107b990612be5565b7f00000000000000000000000000000000000000000000000000000000000000006001600160a01b0316610acd6000805160206131a7833981519152546001600160a01b031690565b6001600160a01b031614610af35760405162461bcd60e51b81526004016107b990612c31565b610afc816117f6565b60408051600080825260208201909252610b1891839190611820565b50565b7f0dcbfb19b09fb8ff4e9af583d4b8e9c8127cc1b26529b4d96dd3b7e778088372610b45816115be565b61012d80546001600160a01b0319166001600160a01b0384169081179091556040519081527f3b25c5d3870ec0eac28822b177f18c9130233ade5b7f857c6a224a507c37fc4e906020015b60405180910390a15050565b600054600290610100900460ff16158015610bbe575060005460ff8083169116105b610bda5760405162461bcd60e51b81526004016107b990612c7d565b6000805461ffff191660ff831617610100179055610bfb6020850185612cdc565b60ff16600114610c2057836040516384833d6760e01b81526004016107b99190612cf7565b6002610c326040860160208701612cdc565b60ff1611610c4f57600161013055610c4f621574e360e91b61198b565b6000805461ff001916905560405160ff821681527f7f26b83ff96e1f2b6a682f133852f6798a09c465da95921460cefb3847402498906020015b60405180910390a150505050565b6001600160a01b037f0000000000000000000000000000000000000000000000000000000000000000163003610cdf5760405162461bcd60e51b81526004016107b990612be5565b7f00000000000000000000000000000000000000000000000000000000000000006001600160a01b0316610d286000805160206131a7833981519152546001600160a01b031690565b6001600160a01b031614610d4e5760405162461bcd60e51b81526004016107b990612c31565b610d57826117f6565b610d6382826001611820565b5050565b6000306001600160a01b037f00000000000000000000000000000000000000000000000000000000000000001614610e075760405162461bcd60e51b815260206004820152603860248201527f555550535570677261646561626c653a206d757374206e6f742062652063616c60448201527f6c6564207468726f7567682064656c656761746563616c6c000000000000000060648201526084016107b9565b506000805160206131a783398151915290565b606061012f8054610e2a90612d2a565b80601f0160208091040260200160405190810160405280929190818152602001828054610e5690612d2a565b8015610ea35780601f10610e7857610100808354040283529160200191610ea3565b820191906000526020600020905b815481529060010190602001808311610e8657829003601f168201915b5050505050905090565b82600003610ece57604051631f2a200560e01b815260040160405180910390fd5b6001600160a01b038416610f0a57823414610f05576040516301abd56160e41b8152600481018490523460248201526044016107b9565b610f47565b3415610f32576040516301abd56160e41b8152600060048201523460248201526044016107b9565b610f476001600160a01b038516333086611a0a565b836001600160a01b0316336001600160a01b03167f2bc500cf071be2d1c1458ed6ff484cd4db4345ada8943dee7ff29e7af3558f76858585604051610f8e93929190612d8d565b60405180910390a350505050565b7ffaf505be9907aa6951c2ebe5b0312f4980e14f21912ed355372103cc8bd683bc610fc6816115be565b610fcf8461198b565b610fd98383611a64565b604080516001600160e01b0319808716825280861660208301528416918101919091527ffc72fd547553f7a663e0048e590afc9c47b56a4242e960f31cf4c62e23d308b990606001610c89565b606060006002610130540361104e576040516306fda65d60e31b815260040160405180910390fd5b6002610130557fbf04b4486c9663d805744005c3da000eda93de6e3308a4a7a812eb565327b78d61107e816115be565b6101008511156110a1576040516308e3b1eb60e11b815260040160405180910390fd5b846001600160401b038111156110b9576110b961246f565b6040519080825280602002602001820160405280156110ec57816020015b60608152602001906001900390816110d75790505b50925060008060005b87811015611287575a92506000808a8a8481811061111557611115612b3d565b90506020028101906111279190612da7565b611135906020810190612692565b6001600160a01b03168b8b8581811061115057611150612b3d565b90506020028101906111629190612da7565b602001358c8c8681811061117857611178612b3d565b905060200281019061118a9190612da7565b611198906040810190612dc7565b6040516111a6929190612e0d565b60006040518083038185875af1925050503d80600081146111e3576040519150601f19603f3d011682016040523d82523d6000602084013e6111e8565b606091505b50915091505a9350600160ff84161b8916611223578161121e5760405163a6a7dbbd60e01b8152600481018490526024016107b9565b61125f565b8161125f57611233604086612e1d565b841015611253576040516307099c5360e21b815260040160405180910390fd5b600160ff84161b871896505b8088848151811061127257611272612b3d565b602090810291909101015250506001016110f5565b50336001600160a01b03167fd4e57c2049f004fb297ef78591cd409503ceb6b2c722d7ffed032fc99e5f3b588a8a8a8a898b6040516112cb96959493929190612e3f565b60405180910390a2505060016101305550909590945092505050565b6000805160206131ee8339815191526112ff816115be565b6109c085858585611a96565b6000805160206131ee833981519152611323816115be565b61132e84848461166d565b50505050565b6000805160206131ee83398151915261134c816115be565b61132e84848461167a565b7f06d294bc8cbad2e393408b20dd019a772661f60b8d633e56761157cb1ec85f8c611381816115be565b610d6382611c74565b6000805160206131ee8339815191526113a2816115be565b60005b8281101561132e5760008484838181106113c1576113c1612b3d565b905060a002018036038101906113d79190612f4d565b90506000815160028111156113ee576113ee612bcf565b0361140f5761140a81602001518260400151836080015161166d565b611476565b60018151600281111561142457611424612bcf565b036114405761140a81602001518260400151836080015161167a565b60028151600281111561145557611455612bcf565b03611476576114768160200151826040015183608001518460600151611a96565b506001016113a5565b600054600290610100900460ff161580156114a1575060005460ff8083169116105b6114bd5760405162461bcd60e51b81526004016107b990612c7d565b6000805461ffff191660ff8316176101001790556001610130556114e76349c2aa3f60e11b61198b565b6114f7630b135d3f60e11b61198b565b611507637034731b60e01b61198b565b611516621574e360e91b61198b565b61151e611cc9565b6115288787611d1e565b61153184611c74565b61153b838361162d565b61154485611d4f565b6000805461ff001916905560405160ff821681527f7f26b83ff96e1f2b6a682f133852f6798a09c465da95921460cefb38474024989060200160405180910390a150505050505050565b6000805160206131878339815191526115a6816115be565b61086d8383611d1e565b6000610a07858585856109c7565b6116013033836000368080601f0160208091040260200160405190810160405280939291908181526020018383808284376000920191909152506109c792505050565b610b1857604051631e09743f60e01b8152306004820152336024820152604481018290526064016107b9565b61012f61163b828483613029565b507fe9b617ecb5f63f6a9ccd8d4d5fa0d7b2ef9b17ce3f48e6b135808d6a40e677428282604051610b909291906130e8565b61086d8383836002611a96565b6000611687848484611dc3565b600081815260c960205260409020549091506001600160a01b03161561132e57600081815260c9602090815260409182902080546001600160a01b031916905590516001600160a01b038681168252851691339185917f3ca48185ec3f6e47e24db18b13f1c65b1ce05da1659f9c1c4fe717dda5f67524910160405180910390a450505050565b60008060c96000611720888888611dc3565b81526020810191909152604001600020546001600160a01b031690508061174b576000915050610a0a565b6001196001600160a01b03821601611767576001915050610a0a565b6040516302675fdd60e41b81526001600160a01b03821690632675fdd0906117999089908990899089906004016130fc565b602060405180830381865afa9250505080156117d2575060408051601f3d908101601f191682019092526117cf91810190613139565b60015b156117ea5780156117e857600192505050610a0a565b505b50600095945050505050565b7f1f53edd44352e5d15bad2b29233baa93bcd595e09457780bc7c5445bbbe751cc610d63816115be565b7f4910fdfa16fed3260ed0e7147f7cc6da11a60208b5b9406d12a635614ffd91435460ff16156118535761086d83611e28565b826001600160a01b03166352d1902d6040518163ffffffff1660e01b8152600401602060405180830381865afa9250505080156118ad575060408051601f3d908101601f191682019092526118aa9181019061315b565b60015b6119105760405162461bcd60e51b815260206004820152602e60248201527f45524331393637557067726164653a206e657720696d706c656d656e7461746960448201526d6f6e206973206e6f74205555505360901b60648201526084016107b9565b6000805160206131a7833981519152811461197f5760405162461bcd60e51b815260206004820152602960248201527f45524331393637557067726164653a20756e737570706f727465642070726f786044820152681a58589b195555525160ba1b60648201526084016107b9565b5061086d838383611ec4565b6001600160e01b031980821690036119e55760405162461bcd60e51b815260206004820152601c60248201527f4552433136353a20696e76616c696420696e746572666163652069640000000060448201526064016107b9565b6001600160e01b0319166000908152603360205260409020805460ff19166001179055565b604080516001600160a01b0385811660248301528416604482015260648082018490528251808303909101815260849091019091526020810180516001600160e01b03166323b872dd60e01b17905261132e908590611ee9565b6001600160e01b031991909116600090815260fb60205260409020805463ffffffff191660e09290921c919091179055565b6001600160a01b03848116148015611ab657506001600160a01b03838116145b15611ad4576040516385f1ba9960e01b815260040160405180910390fd5b6001600160a01b038481161480611af357506001600160a01b03838116145b15611b69576000611b0383611fbb565b90506000805160206131ee833981519152831480611b1e5750805b15611b3c576040516324159e5b60e01b815260040160405180910390fd5b6001196001600160a01b03831601611b67576040516324aadf4360e21b815260040160405180910390fd5b505b6000611b76858585611dc3565b600081815260c960205260409020549091506001600160a01b03168281611c0f57600083815260c9602090815260409182902080546001600160a01b0319166001600160a01b038581169190911790915582518a8216815287821692810192909252881691339188917f0f579ad49235a8c1fd9041427e7067b1eb10926bbed380bf6fabc73e0e807644910160405180910390a4611c6b565b806001600160a01b0316826001600160a01b031614611c6b576040516305cc3c4f60e11b81526001600160a01b03808916600483015280881660248301526044820187905280841660648301528216608482015260a4016107b9565b50505050505050565b61012e80546001600160a01b0319166001600160a01b0383169081179091556040519081527fd91237492a9e30cd2faf361fc103998a382ff0ec2b1b07dc1cbebb76ae2f1ea29060200160405180910390a150565b611cd9630a85bd0160e11b61198b565b611ce9630271189760e51b61198b565b611cfa630a85bd0160e11b80611a64565b611d0b63f23a6e6160e01b80611a64565b611d1c63bc197c8160e01b80611a64565b565b7fbb39ebb37e60fb5d606ffdb749d2336e56b88e6c88c4bd6513b308f643186eed8282604051610b909291906130e8565b600054610100900460ff16611dba5760405162461bcd60e51b815260206004820152602b60248201527f496e697469616c697a61626c653a20636f6e7472616374206973206e6f74206960448201526a6e697469616c697a696e6760a81b60648201526084016107b9565b610b18816120a2565b604051692822a926a4a9a9a4a7a760b11b60208201526bffffffffffffffffffffffff19606084811b8216602a84015285901b16603e820152605281018290526000906072016040516020818303038152906040528051906020012090509392505050565b6001600160a01b0381163b611e955760405162461bcd60e51b815260206004820152602d60248201527f455243313936373a206e657720696d706c656d656e746174696f6e206973206e60448201526c1bdd08184818dbdb9d1c9858dd609a1b60648201526084016107b9565b6000805160206131a783398151915280546001600160a01b0319166001600160a01b0392909216919091179055565b611ecd836120bb565b600082511180611eda5750805b1561086d5761132e83836120fb565b6000611f3e826040518060400160405280602081526020017f5361666545524332303a206c6f772d6c6576656c2063616c6c206661696c6564815250856001600160a01b03166121ef9092919063ffffffff16565b80519091501561086d5780806020019051810190611f5c9190613139565b61086d5760405162461bcd60e51b815260206004820152602a60248201527f5361666545524332303a204552433230206f7065726174696f6e20646964206e6044820152691bdd081cdd58d8d9595960b21b60648201526084016107b9565b60007fbf04b4486c9663d805744005c3da000eda93de6e3308a4a7a812eb565327b78d82148061200a57507f1f53edd44352e5d15bad2b29233baa93bcd595e09457780bc7c5445bbbe751cc82145b80612022575060008051602061318783398151915282145b8061204c57507f06d294bc8cbad2e393408b20dd019a772661f60b8d633e56761157cb1ec85f8c82145b8061207657507f0dcbfb19b09fb8ff4e9af583d4b8e9c8127cc1b26529b4d96dd3b7e77808837282145b806108095750507ffaf505be9907aa6951c2ebe5b0312f4980e14f21912ed355372103cc8bd683bc1490565b610b1830826000805160206131ee83398151915261166d565b6120c481611e28565b6040516001600160a01b038216907fbc7cd75a20ee27fd9adebab32041f755214dbc6bffa90cc0225b39da2e5c2d3b90600090a250565b60606001600160a01b0383163b6121635760405162461bcd60e51b815260206004820152602660248201527f416464726573733a2064656c65676174652063616c6c20746f206e6f6e2d636f6044820152651b9d1c9858dd60d21b60648201526084016107b9565b600080846001600160a01b03168460405161217e9190613174565b600060405180830381855af49150503d80600081146121b9576040519150601f19603f3d011682016040523d82523d6000602084013e6121be565b606091505b50915091506121e682826040518060600160405280602781526020016131c7602791396121fe565b95945050505050565b6060610a0a8484600085612217565b6060831561220d575081610902565b61090283836122f2565b6060824710156122785760405162461bcd60e51b815260206004820152602660248201527f416464726573733a20696e73756666696369656e742062616c616e636520666f6044820152651c8818d85b1b60d21b60648201526084016107b9565b600080866001600160a01b031685876040516122949190613174565b60006040518083038185875af1925050503d80600081146122d1576040519150601f19603f3d011682016040523d82523d6000602084013e6122d6565b606091505b50915091506122e78783838761231c565b979650505050505050565b8151156123025781518083602001fd5b8060405162461bcd60e51b81526004016107b9919061278f565b6060831561238b578251600003612384576001600160a01b0385163b6123845760405162461bcd60e51b815260206004820152601d60248201527f416464726573733a2063616c6c20746f206e6f6e2d636f6e747261637400000060448201526064016107b9565b5081610a0a565b610a0a83836122f2565b60405180606001604052806003906020820280368337509192915050565b6001600160e01b031981168114610b1857600080fd5b6000602082840312156123db57600080fd5b8135610902816123b3565b60008083601f8401126123f857600080fd5b5081356001600160401b0381111561240f57600080fd5b60208301915083602082850101111561242757600080fd5b9250929050565b6000806020838503121561244157600080fd5b82356001600160401b0381111561245757600080fd5b612463858286016123e6565b90969095509350505050565b634e487b7160e01b600052604160045260246000fd5b600082601f83011261249657600080fd5b81356001600160401b03808211156124b0576124b061246f565b604051601f8301601f19908116603f011681019082821181831017156124d8576124d861246f565b816040528381528660208588010111156124f157600080fd5b836020870160208301376000602085830101528094505050505092915050565b6000806040838503121561252457600080fd5b8235915060208301356001600160401b0381111561254157600080fd5b61254d85828601612485565b9150509250929050565b6001600160a01b0381168114610b1857600080fd5b60008060006040848603121561258157600080fd5b833561258c81612557565b925060208401356001600160401b03808211156125a857600080fd5b818601915086601f8301126125bc57600080fd5b8135818111156125cb57600080fd5b8760206060830285010111156125e057600080fd5b6020830194508093505050509250925092565b6000806000806080858703121561260957600080fd5b843561261481612557565b9350602085013561262481612557565b92506040850135915060608501356001600160401b0381111561264657600080fd5b61265287828801612485565b91505092959194509250565b60608101818360005b600381101561268957815160ff16835260209283019290910190600101612667565b50505092915050565b6000602082840312156126a457600080fd5b813561090281612557565b6000806000608084860312156126c457600080fd5b60608401858111156126d557600080fd5b849350356001600160401b038111156126ed57600080fd5b6126f9868287016123e6565b9497909650939450505050565b6000806040838503121561271957600080fd5b823561272481612557565b915060208301356001600160401b0381111561254157600080fd5b60005b8381101561275a578181015183820152602001612742565b50506000910152565b6000815180845261277b81602086016020860161273f565b601f01601f19169290920160200192915050565b6020815260006109026020830184612763565b600080600080606085870312156127b857600080fd5b84356127c381612557565b93506020850135925060408501356001600160401b038111156127e557600080fd5b6127f1878288016123e6565b95989497509550505050565b60008060006060848603121561281257600080fd5b833561281d816123b3565b9250602084013561282d816123b3565b9150604084013561283d816123b3565b809150509250925092565b6000806000806060858703121561285e57600080fd5b8435935060208501356001600160401b038082111561287c57600080fd5b818701915087601f83011261289057600080fd5b81358181111561289f57600080fd5b8860208260051b85010111156128b457600080fd5b95986020929092019750949560400135945092505050565b600081518084526020808501808196508360051b8101915082860160005b85811015612914578284038952612902848351612763565b988501989350908401906001016128ea565b5091979650505050505050565b60408152600061293460408301856128cc565b90508260208301529392505050565b6000806000806080858703121561295957600080fd5b843561296481612557565b9350602085013561297481612557565b925060408501359150606085013561298b81612557565b939692955090935050565b6000806000606084860312156129ab57600080fd5b83356129b681612557565b925060208401356129c681612557565b929592945050506040919091013590565b600080602083850312156129ea57600080fd5b82356001600160401b0380821115612a0157600080fd5b818501915085601f830112612a1557600080fd5b813581811115612a2457600080fd5b86602060a083028501011115612a3957600080fd5b60209290920196919550909350505050565b60008060008060008060808789031215612a6457600080fd5b86356001600160401b0380821115612a7b57600080fd5b612a878a838b016123e6565b909850965060208901359150612a9c82612557565b909450604088013590612aae82612557565b90935060608801359080821115612ac457600080fd5b50612ad189828a016123e6565b979a9699509497509295939492505050565b6001600160a01b0383168152604060208201819052600090610a0a90830184612763565b828152604060208201526000610a0a6040830184612763565b600060208284031215612b3257600080fd5b8151610902816123b3565b634e487b7160e01b600052603260045260246000fd5b803560038110612b6257600080fd5b919050565b600060608284031215612b7957600080fd5b604051606081018181106001600160401b0382111715612b9b57612b9b61246f565b604052612ba783612b53565b81526020830135612bb781612557565b60208201526040928301359281019290925250919050565b634e487b7160e01b600052602160045260246000fd5b6020808252602c908201527f46756e6374696f6e206d7573742062652063616c6c6564207468726f7567682060408201526b19195b1959d85d1958d85b1b60a21b606082015260800190565b6020808252602c908201527f46756e6374696f6e206d7573742062652063616c6c6564207468726f7567682060408201526b6163746976652070726f787960a01b606082015260800190565b6020808252602e908201527f496e697469616c697a61626c653a20636f6e747261637420697320616c72656160408201526d191e481a5b9a5d1a585b1a5e995960921b606082015260800190565b803560ff81168114612b6257600080fd5b600060208284031215612cee57600080fd5b61090282612ccb565b60608101818360005b60038110156126895760ff612d1483612ccb565b1683526020928301929190910190600101612d00565b600181811c90821680612d3e57607f821691505b602082108103612d5e57634e487b7160e01b600052602260045260246000fd5b50919050565b81835281816020850137506000828201602090810191909152601f909101601f19169091010190565b838152604060208201526000610a07604083018486612d64565b60008235605e19833603018112612dbd57600080fd5b9190910192915050565b6000808335601e19843603018112612dde57600080fd5b8301803591506001600160401b03821115612df857600080fd5b60200191503681900382131561242757600080fd5b8183823760009101908152919050565b600082612e3a57634e487b7160e01b600052601260045260246000fd5b500490565b600060a08201888352602060a0818501528188835260c08501905060c08960051b86010192508960005b8a811015612f1e5786850360bf190183528135368d9003605e19018112612e8f57600080fd5b8c0160608135612e9e81612557565b6001600160a01b03168752818601358688015260408083013536849003601e19018112612eca57600080fd5b9092018681019290356001600160401b03811115612ee757600080fd5b803603841315612ef657600080fd5b82828a0152612f08838a018286612d64565b9850505093850193505090830190600101612e69565b505050508560408401528460608401528281036080840152612f4081856128cc565b9998505050505050505050565b600060a08284031215612f5f57600080fd5b60405160a081018181106001600160401b0382111715612f8157612f8161246f565b604052612f8d83612b53565b81526020830135612f9d81612557565b60208201526040830135612fb081612557565b60408201526060830135612fc381612557565b60608201526080928301359281019290925250919050565b601f82111561086d57600081815260208120601f850160051c810160208610156130025750805b601f850160051c820191505b818110156130215782815560010161300e565b505050505050565b6001600160401b038311156130405761304061246f565b6130548361304e8354612d2a565b83612fdb565b6000601f84116001811461308857600085156130705750838201355b600019600387901b1c1916600186901b1783556109c0565b600083815260209020601f19861690835b828110156130b95786850135825560209485019460019092019101613099565b50868210156130d65760001960f88860031b161c19848701351681555b505060018560011b0183555050505050565b602081526000610a0a602083018486612d64565b6001600160a01b038581168252841660208201526040810183905260806060820181905260009061312f90830184612763565b9695505050505050565b60006020828403121561314b57600080fd5b8151801515811461090257600080fd5b60006020828403121561316d57600080fd5b5051919050565b60008251612dbd81846020870161273f56fe4707e94b25cfce1a7c363508fbb838c35864388ad77284b248282b9746982b9b360894a13ba1a3210667c828492db98dca3e2076cc3735a920a3ca505d382bbc416464726573733a206c6f772d6c6576656c2064656c65676174652063616c6c206661696c6564815fe80e4b37c8582a3b773d1d7071f983eacfd56b5965db654f3087c25ada33a26469706673582212206039b6070418d59d79135181919679d1457389600aa3d7aba510937c36c3b5da64736f6c63430008110033",
  "devdoc": {
    "author": "Aragon Association - 2021-2023",
    "details": "Public API of the Aragon DAO framework.",
    "errors": {
      "ActionFailed(uint256)": [
        {
          "params": {
            "index": "The index of the action in the action array that failed."
          }
        }
      ],
      "NativeTokenDepositAmountMismatch(uint256,uint256)": [
        {
          "params": {
            "actual": "The actual native token amount deposited.",
            "expected": "The expected native token amount."
          }
        }
      ],
      "PermissionAlreadyGrantedForDifferentCondition(address,address,bytes32,address,address)": [
        {
          "details": "This makes sure that condition on the same permission can not be overwriten by a different condition.",
          "params": {
            "currentCondition": "The current condition set for permissionId.",
            "newCondition": "The new condition it tries to set for permissionId.",
            "permissionId": "The permission identifier.",
            "where": "The address of the target contract to grant `_who` permission to.",
            "who": "The address (EOA or contract) to which the permission has already been granted."
          }
        }
      ],
      "Unauthorized(address,address,bytes32)": [
        {
          "params": {
            "permissionId": "The permission identifier.",
            "where": "The context in which the authorization reverted.",
            "who": "The address (EOA or contract) missing the permission."
          }
        }
      ],
      "UnkownCallback(bytes4,bytes4)": [
        {
          "params": {
            "callbackSelector": "The selector of the callback function.",
            "magicNumber": "The magic number to be registered for the callback function selector."
          }
        }
      ]
    },
    "events": {
      "NewURI(string)": {
        "params": {
          "daoURI": "The new URI."
        }
      }
    },
    "kind": "dev",
    "methods": {
      "applyMultiTargetPermissions((uint8,address,address,address,bytes32)[])": {
        "params": {
          "_items": "The array of multi-targeted permission operations to apply."
        }
      },
      "applySingleTargetPermissions(address,(uint8,address,bytes32)[])": {
        "params": {
          "_where": "The address of the single target contract.",
          "items": "The array of single-targeted permission operations to apply."
        }
      },
      "daoURI()": {
        "returns": {
          "_0": "The DAO URI."
        }
      },
      "deposit(address,uint256,string)": {
        "params": {
          "_amount": "The amount of tokens to deposit.",
          "_reference": "The reference describing the deposit reason.",
          "_token": "The address of the token or address(0) in case of the native token."
        }
      },
      "execute(bytes32,(address,uint256,bytes)[],uint256)": {
        "params": {
          "_actions": "The array of actions.",
          "_allowFailureMap": "A bitmap allowing execution to succeed, even if individual actions might revert. If the bit at index `i` is 1, the execution succeeds even if the `i`th action reverts. A failure map value of 0 requires every action to not revert.",
          "_callId": "The ID of the call. The definition of the value of `callId` is up to the calling contract and can be used, e.g., as a nonce."
        },
        "returns": {
          "execResults": "The array of results obtained from the executed actions in `bytes`.",
          "failureMap": "The resulting failure map containing the actions have actually failed."
        }
      },
      "getTrustedForwarder()": {
        "returns": {
          "_0": "The trusted forwarder address."
        }
      },
      "grant(address,address,bytes32)": {
        "details": "Requires the `ROOT_PERMISSION_ID` permission.Note, that granting permissions with `_who` or `_where` equal to `ANY_ADDR` does not replace other permissions with specific `_who` and `_where` addresses that exist in parallel.",
        "params": {
          "_permissionId": "The permission identifier.",
          "_where": "The address of the target contract for which `_who` receives permission.",
          "_who": "The address (EOA or contract) receiving the permission."
        }
      },
      "grantWithCondition(address,address,bytes32,address)": {
        "details": "Requires the `ROOT_PERMISSION_ID` permissionNote, that granting permissions with `_who` or `_where` equal to `ANY_ADDR` does not replace other permissions with specific `_who` and `_where` addresses that exist in parallel.",
        "params": {
          "_condition": "The `PermissionCondition` that will be asked for authorization on calls connected to the specified permission identifier.",
          "_permissionId": "The permission identifier.",
          "_where": "The address of the target contract for which `_who` receives permission.",
          "_who": "The address (EOA or contract) receiving the permission."
        }
      },
      "hasPermission(address,address,bytes32,bytes)": {
        "params": {
          "_data": "The optional data passed to the `PermissionCondition` registered.",
          "_permissionId": "The permission identifier.",
          "_where": "The address of the contract.",
          "_who": "The address of a EOA or contract to give the permissions."
        },
        "returns": {
          "_0": "Returns true if the address has permission, false if not."
        }
      },
      "initialize(bytes,address,address,string)": {
        "details": "This method is required to support [ERC-1822](https://eips.ethereum.org/EIPS/eip-1822).",
        "params": {
          "_initialOwner": "The initial owner of the DAO having the `ROOT_PERMISSION_ID` permission.",
          "_metadata": "IPFS hash that points to all the metadata (logo, description, tags, etc.) of a DAO.",
          "_trustedForwarder": "The trusted forwarder responsible for verifying meta transactions.",
          "daoURI_": "The DAO URI required to support [ERC-4824](https://eips.ethereum.org/EIPS/eip-4824)."
        }
      },
      "initializeFrom(uint8[3],bytes)": {
        "params": {
          "_initData": "The initialization data to be passed to via `upgradeToAndCall` (see [ERC-1967](https://docs.openzeppelin.com/contracts/4.x/api/proxy#ERC1967Upgrade)).",
          "_previousProtocolVersion": "The semantic protocol version number of the previous DAO implementation contract this upgrade is transitioning from."
        }
      },
      "isGranted(address,address,bytes32,bytes)": {
        "params": {
          "_data": "The optional data passed to the `PermissionCondition` registered.",
          "_permissionId": "The permission identifier.",
          "_where": "The address of the target contract for which `_who` receives permission.",
          "_who": "The address (EOA or contract) for which the permission is checked."
        },
        "returns": {
          "_0": "Returns true if `_who` has the permissions on the target contract via the specified permission identifier."
        }
      },
      "isValidSignature(bytes32,bytes)": {
        "params": {
          "_hash": "The hash of the data to be signed.",
          "_signature": "The signature byte array associated with `_hash`."
        },
        "returns": {
          "_0": "Returns the `bytes4` magic value `0x1626ba7e` if the signature is valid."
        }
      },
      "protocolVersion()": {
        "returns": {
          "_0": "Returns the semantic OSx protocol version."
        }
      },
      "proxiableUUID()": {
        "details": "Implementation of the ERC1822 {proxiableUUID} function. This returns the storage slot used by the implementation. It is used to validate the implementation's compatibility when performing an upgrade. IMPORTANT: A proxy pointing at a proxiable contract should not be considered proxiable itself, because this risks bricking a proxy that upgrades to it, by delegating to itself until out of gas. Thus it is critical that this function revert if invoked through a proxy. This is guaranteed by the `notDelegated` modifier."
      },
      "registerStandardCallback(bytes4,bytes4,bytes4)": {
        "params": {
          "_callbackSelector": "The selector of the callback function.",
          "_interfaceId": "The ID of the interface.",
          "_magicNumber": "The magic number to be registered for the function signature."
        }
      },
      "revoke(address,address,bytes32)": {
        "details": "Requires the `ROOT_PERMISSION_ID` permission.Note, that revoking permissions with `_who` or `_where` equal to `ANY_ADDR` does not revoke other permissions with specific `_who` and `_where` addresses that exist in parallel.",
        "params": {
          "_permissionId": "The permission identifier.",
          "_where": "The address of the target contract for which `_who` loses permission.",
          "_who": "The address (EOA or contract) losing the permission."
        }
      },
      "setDaoURI(string)": {
        "params": {
          "newDaoURI": "The new DAO URI to be set."
        }
      },
      "setMetadata(bytes)": {
        "params": {
          "_metadata": "The IPFS hash of the new metadata object."
        }
      },
      "setSignatureValidator(address)": {
        "params": {
          "_signatureValidator": "The address of the signature validator."
        }
      },
      "setTrustedForwarder(address)": {
        "params": {
          "_trustedForwarder": "The trusted forwarder address."
        }
      },
      "supportsInterface(bytes4)": {
        "details": "See {IERC165-supportsInterface}."
      },
      "upgradeTo(address)": {
        "details": "Upgrade the implementation of the proxy to `newImplementation`. Calls {_authorizeUpgrade}. Emits an {Upgraded} event."
      },
      "upgradeToAndCall(address,bytes)": {
        "details": "Upgrade the implementation of the proxy to `newImplementation`, and subsequently execute the function call encoded in `data`. Calls {_authorizeUpgrade}. Emits an {Upgraded} event."
      }
    },
    "stateVariables": {
      "_daoURI": {
        "details": "Added in v1.0.0."
      },
      "_reentrancyStatus": {
        "details": "Added in v1.3.0. The variable can be of value `_NOT_ENTERED = 1` or `_ENTERED = 2` in usage and is initialized with `_NOT_ENTERED`."
      },
      "signatureValidator": {
        "details": "Added in v1.0.0."
      },
      "trustedForwarder": {
        "details": "Added in v1.0.0."
      }
    },
    "title": "DAO",
    "version": 1
  },
  "userdoc": {
    "errors": {
      "ActionFailed(uint256)": [
        {
          "notice": "Thrown if action execution has failed."
        }
      ],
      "AnyAddressDisallowedForWhoAndWhere()": [
        {
          "notice": "Thrown for permission grants where `who` and `where` are both `ANY_ADDR`."
        }
      ],
      "ConditionNotPresentForAnyAddress()": [
        {
          "notice": "Thrown for permission grants where `who` or `where` is `ANY_ADDR`, but no condition is present."
        }
      ],
      "InsufficientGas()": [
        {
          "notice": "Thrown if an action has insufficent gas left."
        }
      ],
      "NativeTokenDepositAmountMismatch(uint256,uint256)": [
        {
          "notice": "Thrown if there is a mismatch between the expected and actually deposited amount of native tokens."
        }
      ],
      "PermissionAlreadyGrantedForDifferentCondition(address,address,bytes32,address,address)": [
        {
          "notice": "Thrown if a permission has been already granted with a different condition."
        }
      ],
      "PermissionsForAnyAddressDisallowed()": [
        {
          "notice": "Thrown for `ROOT_PERMISSION_ID` or `EXECUTE_PERMISSION_ID` permission grants where `who` or `where` is `ANY_ADDR`."
        }
      ],
      "ProtocolVersionUpgradeNotSupported(uint8[3])": [
        {
          "notice": "Thrown if an upgrade is not supported from a specific protocol version ."
        }
      ],
      "ReentrantCall()": [
        {
          "notice": "Thrown if a call is reentrant."
        }
      ],
      "TooManyActions()": [
        {
          "notice": "Thrown if the action array length is larger than `MAX_ACTIONS`."
        }
      ],
      "Unauthorized(address,address,bytes32)": [
        {
          "notice": "Thrown if a call is unauthorized."
        }
      ],
      "UnkownCallback(bytes4,bytes4)": [
        {
          "notice": "Thrown if the callback function is not registered."
        }
      ],
      "ZeroAmount()": [
        {
          "notice": "Thrown if the deposit amount is zero."
        }
      ]
    },
    "events": {
      "CallbackReceived(address,bytes4,bytes)": {
        "notice": "Emitted when `_handleCallback` is called."
      },
      "Deposited(address,address,uint256,string)": {
        "notice": "Emitted when a token deposit has been made to the DAO."
      },
      "Executed(address,bytes32,(address,uint256,bytes)[],uint256,uint256,bytes[])": {
        "notice": "Emitted when a proposal is executed."
      },
      "Granted(bytes32,address,address,address,address)": {
        "notice": "Emitted when a permission `permission` is granted in the context `here` to the address `_who` for the contract `_where`."
      },
      "MetadataSet(bytes)": {
        "notice": "Emitted when the DAO metadata is updated."
      },
      "NativeTokenDeposited(address,uint256)": {
        "notice": "Emitted when a native token deposit has been made to the DAO."
      },
      "NewURI(string)": {
        "notice": "Emitted when a new DAO URI is set."
      },
      "Revoked(bytes32,address,address,address)": {
        "notice": "Emitted when a permission `permission` is revoked in the context `here` from the address `_who` for the contract `_where`."
      },
      "SignatureValidatorSet(address)": {
        "notice": "Emitted when the signature validator address is updated."
      },
      "StandardCallbackRegistered(bytes4,bytes4,bytes4)": {
        "notice": "Emitted when a standard callback is registered."
      },
      "TrustedForwarderSet(address)": {
        "notice": "Emitted when a new TrustedForwarder is set on the DAO."
      }
    },
    "kind": "user",
    "methods": {
      "EXECUTE_PERMISSION_ID()": {
        "notice": "The ID of the permission required to call the `execute` function."
      },
      "REGISTER_STANDARD_CALLBACK_PERMISSION_ID()": {
        "notice": "The ID of the permission required to call the `registerStandardCallback` function."
      },
      "ROOT_PERMISSION_ID()": {
        "notice": "The ID of the permission required to call the `grant`, `grantWithCondition`, `revoke`, and `bulk` function."
      },
      "SET_METADATA_PERMISSION_ID()": {
        "notice": "The ID of the permission required to call the `setMetadata` function."
      },
      "SET_SIGNATURE_VALIDATOR_PERMISSION_ID()": {
        "notice": "The ID of the permission required to call the `setSignatureValidator` function."
      },
      "SET_TRUSTED_FORWARDER_PERMISSION_ID()": {
        "notice": "The ID of the permission required to call the `setTrustedForwarder` function."
      },
      "UPGRADE_DAO_PERMISSION_ID()": {
        "notice": "The ID of the permission required to call the `_authorizeUpgrade` function."
      },
      "applyMultiTargetPermissions((uint8,address,address,address,bytes32)[])": {
        "notice": "Applies an array of permission operations on multiple target contracts `items[i].where`."
      },
      "applySingleTargetPermissions(address,(uint8,address,bytes32)[])": {
        "notice": "Applies an array of permission operations on a single target contracts `_where`."
      },
      "constructor": {
        "notice": "Disables the initializers on the implementation contract to prevent it from being left uninitialized."
      },
      "daoURI()": {
        "notice": "A distinct Uniform Resource Identifier (URI) pointing to a JSON object following the \"EIP-4824 DAO JSON-LD Schema\". This JSON file splits into four URIs: membersURI, proposalsURI, activityLogURI, and governanceURI. The membersURI should point to a JSON file that conforms to the \"EIP-4824 Members JSON-LD Schema\". The proposalsURI should point to a JSON file that conforms to the \"EIP-4824 Proposals JSON-LD Schema\". The activityLogURI should point to a JSON file that conforms to the \"EIP-4824 Activity Log JSON-LD Schema\". The governanceURI should point to a flatfile, normatively a .md file. Each of the JSON files named above can be statically hosted or dynamically-generated."
      },
      "deposit(address,uint256,string)": {
        "notice": "Deposits (native) tokens to the DAO contract with a reference string."
      },
      "execute(bytes32,(address,uint256,bytes)[],uint256)": {
        "notice": "Executes a list of actions. If a zero allow-failure map is provided, a failing action reverts the entire execution. If a non-zero allow-failure map is provided, allowed actions can fail without the entire call being reverted."
      },
      "getTrustedForwarder()": {
        "notice": "Getter for the trusted forwarder verifying the meta transaction."
      },
      "grant(address,address,bytes32)": {
        "notice": "Grants permission to an address to call methods in a contract guarded by an auth modifier with the specified permission identifier."
      },
      "grantWithCondition(address,address,bytes32,address)": {
        "notice": "Grants permission to an address to call methods in a target contract guarded by an auth modifier with the specified permission identifier if the referenced condition permits it."
      },
      "hasPermission(address,address,bytes32,bytes)": {
        "notice": "Checks if an address has permission on a contract via a permission identifier and considers if `ANY_ADDRESS` was used in the granting process."
      },
      "initialize(bytes,address,address,string)": {
        "notice": "Initializes the DAO by - setting the reentrancy status variable to `_NOT_ENTERED` - registering the [ERC-165](https://eips.ethereum.org/EIPS/eip-165) interface ID - setting the trusted forwarder for meta transactions - giving the `ROOT_PERMISSION_ID` permission to the initial owner (that should be revoked and transferred to the DAO after setup)."
      },
      "initializeFrom(uint8[3],bytes)": {
        "notice": "Initializes the DAO after an upgrade from a previous protocol version."
      },
      "isGranted(address,address,bytes32,bytes)": {
        "notice": "Checks if an address has permission on a contract via a permission identifier and considers if `ANY_ADDRESS` was used in the granting process."
      },
      "isValidSignature(bytes32,bytes)": {
        "notice": "Checks whether a signature is valid for the provided hash by forwarding the call to the set [ERC-1271](https://eips.ethereum.org/EIPS/eip-1271) signature validator contract."
      },
      "protocolVersion()": {
        "notice": "Returns the protocol version at which the current contract was built. Use it to check for future upgrades that might be applicable."
      },
      "registerStandardCallback(bytes4,bytes4,bytes4)": {
        "notice": "Registers an ERC standard having a callback by registering its [ERC-165](https://eips.ethereum.org/EIPS/eip-165) interface ID and callback function signature."
      },
      "revoke(address,address,bytes32)": {
        "notice": "Revokes permission from an address to call methods in a target contract guarded by an auth modifier with the specified permission identifier."
      },
      "setDaoURI(string)": {
        "notice": "Updates the set DAO URI to a new value."
      },
      "setMetadata(bytes)": {
        "notice": "Updates the DAO metadata (e.g., an IPFS hash)."
      },
      "setSignatureValidator(address)": {
        "notice": "Setter for the [ERC-1271](https://eips.ethereum.org/EIPS/eip-1271) signature validator contract."
      },
      "setTrustedForwarder(address)": {
        "notice": "Setter for the trusted forwarder verifying the meta transaction."
      },
      "signatureValidator()": {
        "notice": "The [ERC-1271](https://eips.ethereum.org/EIPS/eip-1271) signature validator contract."
      }
    },
    "notice": "This contract is the entry point to the Aragon DAO framework and provides our users a simple and easy to use public interface.",
    "version": 1
  },
  "storageLayout": {
    "storage": [
      {
        "astId": 6275,
        "contract": "src/core/dao/DAO.sol:DAO",
        "label": "_initialized",
        "offset": 0,
        "slot": "0",
        "type": "t_uint8"
      },
      {
        "astId": 6278,
        "contract": "src/core/dao/DAO.sol:DAO",
        "label": "_initializing",
        "offset": 1,
        "slot": "0",
        "type": "t_bool"
      },
      {
        "astId": 13460,
        "contract": "src/core/dao/DAO.sol:DAO",
        "label": "__gap",
        "offset": 0,
        "slot": "1",
        "type": "t_array(t_uint256)50_storage"
      },
      {
        "astId": 13372,
        "contract": "src/core/dao/DAO.sol:DAO",
        "label": "_supportedInterfaces",
        "offset": 0,
        "slot": "51",
        "type": "t_mapping(t_bytes4,t_bool)"
      },
      {
        "astId": 13416,
        "contract": "src/core/dao/DAO.sol:DAO",
        "label": "__gap",
        "offset": 0,
        "slot": "52",
        "type": "t_array(t_uint256)49_storage"
      },
      {
        "astId": 6257,
        "contract": "src/core/dao/DAO.sol:DAO",
        "label": "__gap",
        "offset": 0,
        "slot": "101",
        "type": "t_array(t_uint256)50_storage"
      },
      {
        "astId": 6572,
        "contract": "src/core/dao/DAO.sol:DAO",
        "label": "__gap",
        "offset": 0,
        "slot": "151",
        "type": "t_array(t_uint256)50_storage"
      },
      {
        "astId": 22976,
        "contract": "src/core/dao/DAO.sol:DAO",
        "label": "permissionsHashed",
        "offset": 0,
        "slot": "201",
        "type": "t_mapping(t_bytes32,t_address)"
      },
      {
        "astId": 23638,
        "contract": "src/core/dao/DAO.sol:DAO",
        "label": "__gap",
        "offset": 0,
        "slot": "202",
        "type": "t_array(t_uint256)49_storage"
      },
      {
        "astId": 24449,
        "contract": "src/core/dao/DAO.sol:DAO",
        "label": "callbackMagicNumbers",
        "offset": 0,
        "slot": "251",
        "type": "t_mapping(t_bytes4,t_bytes4)"
      },
      {
        "astId": 24528,
        "contract": "src/core/dao/DAO.sol:DAO",
        "label": "__gap",
        "offset": 0,
        "slot": "252",
        "type": "t_array(t_uint256)49_storage"
      },
      {
        "astId": 21960,
        "contract": "src/core/dao/DAO.sol:DAO",
        "label": "signatureValidator",
        "offset": 0,
        "slot": "301",
        "type": "t_contract(IERC1271)15893"
      },
      {
        "astId": 21963,
        "contract": "src/core/dao/DAO.sol:DAO",
        "label": "trustedForwarder",
        "offset": 0,
        "slot": "302",
        "type": "t_address"
      },
      {
        "astId": 21966,
        "contract": "src/core/dao/DAO.sol:DAO",
        "label": "_daoURI",
        "offset": 0,
        "slot": "303",
        "type": "t_string_storage"
      },
      {
        "astId": 21969,
        "contract": "src/core/dao/DAO.sol:DAO",
        "label": "_reentrancyStatus",
        "offset": 0,
        "slot": "304",
        "type": "t_uint256"
      },
      {
        "astId": 22712,
        "contract": "src/core/dao/DAO.sol:DAO",
        "label": "__gap",
        "offset": 0,
        "slot": "305",
        "type": "t_array(t_uint256)46_storage"
      }
    ],
    "types": {
      "t_address": {
        "encoding": "inplace",
        "label": "address",
        "numberOfBytes": "20"
      },
      "t_array(t_uint256)46_storage": {
        "base": "t_uint256",
        "encoding": "inplace",
        "label": "uint256[46]",
        "numberOfBytes": "1472"
      },
      "t_array(t_uint256)49_storage": {
        "base": "t_uint256",
        "encoding": "inplace",
        "label": "uint256[49]",
        "numberOfBytes": "1568"
      },
      "t_array(t_uint256)50_storage": {
        "base": "t_uint256",
        "encoding": "inplace",
        "label": "uint256[50]",
        "numberOfBytes": "1600"
      },
      "t_bool": {
        "encoding": "inplace",
        "label": "bool",
        "numberOfBytes": "1"
      },
      "t_bytes32": {
        "encoding": "inplace",
        "label": "bytes32",
        "numberOfBytes": "32"
      },
      "t_bytes4": {
        "encoding": "inplace",
        "label": "bytes4",
        "numberOfBytes": "4"
      },
      "t_contract(IERC1271)15893": {
        "encoding": "inplace",
        "label": "contract IERC1271",
        "numberOfBytes": "20"
      },
      "t_mapping(t_bytes32,t_address)": {
        "encoding": "mapping",
        "key": "t_bytes32",
        "label": "mapping(bytes32 => address)",
        "numberOfBytes": "32",
        "value": "t_address"
      },
      "t_mapping(t_bytes4,t_bool)": {
        "encoding": "mapping",
        "key": "t_bytes4",
        "label": "mapping(bytes4 => bool)",
        "numberOfBytes": "32",
        "value": "t_bool"
      },
      "t_mapping(t_bytes4,t_bytes4)": {
        "encoding": "mapping",
        "key": "t_bytes4",
        "label": "mapping(bytes4 => bytes4)",
        "numberOfBytes": "32",
        "value": "t_bytes4"
      },
      "t_string_storage": {
        "encoding": "bytes",
        "label": "string",
        "numberOfBytes": "32"
      },
      "t_uint256": {
        "encoding": "inplace",
        "label": "uint256",
        "numberOfBytes": "32"
      },
      "t_uint8": {
        "encoding": "inplace",
        "label": "uint8",
        "numberOfBytes": "1"
      }
    }
  }
}