{
  "address": "0xEca53C32dbfDEB5eebb0A23c0456912fc9c48f6A",
  "abi": [
    {
      "inputs": [],
      "stateMutability": "nonpayable",
      "type": "constructor"
    },
    {
      "anonymous": false,
      "inputs": [
        {
          "indexed": false,
          "internalType": "address",
          "name": "previousAdmin",
          "type": "address"
        },
        {
          "indexed": false,
          "internalType": "address",
          "name": "newAdmin",
          "type": "address"
        }
      ],
      "name": "AdminChanged",
      "type": "event"
    },
    {
      "anonymous": false,
      "inputs": [
        {
          "indexed": true,
          "internalType": "address",
          "name": "owner",
          "type": "address"
        },
        {
          "indexed": true,
          "internalType": "address",
          "name": "spender",
          "type": "address"
        },
        {
          "indexed": false,
          "internalType": "uint256",
          "name": "value",
          "type": "uint256"
        }
      ],
      "name": "Approval",
      "type": "event"
    },
    {
      "anonymous": false,
      "inputs": [
        {
          "indexed": true,
          "internalType": "address",
          "name": "beacon",
          "type": "address"
        }
      ],
      "name": "BeaconUpgraded",
      "type": "event"
    },
    {
      "anonymous": false,
      "inputs": [
        {
          "indexed": false,
          "internalType": "address",
          "name": "daoAddress",
          "type": "address"
        },
        {
          "indexed": true,
          "internalType": "address",
          "name": "to",
          "type": "address"
        },
        {
          "indexed": false,
          "internalType": "uint256",
          "name": "amount",
          "type": "uint256"
        }
      ],
      "name": "Burn",
      "type": "event"
    },
    {
      "anonymous": false,
      "inputs": [
        {
          "indexed": false,
          "internalType": "uint8",
          "name": "version",
          "type": "uint8"
        }
      ],
      "name": "Initialized",
      "type": "event"
    },
    {
      "anonymous": false,
      "inputs": [
        {
          "indexed": false,
          "internalType": "address",
          "name": "daoAddress",
          "type": "address"
        },
        {
          "indexed": true,
          "internalType": "address",
          "name": "to",
          "type": "address"
        },
        {
          "indexed": false,
          "internalType": "uint256",
          "name": "amount",
          "type": "uint256"
        }
      ],
      "name": "Mint",
      "type": "event"
    },
    {
      "anonymous": false,
      "inputs": [
        {
          "indexed": true,
          "internalType": "address",
          "name": "previousOwner",
          "type": "address"
        },
        {
          "indexed": true,
          "internalType": "address",
          "name": "newOwner",
          "type": "address"
        }
      ],
      "name": "OwnershipTransferred",
      "type": "event"
    },
    {
      "anonymous": false,
      "inputs": [
        {
          "indexed": false,
          "internalType": "address",
          "name": "account",
          "type": "address"
        }
      ],
      "name": "Paused",
      "type": "event"
    },
    {
      "anonymous": false,
      "inputs": [
        {
          "indexed": false,
          "internalType": "address",
          "name": "daoAddress",
          "type": "address"
        },
        {
          "indexed": true,
          "internalType": "address",
          "name": "previousTreasury",
          "type": "address"
        },
        {
          "indexed": true,
          "internalType": "address",
          "name": "newTreasury",
          "type": "address"
        }
      ],
      "name": "SetTreasury",
      "type": "event"
    },
    {
      "anonymous": false,
      "inputs": [
        {
          "indexed": true,
          "internalType": "address",
          "name": "from",
          "type": "address"
        },
        {
          "indexed": true,
          "internalType": "address",
          "name": "to",
          "type": "address"
        },
        {
          "indexed": false,
          "internalType": "uint256",
          "name": "value",
          "type": "uint256"
        }
      ],
      "name": "Transfer",
      "type": "event"
    },
    {
      "anonymous": false,
      "inputs": [
        {
          "indexed": false,
          "internalType": "address",
          "name": "account",
          "type": "address"
        }
      ],
      "name": "Unpaused",
      "type": "event"
    },
    {
      "anonymous": false,
      "inputs": [
        {
          "indexed": true,
          "internalType": "address",
          "name": "implementation",
          "type": "address"
        }
      ],
      "name": "Upgraded",
      "type": "event"
    },
    {
      "inputs": [
        {
          "internalType": "address",
          "name": "owner",
          "type": "address"
        },
        {
          "internalType": "address",
          "name": "spender",
          "type": "address"
        }
      ],
      "name": "allowance",
      "outputs": [
        {
          "internalType": "uint256",
          "name": "",
          "type": "uint256"
        }
      ],
      "stateMutability": "view",
      "type": "function"
    },
    {
      "inputs": [
        {
          "internalType": "address",
          "name": "spender",
          "type": "address"
        },
        {
          "internalType": "uint256",
          "name": "amount",
          "type": "uint256"
        }
      ],
      "name": "approve",
      "outputs": [
        {
          "internalType": "bool",
          "name": "",
          "type": "bool"
        }
      ],
      "stateMutability": "nonpayable",
      "type": "function"
    },
    {
      "inputs": [
        {
          "internalType": "address",
          "name": "account",
          "type": "address"
        }
      ],
      "name": "balanceOf",
      "outputs": [
        {
          "internalType": "uint256",
          "name": "",
          "type": "uint256"
        }
      ],
      "stateMutability": "view",
      "type": "function"
    },
    {
      "inputs": [
        {
          "internalType": "uint256",
          "name": "amount",
          "type": "uint256"
        }
      ],
      "name": "burn",
      "outputs": [],
      "stateMutability": "nonpayable",
      "type": "function"
    },
    {
      "inputs": [],
      "name": "decimals",
      "outputs": [
        {
          "internalType": "uint8",
          "name": "",
          "type": "uint8"
        }
      ],
      "stateMutability": "view",
      "type": "function"
    },
    {
      "inputs": [
        {
          "internalType": "address",
          "name": "spender",
          "type": "address"
        },
        {
          "internalType": "uint256",
          "name": "subtractedValue",
          "type": "uint256"
        }
      ],
      "name": "decreaseAllowance",
      "outputs": [
        {
          "internalType": "bool",
          "name": "",
          "type": "bool"
        }
      ],
      "stateMutability": "nonpayable",
      "type": "function"
    },
    {
      "inputs": [
        {
          "internalType": "address",
          "name": "spender",
          "type": "address"
        },
        {
          "internalType": "uint256",
          "name": "addedValue",
          "type": "uint256"
        }
      ],
      "name": "increaseAllowance",
      "outputs": [
        {
          "internalType": "bool",
          "name": "",
          "type": "bool"
        }
      ],
      "stateMutability": "nonpayable",
      "type": "function"
    },
    {
      "inputs": [
        {
          "internalType": "string",
          "name": "_name",
          "type": "string"
        },
        {
          "internalType": "string",
          "name": "_symbol",
          "type": "string"
        },
        {
          "internalType": "address",
          "name": "_daoAddress",
          "type": "address"
        }
      ],
      "name": "initialize",
      "outputs": [],
      "stateMutability": "nonpayable",
      "type": "function"
    },
    {
      "inputs": [
        {
          "internalType": "uint256",
          "name": "amount",
          "type": "uint256"
        }
      ],
      "name": "mint",
      "outputs": [],
      "stateMutability": "nonpayable",
      "type": "function"
    },
    {
      "inputs": [],
      "name": "name",
      "outputs": [
        {
          "internalType": "string",
          "name": "",
          "type": "string"
        }
      ],
      "stateMutability": "view",
      "type": "function"
    },
    {
      "inputs": [],
      "name": "owner",
      "outputs": [
        {
          "internalType": "address",
          "name": "",
          "type": "address"
        }
      ],
      "stateMutability": "view",
      "type": "function"
    },
    {
      "inputs": [],
      "name": "paused",
      "outputs": [
        {
          "internalType": "bool",
          "name": "",
          "type": "bool"
        }
      ],
      "stateMutability": "view",
      "type": "function"
    },
    {
      "inputs": [],
      "name": "proxiableUUID",
      "outputs": [
        {
          "internalType": "bytes32",
          "name": "",
          "type": "bytes32"
        }
      ],
      "stateMutability": "view",
      "type": "function"
    },
    {
      "inputs": [],
      "name": "renounceOwnership",
      "outputs": [],
      "stateMutability": "nonpayable",
      "type": "function"
    },
    {
      "inputs": [
        {
          "internalType": "address",
          "name": "_treasury",
          "type": "address"
        }
      ],
      "name": "setTreasury",
      "outputs": [],
      "stateMutability": "nonpayable",
      "type": "function"
    },
    {
      "inputs": [],
      "name": "symbol",
      "outputs": [
        {
          "internalType": "string",
          "name": "",
          "type": "string"
        }
      ],
      "stateMutability": "view",
      "type": "function"
    },
    {
      "inputs": [],
      "name": "totalSupply",
      "outputs": [
        {
          "internalType": "uint256",
          "name": "",
          "type": "uint256"
        }
      ],
      "stateMutability": "view",
      "type": "function"
    },
    {
      "inputs": [
        {
          "internalType": "address",
          "name": "to",
          "type": "address"
        },
        {
          "internalType": "uint256",
          "name": "amount",
          "type": "uint256"
        }
      ],
      "name": "transfer",
      "outputs": [
        {
          "internalType": "bool",
          "name": "",
          "type": "bool"
        }
      ],
      "stateMutability": "nonpayable",
      "type": "function"
    },
    {
      "inputs": [
        {
          "internalType": "address",
          "name": "from",
          "type": "address"
        },
        {
          "internalType": "address",
          "name": "to",
          "type": "address"
        },
        {
          "internalType": "uint256",
          "name": "amount",
          "type": "uint256"
        }
      ],
      "name": "transferFrom",
      "outputs": [
        {
          "internalType": "bool",
          "name": "",
          "type": "bool"
        }
      ],
      "stateMutability": "nonpayable",
      "type": "function"
    },
    {
      "inputs": [
        {
          "internalType": "address",
          "name": "newOwner",
          "type": "address"
        }
      ],
      "name": "transferOwnership",
      "outputs": [],
      "stateMutability": "nonpayable",
      "type": "function"
    },
    {
      "inputs": [
        {
          "internalType": "address",
          "name": "newImplementation",
          "type": "address"
        }
      ],
      "name": "upgradeTo",
      "outputs": [],
      "stateMutability": "nonpayable",
      "type": "function"
    },
    {
      "inputs": [
        {
          "internalType": "address",
          "name": "newImplementation",
          "type": "address"
        },
        {
          "internalType": "bytes",
          "name": "data",
          "type": "bytes"
        }
      ],
      "name": "upgradeToAndCall",
      "outputs": [],
      "stateMutability": "payable",
      "type": "function"
    }
  ],
  "numDeployments": 1,
  "solcInputHash": "dcb4cc8b7e5c749e95c1977b57e7355c",
  "bytecode": "0x60a06040523060805234801561001457600080fd5b5061001d610022565b6100e2565b600054610100900460ff161561008e5760405162461bcd60e51b815260206004820152602760248201527f496e697469616c697a61626c653a20636f6e747261637420697320696e697469604482015266616c697a696e6760c81b606482015260840160405180910390fd5b60005460ff90811610156100e0576000805460ff191660ff9081179091556040519081527f7f26b83ff96e1f2b6a682f133852f6798a09c465da95921460cefb38474024989060200160405180910390a15b565b608051611e2e6101196000396000818161061101528181610651015281816107be015281816107fe01526108910152611e2e6000f3fe6080604052600436106101355760003560e01c80635c975abb116100ab578063a0712d681161006f578063a0712d681461033a578063a457c2d71461035a578063a9059cbb1461037a578063dd62ed3e1461039a578063f0f44260146103ba578063f2fde38b146103da57600080fd5b80635c975abb1461029a57806370a08231146102b2578063715018a6146102e85780638da5cb5b146102fd57806395d89b411461032557600080fd5b8063313ce567116100fd578063313ce567146101f65780633659cfe614610212578063395093511461023257806342966c68146102525780634f1ef2861461027257806352d1902d1461028557600080fd5b806306fdde031461013a578063077f224a14610165578063095ea7b31461018757806318160ddd146101b757806323b872dd146101d6575b600080fd5b34801561014657600080fd5b5061014f6103fa565b60405161015c9190611953565b60405180910390f35b34801561017157600080fd5b50610185610180366004611a4e565b61048c565b005b34801561019357600080fd5b506101a76101a2366004611ac2565b6105c8565b604051901515815260200161015c565b3480156101c357600080fd5b506035545b60405190815260200161015c565b3480156101e257600080fd5b506101a76101f1366004611aec565b6105e0565b34801561020257600080fd5b506040516012815260200161015c565b34801561021e57600080fd5b5061018561022d366004611b28565b610606565b34801561023e57600080fd5b506101a761024d366004611ac2565b6106e6565b34801561025e57600080fd5b5061018561026d366004611b43565b610708565b610185610280366004611b5c565b6107b3565b34801561029157600080fd5b506101c8610884565b3480156102a657600080fd5b5060655460ff166101a7565b3480156102be57600080fd5b506101c86102cd366004611b28565b6001600160a01b031660009081526033602052604090205490565b3480156102f457600080fd5b50610185610937565b34801561030957600080fd5b5060c9546040516001600160a01b03909116815260200161015c565b34801561033157600080fd5b5061014f61094b565b34801561034657600080fd5b50610185610355366004611b43565b61095a565b34801561036657600080fd5b506101a7610375366004611ac2565b6109f9565b34801561038657600080fd5b506101a7610395366004611ac2565b610a7f565b3480156103a657600080fd5b506101c86103b5366004611bbe565b610a8d565b3480156103c657600080fd5b506101856103d5366004611b28565b610ab8565b3480156103e657600080fd5b506101856103f5366004611b28565b610b31565b60606036805461040990611bf1565b80601f016020809104026020016040519081016040528092919081815260200182805461043590611bf1565b80156104825780601f1061045757610100808354040283529160200191610482565b820191906000526020600020905b81548152906001019060200180831161046557829003601f168201915b5050505050905090565b600054610100900460ff16158080156104ac5750600054600160ff909116105b806104c65750303b1580156104c6575060005460ff166001145b61052e5760405162461bcd60e51b815260206004820152602e60248201527f496e697469616c697a61626c653a20636f6e747261637420697320616c72656160448201526d191e481a5b9a5d1a585b1a5e995960921b60648201526084015b60405180910390fd5b6000805460ff191660011790558015610551576000805461ff0019166101001790555b61055a82610ba7565b6105648484610bf1565b61056c610c22565b610574610c51565b61057c610c80565b80156105c2576000805461ff0019169055604051600181527f7f26b83ff96e1f2b6a682f133852f6798a09c465da95921460cefb38474024989060200160405180910390a15b50505050565b6000336105d6818585610cda565b5060019392505050565b6000336105ee858285610dfe565b6105f9858585610e72565b60019150505b9392505050565b306001600160a01b037f000000000000000000000000000000000000000000000000000000000000000016141561064f5760405162461bcd60e51b815260040161052590611c2c565b7f00000000000000000000000000000000000000000000000000000000000000006001600160a01b0316610698600080516020611db2833981519152546001600160a01b031690565b6001600160a01b0316146106be5760405162461bcd60e51b815260040161052590611c78565b6106c781611028565b604080516000808252602082019092526106e391839190611053565b50565b6000336105d68185856106f98383610a8d565b6107039190611cc4565b610cda565b61015f546001600160a01b031633146107335760405162461bcd60e51b815260040161052590611cea565b61073b6111c3565b61074361120c565b61015f5461075a906001600160a01b031682611245565b61015f5461016054604080516001600160a01b0392831681526020810185905291909216917fbac40739b0d4ca32fa2d82fc91630465ba3eddd1598da6fca393b26fb63b945391015b60405180910390a26106e3610c80565b306001600160a01b037f00000000000000000000000000000000000000000000000000000000000000001614156107fc5760405162461bcd60e51b815260040161052590611c2c565b7f00000000000000000000000000000000000000000000000000000000000000006001600160a01b0316610845600080516020611db2833981519152546001600160a01b031690565b6001600160a01b03161461086b5760405162461bcd60e51b815260040161052590611c78565b61087482611028565b61088082826001611053565b5050565b6000306001600160a01b037f000000000000000000000000000000000000000000000000000000000000000016146109245760405162461bcd60e51b815260206004820152603860248201527f555550535570677261646561626c653a206d757374206e6f742062652063616c60448201527f6c6564207468726f7567682064656c656761746563616c6c00000000000000006064820152608401610525565b50600080516020611db283398151915290565b61093f611385565b61094960006113df565b565b60606037805461040990611bf1565b61015f546001600160a01b031633146109855760405162461bcd60e51b815260040161052590611cea565b61098d6111c3565b61099561120c565b61015f546109ac906001600160a01b031682611431565b61015f5461016054604080516001600160a01b0392831681526020810185905291909216917fab8530f87dc9b59234c4623bf917212bb2536d647574c8e7e5da92c2ede0c9f891016107a3565b60003381610a078286610a8d565b905083811015610a675760405162461bcd60e51b815260206004820152602560248201527f45524332303a2064656372656173656420616c6c6f77616e63652062656c6f77604482015264207a65726f60d81b6064820152608401610525565b610a748286868403610cda565b506001949350505050565b6000336105d6818585610e72565b6001600160a01b03918216600090815260346020908152604080832093909416825291909152205490565b610ac0611385565b61015f54610160546040516001600160a01b0391821681528382169291909116907fca8a1845b2be4f7b3e117418aad135a84a90b35dc7bc34d95c0a69654d7b4e1c9060200160405180910390a361015f80546001600160a01b0319166001600160a01b0392909216919091179055565b610b39611385565b6001600160a01b038116610b9e5760405162461bcd60e51b815260206004820152602660248201527f4f776e61626c653a206e6577206f776e657220697320746865207a65726f206160448201526564647265737360d01b6064820152608401610525565b6106e3816113df565b600054610100900460ff16610bce5760405162461bcd60e51b815260040161052590611d31565b61016080546001600160a01b0319166001600160a01b0392909216919091179055565b600054610100900460ff16610c185760405162461bcd60e51b815260040161052590611d31565b61088082826114fe565b600054610100900460ff16610c495760405162461bcd60e51b815260040161052590611d31565b61094961154c565b600054610100900460ff16610c785760405162461bcd60e51b815260040161052590611d31565b61094961157f565b610c886115af565b6065805460ff191660011790557f62e78cea01bee320cd4e420270b5ea74000d11b0c9f74754ebdbfc544b05a258610cbd3390565b6040516001600160a01b03909116815260200160405180910390a1565b6001600160a01b038316610d3c5760405162461bcd60e51b8152602060048201526024808201527f45524332303a20617070726f76652066726f6d20746865207a65726f206164646044820152637265737360e01b6064820152608401610525565b6001600160a01b038216610d9d5760405162461bcd60e51b815260206004820152602260248201527f45524332303a20617070726f766520746f20746865207a65726f206164647265604482015261737360f01b6064820152608401610525565b6001600160a01b0383811660008181526034602090815260408083209487168084529482529182902085905590518481527f8c5be1e5ebec7d5bd14f71427d1e84f3dd0314c0f7b2291e5b200ac8c7c3b925910160405180910390a3505050565b6000610e0a8484610a8d565b905060001981146105c25781811015610e655760405162461bcd60e51b815260206004820152601d60248201527f45524332303a20696e73756666696369656e7420616c6c6f77616e63650000006044820152606401610525565b6105c28484848403610cda565b6001600160a01b038316610ed65760405162461bcd60e51b815260206004820152602560248201527f45524332303a207472616e736665722066726f6d20746865207a65726f206164604482015264647265737360d81b6064820152608401610525565b6001600160a01b038216610f385760405162461bcd60e51b815260206004820152602360248201527f45524332303a207472616e7366657220746f20746865207a65726f206164647260448201526265737360e81b6064820152608401610525565b610f438383836115f5565b6001600160a01b03831660009081526033602052604090205481811015610fbb5760405162461bcd60e51b815260206004820152602660248201527f45524332303a207472616e7366657220616d6f756e7420657863656564732062604482015265616c616e636560d01b6064820152608401610525565b6001600160a01b0380851660008181526033602052604080822086860390559286168082529083902080548601905591517fddf252ad1be2c89b69c2b068fc378daa952ba7f163c4a11628f55a4df523b3ef9061101b9086815260200190565b60405180910390a36105c2565b61015f546001600160a01b031633146106e35760405162461bcd60e51b815260040161052590611cea565b7f4910fdfa16fed3260ed0e7147f7cc6da11a60208b5b9406d12a635614ffd91435460ff161561108b576110868361165b565b505050565b826001600160a01b03166352d1902d6040518163ffffffff1660e01b8152600401602060405180830381865afa9250505080156110e5575060408051601f3d908101601f191682019092526110e291810190611d7c565b60015b6111485760405162461bcd60e51b815260206004820152602e60248201527f45524331393637557067726164653a206e657720696d706c656d656e7461746960448201526d6f6e206973206e6f74205555505360901b6064820152608401610525565b600080516020611db283398151915281146111b75760405162461bcd60e51b815260206004820152602960248201527f45524331393637557067726164653a20756e737570706f727465642070726f786044820152681a58589b195555525160ba1b6064820152608401610525565b506110868383836116f7565b60655460ff166109495760405162461bcd60e51b815260206004820152601460248201527314185d5cd8589b194e881b9bdd081c185d5cd95960621b6044820152606401610525565b6112146111c3565b6065805460ff191690557f5db9ee0a495bf2e6ff9c91a7834c1ba4fdd244a5e8aa4e537bd38aeae4b073aa33610cbd565b6001600160a01b0382166112a55760405162461bcd60e51b815260206004820152602160248201527f45524332303a206275726e2066726f6d20746865207a65726f206164647265736044820152607360f81b6064820152608401610525565b6112b1826000836115f5565b6001600160a01b038216600090815260336020526040902054818110156113255760405162461bcd60e51b815260206004820152602260248201527f45524332303a206275726e20616d6f756e7420657863656564732062616c616e604482015261636560f01b6064820152608401610525565b6001600160a01b03831660008181526033602090815260408083208686039055603580548790039055518581529192917fddf252ad1be2c89b69c2b068fc378daa952ba7f163c4a11628f55a4df523b3ef910160405180910390a3505050565b60c9546001600160a01b031633146109495760405162461bcd60e51b815260206004820181905260248201527f4f776e61626c653a2063616c6c6572206973206e6f7420746865206f776e65726044820152606401610525565b60c980546001600160a01b038381166001600160a01b0319831681179093556040519116919082907f8be0079c531659141344cd1fd0a4f28419497f9722a3daafe3b4186f6b6457e090600090a35050565b6001600160a01b0382166114875760405162461bcd60e51b815260206004820152601f60248201527f45524332303a206d696e7420746f20746865207a65726f2061646472657373006044820152606401610525565b611493600083836115f5565b80603560008282546114a59190611cc4565b90915550506001600160a01b0382166000818152603360209081526040808320805486019055518481527fddf252ad1be2c89b69c2b068fc378daa952ba7f163c4a11628f55a4df523b3ef910160405180910390a35050565b600054610100900460ff166115255760405162461bcd60e51b815260040161052590611d31565b815161153890603690602085019061188e565b50805161108690603790602084019061188e565b600054610100900460ff166115735760405162461bcd60e51b815260040161052590611d31565b6065805460ff19169055565b600054610100900460ff166115a65760405162461bcd60e51b815260040161052590611d31565b610949336113df565b60655460ff16156109495760405162461bcd60e51b815260206004820152601060248201526f14185d5cd8589b194e881c185d5cd95960821b6044820152606401610525565b60655460ff16156110865760405162461bcd60e51b815260206004820152602a60248201527f45524332305061757361626c653a20746f6b656e207472616e736665722077686044820152691a5b19481c185d5cd95960b21b6064820152608401610525565b6001600160a01b0381163b6116c85760405162461bcd60e51b815260206004820152602d60248201527f455243313936373a206e657720696d706c656d656e746174696f6e206973206e60448201526c1bdd08184818dbdb9d1c9858dd609a1b6064820152608401610525565b600080516020611db283398151915280546001600160a01b0319166001600160a01b0392909216919091179055565b6117008361171c565b60008251118061170d5750805b15611086576105c2838361175c565b6117258161165b565b6040516001600160a01b038216907fbc7cd75a20ee27fd9adebab32041f755214dbc6bffa90cc0225b39da2e5c2d3b90600090a250565b60606001600160a01b0383163b6117c45760405162461bcd60e51b815260206004820152602660248201527f416464726573733a2064656c65676174652063616c6c20746f206e6f6e2d636f6044820152651b9d1c9858dd60d21b6064820152608401610525565b600080846001600160a01b0316846040516117df9190611d95565b600060405180830381855af49150503d806000811461181a576040519150601f19603f3d011682016040523d82523d6000602084013e61181f565b606091505b50915091506118478282604051806060016040528060278152602001611dd260279139611850565b95945050505050565b6060831561185f5750816105ff565b6105ff83838151156118745781518083602001fd5b8060405162461bcd60e51b81526004016105259190611953565b82805461189a90611bf1565b90600052602060002090601f0160209004810192826118bc5760008555611902565b82601f106118d557805160ff1916838001178555611902565b82800160010185558215611902579182015b828111156119025782518255916020019190600101906118e7565b5061190e929150611912565b5090565b5b8082111561190e5760008155600101611913565b60005b8381101561194257818101518382015260200161192a565b838111156105c25750506000910152565b6020815260008251806020840152611972816040850160208701611927565b601f01601f19169190910160400192915050565b634e487b7160e01b600052604160045260246000fd5b600067ffffffffffffffff808411156119b7576119b7611986565b604051601f8501601f19908116603f011681019082821181831017156119df576119df611986565b816040528093508581528686860111156119f857600080fd5b858560208301376000602087830101525050509392505050565b600082601f830112611a2357600080fd5b6105ff8383356020850161199c565b80356001600160a01b0381168114611a4957600080fd5b919050565b600080600060608486031215611a6357600080fd5b833567ffffffffffffffff80821115611a7b57600080fd5b611a8787838801611a12565b94506020860135915080821115611a9d57600080fd5b50611aaa86828701611a12565b925050611ab960408501611a32565b90509250925092565b60008060408385031215611ad557600080fd5b611ade83611a32565b946020939093013593505050565b600080600060608486031215611b0157600080fd5b611b0a84611a32565b9250611b1860208501611a32565b9150604084013590509250925092565b600060208284031215611b3a57600080fd5b6105ff82611a32565b600060208284031215611b5557600080fd5b5035919050565b60008060408385031215611b6f57600080fd5b611b7883611a32565b9150602083013567ffffffffffffffff811115611b9457600080fd5b8301601f81018513611ba557600080fd5b611bb48582356020840161199c565b9150509250929050565b60008060408385031215611bd157600080fd5b611bda83611a32565b9150611be860208401611a32565b90509250929050565b600181811c90821680611c0557607f821691505b60208210811415611c2657634e487b7160e01b600052602260045260246000fd5b50919050565b6020808252602c908201527f46756e6374696f6e206d7573742062652063616c6c6564207468726f7567682060408201526b19195b1959d85d1958d85b1b60a21b606082015260800190565b6020808252602c908201527f46756e6374696f6e206d7573742062652063616c6c6564207468726f7567682060408201526b6163746976652070726f787960a01b606082015260800190565b60008219821115611ce557634e487b7160e01b600052601160045260246000fd5b500190565b60208082526027908201527f4d6972726f72546f6b656e3a2063616c6c6572206973206e6f742074686520746040820152667265617375727960c81b606082015260800190565b6020808252602b908201527f496e697469616c697a61626c653a20636f6e7472616374206973206e6f74206960408201526a6e697469616c697a696e6760a81b606082015260800190565b600060208284031215611d8e57600080fd5b5051919050565b60008251611da7818460208701611927565b919091019291505056fe360894a13ba1a3210667c828492db98dca3e2076cc3735a920a3ca505d382bbc416464726573733a206c6f772d6c6576656c2064656c65676174652063616c6c206661696c6564a264697066735822122017ee041e215b3c4eed6af9ebe93c1e823923908b79720c1a55fe4b2db546ab8764736f6c634300080b0033",
  "devdoc": {
    "author": "Mesher",
    "kind": "dev",
    "methods": {
      "allowance(address,address)": {
        "details": "See {IERC20-allowance}."
      },
      "approve(address,uint256)": {
        "details": "See {IERC20-approve}. NOTE: If `amount` is the maximum `uint256`, the allowance is not updated on `transferFrom`. This is semantically equivalent to an infinite approval. Requirements: - `spender` cannot be the zero address."
      },
      "balanceOf(address)": {
        "details": "See {IERC20-balanceOf}."
      },
      "burn(uint256)": {
        "params": {
          "amount": "The amount of tokens to be bruned."
        }
      },
      "decimals()": {
        "details": "Returns the number of decimals used to get its user representation. For example, if `decimals` equals `2`, a balance of `505` tokens should be displayed to a user as `5.05` (`505 / 10 ** 2`). Tokens usually opt for a value of 18, imitating the relationship between Ether and Wei. This is the value {ERC20} uses, unless this function is overridden; NOTE: This information is only used for _display_ purposes: it in no way affects any of the arithmetic of the contract, including {IERC20-balanceOf} and {IERC20-transfer}."
      },
      "decreaseAllowance(address,uint256)": {
        "details": "Atomically decreases the allowance granted to `spender` by the caller. This is an alternative to {approve} that can be used as a mitigation for problems described in {IERC20-approve}. Emits an {Approval} event indicating the updated allowance. Requirements: - `spender` cannot be the zero address. - `spender` must have allowance for the caller of at least `subtractedValue`."
      },
      "increaseAllowance(address,uint256)": {
        "details": "Atomically increases the allowance granted to `spender` by the caller. This is an alternative to {approve} that can be used as a mitigation for problems described in {IERC20-approve}. Emits an {Approval} event indicating the updated allowance. Requirements: - `spender` cannot be the zero address."
      },
      "initialize(string,string,address)": {
        "params": {
          "_daoAddress": "The Address of dao owning the mirror tokens.",
          "_name": "The name of the token.",
          "_symbol": "The symbol of the token."
        }
      },
      "mint(uint256)": {
        "params": {
          "amount": "The amount of tokens to be minted."
        }
      },
      "name()": {
        "details": "Returns the name of the token."
      },
      "owner()": {
        "details": "Returns the address of the current owner."
      },
      "paused()": {
        "details": "Returns true if the contract is paused, and false otherwise."
      },
      "proxiableUUID()": {
        "details": "Implementation of the ERC1822 {proxiableUUID} function. This returns the storage slot used by the implementation. It is used to validate the implementation's compatibility when performing an upgrade. IMPORTANT: A proxy pointing at a proxiable contract should not be considered proxiable itself, because this risks bricking a proxy that upgrades to it, by delegating to itself until out of gas. Thus it is critical that this function revert if invoked through a proxy. This is guaranteed by the `notDelegated` modifier."
      },
      "renounceOwnership()": {
        "details": "Leaves the contract without owner. It will not be possible to call `onlyOwner` functions anymore. Can only be called by the current owner. NOTE: Renouncing ownership will leave the contract without an owner, thereby removing any functionality that is only available to the owner."
      },
      "setTreasury(address)": {
        "params": {
          "_treasury": "The address of the DAO treasury ."
        }
      },
      "symbol()": {
        "details": "Returns the symbol of the token, usually a shorter version of the name."
      },
      "totalSupply()": {
        "details": "See {IERC20-totalSupply}."
      },
      "transfer(address,uint256)": {
        "details": "See {IERC20-transfer}. Requirements: - `to` cannot be the zero address. - the caller must have a balance of at least `amount`."
      },
      "transferFrom(address,address,uint256)": {
        "details": "See {IERC20-transferFrom}. Emits an {Approval} event indicating the updated allowance. This is not required by the EIP. See the note at the beginning of {ERC20}. NOTE: Does not update the allowance if the current allowance is the maximum `uint256`. Requirements: - `from` and `to` cannot be the zero address. - `from` must have a balance of at least `amount`. - the caller must have allowance for ``from``'s tokens of at least `amount`."
      },
      "transferOwnership(address)": {
        "details": "Transfers ownership of the contract to a new account (`newOwner`). Can only be called by the current owner."
      },
      "upgradeTo(address)": {
        "details": "Upgrade the implementation of the proxy to `newImplementation`. Calls {_authorizeUpgrade}. Emits an {Upgraded} event."
      },
      "upgradeToAndCall(address,bytes)": {
        "details": "Upgrade the implementation of the proxy to `newImplementation`, and subsequently execute the function call encoded in `data`. Calls {_authorizeUpgrade}. Emits an {Upgraded} event."
      }
    },
    "title": "Mirrortoken",
    "version": 1
  },
  "userdoc": {
    "kind": "user",
    "methods": {
      "burn(uint256)": {
        "notice": "Burns tokens in the treasury."
      },
      "constructor": {
        "notice": "Disables the initializers on the implementation contract to prevent it from being left uninitialized."
      },
      "initialize(string,string,address)": {
        "notice": "Initializes the contract."
      },
      "mint(uint256)": {
        "notice": "Mints tokens to the treasury."
      },
      "setTreasury(address)": {
        "notice": "Sets the treasury of the DAO which owns mirror tokens ."
      }
    },
    "notice": "Mint and burn mirror totkens so that the token can keep track of deposited money in DAO.",
    "version": 1
  },
  "storageLayout": {
    "storage": [
      {
        "astId": 1079,
        "contract": "src/token/ERC20/MirrorToken.sol:MirrorToken",
        "label": "_initialized",
        "offset": 0,
        "slot": "0",
        "type": "t_uint8"
      },
      {
        "astId": 1082,
        "contract": "src/token/ERC20/MirrorToken.sol:MirrorToken",
        "label": "_initializing",
        "offset": 1,
        "slot": "0",
        "type": "t_bool"
      },
      {
        "astId": 5584,
        "contract": "src/token/ERC20/MirrorToken.sol:MirrorToken",
        "label": "__gap",
        "offset": 0,
        "slot": "1",
        "type": "t_array(t_uint256)50_storage"
      },
      {
        "astId": 1523,
        "contract": "src/token/ERC20/MirrorToken.sol:MirrorToken",
        "label": "_balances",
        "offset": 0,
        "slot": "51",
        "type": "t_mapping(t_address,t_uint256)"
      },
      {
        "astId": 1529,
        "contract": "src/token/ERC20/MirrorToken.sol:MirrorToken",
        "label": "_allowances",
        "offset": 0,
        "slot": "52",
        "type": "t_mapping(t_address,t_mapping(t_address,t_uint256))"
      },
      {
        "astId": 1531,
        "contract": "src/token/ERC20/MirrorToken.sol:MirrorToken",
        "label": "_totalSupply",
        "offset": 0,
        "slot": "53",
        "type": "t_uint256"
      },
      {
        "astId": 1533,
        "contract": "src/token/ERC20/MirrorToken.sol:MirrorToken",
        "label": "_name",
        "offset": 0,
        "slot": "54",
        "type": "t_string_storage"
      },
      {
        "astId": 1535,
        "contract": "src/token/ERC20/MirrorToken.sol:MirrorToken",
        "label": "_symbol",
        "offset": 0,
        "slot": "55",
        "type": "t_string_storage"
      },
      {
        "astId": 2115,
        "contract": "src/token/ERC20/MirrorToken.sol:MirrorToken",
        "label": "__gap",
        "offset": 0,
        "slot": "56",
        "type": "t_array(t_uint256)45_storage"
      },
      {
        "astId": 1398,
        "contract": "src/token/ERC20/MirrorToken.sol:MirrorToken",
        "label": "_paused",
        "offset": 0,
        "slot": "101",
        "type": "t_bool"
      },
      {
        "astId": 1503,
        "contract": "src/token/ERC20/MirrorToken.sol:MirrorToken",
        "label": "__gap",
        "offset": 0,
        "slot": "102",
        "type": "t_array(t_uint256)49_storage"
      },
      {
        "astId": 2253,
        "contract": "src/token/ERC20/MirrorToken.sol:MirrorToken",
        "label": "__gap",
        "offset": 0,
        "slot": "151",
        "type": "t_array(t_uint256)50_storage"
      },
      {
        "astId": 10,
        "contract": "src/token/ERC20/MirrorToken.sol:MirrorToken",
        "label": "_owner",
        "offset": 0,
        "slot": "201",
        "type": "t_address"
      },
      {
        "astId": 130,
        "contract": "src/token/ERC20/MirrorToken.sol:MirrorToken",
        "label": "__gap",
        "offset": 0,
        "slot": "202",
        "type": "t_array(t_uint256)49_storage"
      },
      {
        "astId": 1061,
        "contract": "src/token/ERC20/MirrorToken.sol:MirrorToken",
        "label": "__gap",
        "offset": 0,
        "slot": "251",
        "type": "t_array(t_uint256)50_storage"
      },
      {
        "astId": 1376,
        "contract": "src/token/ERC20/MirrorToken.sol:MirrorToken",
        "label": "__gap",
        "offset": 0,
        "slot": "301",
        "type": "t_array(t_uint256)50_storage"
      },
      {
        "astId": 12727,
        "contract": "src/token/ERC20/MirrorToken.sol:MirrorToken",
        "label": "treasury",
        "offset": 0,
        "slot": "351",
        "type": "t_address"
      },
      {
        "astId": 12729,
        "contract": "src/token/ERC20/MirrorToken.sol:MirrorToken",
        "label": "daoAddress",
        "offset": 0,
        "slot": "352",
        "type": "t_address"
      }
    ],
    "types": {
      "t_address": {
        "encoding": "inplace",
        "label": "address",
        "numberOfBytes": "20"
      },
      "t_array(t_uint256)45_storage": {
        "base": "t_uint256",
        "encoding": "inplace",
        "label": "uint256[45]",
        "numberOfBytes": "1440"
      },
      "t_array(t_uint256)49_storage": {
        "base": "t_uint256",
        "encoding": "inplace",
        "label": "uint256[49]",
        "numberOfBytes": "1568"
      },
      "t_array(t_uint256)50_storage": {
        "base": "t_uint256",
        "encoding": "inplace",
        "label": "uint256[50]",
        "numberOfBytes": "1600"
      },
      "t_bool": {
        "encoding": "inplace",
        "label": "bool",
        "numberOfBytes": "1"
      },
      "t_mapping(t_address,t_mapping(t_address,t_uint256))": {
        "encoding": "mapping",
        "key": "t_address",
        "label": "mapping(address => mapping(address => uint256))",
        "numberOfBytes": "32",
        "value": "t_mapping(t_address,t_uint256)"
      },
      "t_mapping(t_address,t_uint256)": {
        "encoding": "mapping",
        "key": "t_address",
        "label": "mapping(address => uint256)",
        "numberOfBytes": "32",
        "value": "t_uint256"
      },
      "t_string_storage": {
        "encoding": "bytes",
        "label": "string",
        "numberOfBytes": "32"
      },
      "t_uint256": {
        "encoding": "inplace",
        "label": "uint256",
        "numberOfBytes": "32"
      },
      "t_uint8": {
        "encoding": "inplace",
        "label": "uint8",
        "numberOfBytes": "1"
      }
    }
  }
}