{
  "address": "0x6225D86B9e030A153cD3AAd6C0815Da26E1B8D72",
  "abi": [
    {
      "inputs": [],
      "name": "PlaceholderSetupCannotBeUsed",
      "type": "error"
    },
    {
      "inputs": [],
      "name": "implementation",
      "outputs": [
        {
          "internalType": "address",
          "name": "",
          "type": "address"
        }
      ],
      "stateMutability": "pure",
      "type": "function"
    },
    {
      "inputs": [
        {
          "internalType": "address",
          "name": "",
          "type": "address"
        },
        {
          "internalType": "bytes",
          "name": "",
          "type": "bytes"
        }
      ],
      "name": "prepareInstallation",
      "outputs": [
        {
          "internalType": "address",
          "name": "",
          "type": "address"
        },
        {
          "components": [
            {
              "internalType": "address[]",
              "name": "helpers",
              "type": "address[]"
            },
            {
              "components": [
                {
                  "internalType": "enum PermissionLib.Operation",
                  "name": "operation",
                  "type": "uint8"
                },
                {
                  "internalType": "address",
                  "name": "where",
                  "type": "address"
                },
                {
                  "internalType": "address",
                  "name": "who",
                  "type": "address"
                },
                {
                  "internalType": "address",
                  "name": "condition",
                  "type": "address"
                },
                {
                  "internalType": "bytes32",
                  "name": "permissionId",
                  "type": "bytes32"
                }
              ],
              "internalType": "struct PermissionLib.MultiTargetPermission[]",
              "name": "permissions",
              "type": "tuple[]"
            }
          ],
          "internalType": "struct IPluginSetup.PreparedSetupData",
          "name": "",
          "type": "tuple"
        }
      ],
      "stateMutability": "pure",
      "type": "function"
    },
    {
      "inputs": [
        {
          "internalType": "address",
          "name": "",
          "type": "address"
        },
        {
          "components": [
            {
              "internalType": "address",
              "name": "plugin",
              "type": "address"
            },
            {
              "internalType": "address[]",
              "name": "currentHelpers",
              "type": "address[]"
            },
            {
              "internalType": "bytes",
              "name": "data",
              "type": "bytes"
            }
          ],
          "internalType": "struct IPluginSetup.SetupPayload",
          "name": "",
          "type": "tuple"
        }
      ],
      "name": "prepareUninstallation",
      "outputs": [
        {
          "components": [
            {
              "internalType": "enum PermissionLib.Operation",
              "name": "operation",
              "type": "uint8"
            },
            {
              "internalType": "address",
              "name": "where",
              "type": "address"
            },
            {
              "internalType": "address",
              "name": "who",
              "type": "address"
            },
            {
              "internalType": "address",
              "name": "condition",
              "type": "address"
            },
            {
              "internalType": "bytes32",
              "name": "permissionId",
              "type": "bytes32"
            }
          ],
          "internalType": "struct PermissionLib.MultiTargetPermission[]",
          "name": "",
          "type": "tuple[]"
        }
      ],
      "stateMutability": "pure",
      "type": "function"
    },
    {
      "inputs": [
        {
          "internalType": "address",
          "name": "_dao",
          "type": "address"
        },
        {
          "internalType": "uint16",
          "name": "_currentBuild",
          "type": "uint16"
        },
        {
          "components": [
            {
              "internalType": "address",
              "name": "plugin",
              "type": "address"
            },
            {
              "internalType": "address[]",
              "name": "currentHelpers",
              "type": "address[]"
            },
            {
              "internalType": "bytes",
              "name": "data",
              "type": "bytes"
            }
          ],
          "internalType": "struct IPluginSetup.SetupPayload",
          "name": "_payload",
          "type": "tuple"
        }
      ],
      "name": "prepareUpdate",
      "outputs": [
        {
          "internalType": "bytes",
          "name": "initData",
          "type": "bytes"
        },
        {
          "components": [
            {
              "internalType": "address[]",
              "name": "helpers",
              "type": "address[]"
            },
            {
              "components": [
                {
                  "internalType": "enum PermissionLib.Operation",
                  "name": "operation",
                  "type": "uint8"
                },
                {
                  "internalType": "address",
                  "name": "where",
                  "type": "address"
                },
                {
                  "internalType": "address",
                  "name": "who",
                  "type": "address"
                },
                {
                  "internalType": "address",
                  "name": "condition",
                  "type": "address"
                },
                {
                  "internalType": "bytes32",
                  "name": "permissionId",
                  "type": "bytes32"
                }
              ],
              "internalType": "struct PermissionLib.MultiTargetPermission[]",
              "name": "permissions",
              "type": "tuple[]"
            }
          ],
          "internalType": "struct IPluginSetup.PreparedSetupData",
          "name": "preparedSetupData",
          "type": "tuple"
        }
      ],
      "stateMutability": "nonpayable",
      "type": "function"
    },
    {
      "inputs": [
        {
          "internalType": "bytes4",
          "name": "_interfaceId",
          "type": "bytes4"
        }
      ],
      "name": "supportsInterface",
      "outputs": [
        {
          "internalType": "bool",
          "name": "",
          "type": "bool"
        }
      ],
      "stateMutability": "view",
      "type": "function"
    }
  ],
  "transactionHash": "0xd34854cc7b8e6e4cc609c39d1c692c3e58331d45872a310659e88c27c2df9d2a",
  "args": [],
  "numDeployments": 1,
  "solcInputHash": "f97dc15e6d1f74cd3e4f0c0726ba97cc",
  "bytecode": "0x608060405234801561001057600080fd5b5061054c806100206000396000f3fe608060405234801561001057600080fd5b50600436106100575760003560e01c806301ffc9a71461005c5780635c60da1b146100845780639cb0a12414610093578063a8a9c29e146100b3578063f10832f1146100d4575b600080fd5b61006f61006a3660046101a6565b6100f5565b60405190151581526020015b60405180910390f35b6040516000815260200161007b565b6100a66100a136600461020b565b61012c565b60405161007b91906102bf565b6100c66100c1366004610308565b610147565b60405161007b929190610402565b6100e76100e2366004610467565b61016e565b60405161007b9291906104ea565b60006001600160e01b0319821663099718b560e41b148061012657506301ffc9a760e01b6001600160e01b03198316145b92915050565b6060604051632a2a7ca360e21b815260040160405180910390fd5b6060610166604051806040016040528060608152602001606081525090565b935093915050565b600061018d604051806040016040528060608152602001606081525090565b604051632a2a7ca360e21b815260040160405180910390fd5b6000602082840312156101b857600080fd5b81356001600160e01b0319811681146101d057600080fd5b9392505050565b80356001600160a01b03811681146101ee57600080fd5b919050565b60006060828403121561020557600080fd5b50919050565b6000806040838503121561021e57600080fd5b610227836101d7565b9150602083013567ffffffffffffffff81111561024357600080fd5b61024f858286016101f3565b9150509250929050565b600081516003811061027b57634e487b7160e01b600052602160045260246000fd5b8352506020818101516001600160a01b0390811691840191909152604080830151821690840152606080830151909116908301526080908101519082015260a00190565b6020808252825182820181905260009190848201906040850190845b818110156102fc576102ee838551610259565b9385019392506001016102db565b50909695505050505050565b60008060006060848603121561031d57600080fd5b610326846101d7565b9250602084013561ffff8116811461033d57600080fd5b9150604084013567ffffffffffffffff81111561035957600080fd5b610365868287016101f3565b9150509250925092565b805160408084528151908401819052600091602091908201906060860190845b818110156103b45783516001600160a01b03168352928401929184019160010161038f565b50508483015186820387850152805180835290840192506000918401905b808310156103f7576103e5828551610259565b915084840193506001830192506103d2565b509695505050505050565b604081526000835180604084015260005b818110156104305760208187018101516060868401015201610413565b50600060608285010152601f19601f82011683019050606083820301602084015261045e606082018561036f565b95945050505050565b60008060006040848603121561047c57600080fd5b610485846101d7565b9250602084013567ffffffffffffffff808211156104a257600080fd5b818601915086601f8301126104b657600080fd5b8135818111156104c557600080fd5b8760208285010111156104d757600080fd5b6020830194508093505050509250925092565b6001600160a01b038316815260406020820181905260009061050e9083018461036f565b94935050505056fea2646970667358221220d196334defce21f7d1b2bf3a100a75a0e08be0582a40f556cbe64731c19633e764736f6c63430008110033",
  "devdoc": {
    "author": "Aragon Association - 2023",
    "kind": "dev",
    "methods": {
      "implementation()": {
        "details": "The implementation can be instantiated via the `new` keyword, cloned via the minimal clones pattern (see [ERC-1167](https://eips.ethereum.org/EIPS/eip-1167)), or proxied via the UUPS pattern (see [ERC-1822](https://eips.ethereum.org/EIPS/eip-1822)).",
        "returns": {
          "_0": "The address of the plugin implementation contract."
        }
      },
      "prepareInstallation(address,bytes)": {
        "params": {
          "_dao": "The address of the installing DAO.",
          "_data": "The bytes-encoded data containing the input parameters for the installation as specified in the plugin's build metadata JSON file."
        },
        "returns": {
          "_0": "The address of the `Plugin` contract being prepared for installation.",
          "_1": "The deployed plugin's relevant data which consists of helpers and permissions."
        }
      },
      "prepareUninstallation(address,(address,address[],bytes))": {
        "params": {
          "_dao": "The address of the uninstalling DAO.",
          "_payload": "The relevant data necessary for the `prepareUninstallation`. See above."
        },
        "returns": {
          "_0": "The array of multi-targeted permission operations to be applied by the `PluginSetupProcessor` to the uninstalling DAO."
        }
      },
      "prepareUpdate(address,uint16,(address,address[],bytes))": {
        "params": {
          "_currentBuild": "The build number of the plugin to update from.",
          "_dao": "The address of the updating DAO.",
          "_payload": "The relevant data necessary for the `prepareUpdate`. See above."
        },
        "returns": {
          "initData": "The initialization data to be passed to upgradeable contracts when the update is applied in the `PluginSetupProcessor`.",
          "preparedSetupData": "The deployed plugin's relevant data which consists of helpers and permissions."
        }
      },
      "supportsInterface(bytes4)": {
        "params": {
          "_interfaceId": "The ID of the interface."
        },
        "returns": {
          "_0": "Returns `true` if the interface is supported."
        }
      }
    },
    "title": "PlaceholderSetup",
    "version": 1
  },
  "userdoc": {
    "errors": {
      "PlaceholderSetupCannotBeUsed()": [
        {
          "notice": "Thrown if the dummy is used."
        }
      ]
    },
    "kind": "user",
    "methods": {
      "implementation()": {
        "notice": "Returns the plugin implementation address."
      },
      "prepareInstallation(address,bytes)": {
        "notice": "Prepares the installation of a plugin."
      },
      "prepareUninstallation(address,(address,address[],bytes))": {
        "notice": "Prepares the uninstallation of a plugin."
      },
      "prepareUpdate(address,uint16,(address,address[],bytes))": {
        "notice": "Prepares the update of a plugin."
      },
      "supportsInterface(bytes4)": {
        "notice": "Checks if this or the parent contract supports an interface by its ID."
      }
    },
    "notice": "A placeholder setup contract for outdated plugin builds. When moving plugin repos to new chains or layers, where only the latest release and build should be available, this placeholder can be used to populate previous builds.",
    "version": 1
  },
  "storageLayout": {
    "storage": [],
    "types": null
  }
}