{
  "address": "0xaDa7C9960B0aD1062c2DDDB0C2Aaafb165dd0Ef6",
  "abi": [
    {
      "inputs": [
        {
          "internalType": "contract PluginRepoRegistry",
          "name": "_repoRegistry",
          "type": "address"
        }
      ],
      "stateMutability": "nonpayable",
      "type": "constructor"
    },
    {
      "inputs": [
        {
          "internalType": "address",
          "name": "plugin",
          "type": "address"
        }
      ],
      "name": "IPluginNotSupported",
      "type": "error"
    },
    {
      "inputs": [
        {
          "internalType": "bytes32",
          "name": "currentAppliedSetupId",
          "type": "bytes32"
        },
        {
          "internalType": "bytes32",
          "name": "appliedSetupId",
          "type": "bytes32"
        }
      ],
      "name": "InvalidAppliedSetupId",
      "type": "error"
    },
    {
      "inputs": [
        {
          "components": [
            {
              "internalType": "uint8",
              "name": "release",
              "type": "uint8"
            },
            {
              "internalType": "uint16",
              "name": "build",
              "type": "uint16"
            }
          ],
          "internalType": "struct PluginRepo.Tag",
          "name": "currentVersionTag",
          "type": "tuple"
        },
        {
          "components": [
            {
              "internalType": "uint8",
              "name": "release",
              "type": "uint8"
            },
            {
              "internalType": "uint16",
              "name": "build",
              "type": "uint16"
            }
          ],
          "internalType": "struct PluginRepo.Tag",
          "name": "newVersionTag",
          "type": "tuple"
        }
      ],
      "name": "InvalidUpdateVersion",
      "type": "error"
    },
    {
      "inputs": [],
      "name": "PluginAlreadyInstalled",
      "type": "error"
    },
    {
      "inputs": [
        {
          "internalType": "address",
          "name": "plugin",
          "type": "address"
        }
      ],
      "name": "PluginNonupgradeable",
      "type": "error"
    },
    {
      "inputs": [
        {
          "internalType": "address",
          "name": "proxy",
          "type": "address"
        },
        {
          "internalType": "address",
          "name": "implementation",
          "type": "address"
        },
        {
          "internalType": "bytes",
          "name": "initData",
          "type": "bytes"
        }
      ],
      "name": "PluginProxyUpgradeFailed",
      "type": "error"
    },
    {
      "inputs": [],
      "name": "PluginRepoNonexistent",
      "type": "error"
    },
    {
      "inputs": [
        {
          "internalType": "bytes32",
          "name": "preparedSetupId",
          "type": "bytes32"
        }
      ],
      "name": "SetupAlreadyPrepared",
      "type": "error"
    },
    {
      "inputs": [
        {
          "internalType": "address",
          "name": "dao",
          "type": "address"
        },
        {
          "internalType": "address",
          "name": "caller",
          "type": "address"
        },
        {
          "internalType": "bytes32",
          "name": "permissionId",
          "type": "bytes32"
        }
      ],
      "name": "SetupApplicationUnauthorized",
      "type": "error"
    },
    {
      "inputs": [
        {
          "internalType": "bytes32",
          "name": "preparedSetupId",
          "type": "bytes32"
        }
      ],
      "name": "SetupNotApplicable",
      "type": "error"
    },
    {
      "anonymous": false,
      "inputs": [
        {
          "indexed": true,
          "internalType": "address",
          "name": "dao",
          "type": "address"
        },
        {
          "indexed": true,
          "internalType": "address",
          "name": "plugin",
          "type": "address"
        },
        {
          "indexed": false,
          "internalType": "bytes32",
          "name": "preparedSetupId",
          "type": "bytes32"
        },
        {
          "indexed": false,
          "internalType": "bytes32",
          "name": "appliedSetupId",
          "type": "bytes32"
        }
      ],
      "name": "InstallationApplied",
      "type": "event"
    },
    {
      "anonymous": false,
      "inputs": [
        {
          "indexed": true,
          "internalType": "address",
          "name": "sender",
          "type": "address"
        },
        {
          "indexed": true,
          "internalType": "address",
          "name": "dao",
          "type": "address"
        },
        {
          "indexed": false,
          "internalType": "bytes32",
          "name": "preparedSetupId",
          "type": "bytes32"
        },
        {
          "indexed": true,
          "internalType": "contract PluginRepo",
          "name": "pluginSetupRepo",
          "type": "address"
        },
        {
          "components": [
            {
              "internalType": "uint8",
              "name": "release",
              "type": "uint8"
            },
            {
              "internalType": "uint16",
              "name": "build",
              "type": "uint16"
            }
          ],
          "indexed": false,
          "internalType": "struct PluginRepo.Tag",
          "name": "versionTag",
          "type": "tuple"
        },
        {
          "indexed": false,
          "internalType": "bytes",
          "name": "data",
          "type": "bytes"
        },
        {
          "indexed": false,
          "internalType": "address",
          "name": "plugin",
          "type": "address"
        },
        {
          "components": [
            {
              "internalType": "address[]",
              "name": "helpers",
              "type": "address[]"
            },
            {
              "components": [
                {
                  "internalType": "enum PermissionLib.Operation",
                  "name": "operation",
                  "type": "uint8"
                },
                {
                  "internalType": "address",
                  "name": "where",
                  "type": "address"
                },
                {
                  "internalType": "address",
                  "name": "who",
                  "type": "address"
                },
                {
                  "internalType": "address",
                  "name": "condition",
                  "type": "address"
                },
                {
                  "internalType": "bytes32",
                  "name": "permissionId",
                  "type": "bytes32"
                }
              ],
              "internalType": "struct PermissionLib.MultiTargetPermission[]",
              "name": "permissions",
              "type": "tuple[]"
            }
          ],
          "indexed": false,
          "internalType": "struct IPluginSetup.PreparedSetupData",
          "name": "preparedSetupData",
          "type": "tuple"
        }
      ],
      "name": "InstallationPrepared",
      "type": "event"
    },
    {
      "anonymous": false,
      "inputs": [
        {
          "indexed": true,
          "internalType": "address",
          "name": "dao",
          "type": "address"
        },
        {
          "indexed": true,
          "internalType": "address",
          "name": "plugin",
          "type": "address"
        },
        {
          "indexed": false,
          "internalType": "bytes32",
          "name": "preparedSetupId",
          "type": "bytes32"
        }
      ],
      "name": "UninstallationApplied",
      "type": "event"
    },
    {
      "anonymous": false,
      "inputs": [
        {
          "indexed": true,
          "internalType": "address",
          "name": "sender",
          "type": "address"
        },
        {
          "indexed": true,
          "internalType": "address",
          "name": "dao",
          "type": "address"
        },
        {
          "indexed": false,
          "internalType": "bytes32",
          "name": "preparedSetupId",
          "type": "bytes32"
        },
        {
          "indexed": true,
          "internalType": "contract PluginRepo",
          "name": "pluginSetupRepo",
          "type": "address"
        },
        {
          "components": [
            {
              "internalType": "uint8",
              "name": "release",
              "type": "uint8"
            },
            {
              "internalType": "uint16",
              "name": "build",
              "type": "uint16"
            }
          ],
          "indexed": false,
          "internalType": "struct PluginRepo.Tag",
          "name": "versionTag",
          "type": "tuple"
        },
        {
          "components": [
            {
              "internalType": "address",
              "name": "plugin",
              "type": "address"
            },
            {
              "internalType": "address[]",
              "name": "currentHelpers",
              "type": "address[]"
            },
            {
              "internalType": "bytes",
              "name": "data",
              "type": "bytes"
            }
          ],
          "indexed": false,
          "internalType": "struct IPluginSetup.SetupPayload",
          "name": "setupPayload",
          "type": "tuple"
        },
        {
          "components": [
            {
              "internalType": "enum PermissionLib.Operation",
              "name": "operation",
              "type": "uint8"
            },
            {
              "internalType": "address",
              "name": "where",
              "type": "address"
            },
            {
              "internalType": "address",
              "name": "who",
              "type": "address"
            },
            {
              "internalType": "address",
              "name": "condition",
              "type": "address"
            },
            {
              "internalType": "bytes32",
              "name": "permissionId",
              "type": "bytes32"
            }
          ],
          "indexed": false,
          "internalType": "struct PermissionLib.MultiTargetPermission[]",
          "name": "permissions",
          "type": "tuple[]"
        }
      ],
      "name": "UninstallationPrepared",
      "type": "event"
    },
    {
      "anonymous": false,
      "inputs": [
        {
          "indexed": true,
          "internalType": "address",
          "name": "dao",
          "type": "address"
        },
        {
          "indexed": true,
          "internalType": "address",
          "name": "plugin",
          "type": "address"
        },
        {
          "indexed": false,
          "internalType": "bytes32",
          "name": "preparedSetupId",
          "type": "bytes32"
        },
        {
          "indexed": false,
          "internalType": "bytes32",
          "name": "appliedSetupId",
          "type": "bytes32"
        }
      ],
      "name": "UpdateApplied",
      "type": "event"
    },
    {
      "anonymous": false,
      "inputs": [
        {
          "indexed": true,
          "internalType": "address",
          "name": "sender",
          "type": "address"
        },
        {
          "indexed": true,
          "internalType": "address",
          "name": "dao",
          "type": "address"
        },
        {
          "indexed": false,
          "internalType": "bytes32",
          "name": "preparedSetupId",
          "type": "bytes32"
        },
        {
          "indexed": true,
          "internalType": "contract PluginRepo",
          "name": "pluginSetupRepo",
          "type": "address"
        },
        {
          "components": [
            {
              "internalType": "uint8",
              "name": "release",
              "type": "uint8"
            },
            {
              "internalType": "uint16",
              "name": "build",
              "type": "uint16"
            }
          ],
          "indexed": false,
          "internalType": "struct PluginRepo.Tag",
          "name": "versionTag",
          "type": "tuple"
        },
        {
          "components": [
            {
              "internalType": "address",
              "name": "plugin",
              "type": "address"
            },
            {
              "internalType": "address[]",
              "name": "currentHelpers",
              "type": "address[]"
            },
            {
              "internalType": "bytes",
              "name": "data",
              "type": "bytes"
            }
          ],
          "indexed": false,
          "internalType": "struct IPluginSetup.SetupPayload",
          "name": "setupPayload",
          "type": "tuple"
        },
        {
          "components": [
            {
              "internalType": "address[]",
              "name": "helpers",
              "type": "address[]"
            },
            {
              "components": [
                {
                  "internalType": "enum PermissionLib.Operation",
                  "name": "operation",
                  "type": "uint8"
                },
                {
                  "internalType": "address",
                  "name": "where",
                  "type": "address"
                },
                {
                  "internalType": "address",
                  "name": "who",
                  "type": "address"
                },
                {
                  "internalType": "address",
                  "name": "condition",
                  "type": "address"
                },
                {
                  "internalType": "bytes32",
                  "name": "permissionId",
                  "type": "bytes32"
                }
              ],
              "internalType": "struct PermissionLib.MultiTargetPermission[]",
              "name": "permissions",
              "type": "tuple[]"
            }
          ],
          "indexed": false,
          "internalType": "struct IPluginSetup.PreparedSetupData",
          "name": "preparedSetupData",
          "type": "tuple"
        },
        {
          "indexed": false,
          "internalType": "bytes",
          "name": "initData",
          "type": "bytes"
        }
      ],
      "name": "UpdatePrepared",
      "type": "event"
    },
    {
      "inputs": [],
      "name": "APPLY_INSTALLATION_PERMISSION_ID",
      "outputs": [
        {
          "internalType": "bytes32",
          "name": "",
          "type": "bytes32"
        }
      ],
      "stateMutability": "view",
      "type": "function"
    },
    {
      "inputs": [],
      "name": "APPLY_UNINSTALLATION_PERMISSION_ID",
      "outputs": [
        {
          "internalType": "bytes32",
          "name": "",
          "type": "bytes32"
        }
      ],
      "stateMutability": "view",
      "type": "function"
    },
    {
      "inputs": [],
      "name": "APPLY_UPDATE_PERMISSION_ID",
      "outputs": [
        {
          "internalType": "bytes32",
          "name": "",
          "type": "bytes32"
        }
      ],
      "stateMutability": "view",
      "type": "function"
    },
    {
      "inputs": [
        {
          "internalType": "address",
          "name": "_dao",
          "type": "address"
        },
        {
          "components": [
            {
              "components": [
                {
                  "components": [
                    {
                      "internalType": "uint8",
                      "name": "release",
                      "type": "uint8"
                    },
                    {
                      "internalType": "uint16",
                      "name": "build",
                      "type": "uint16"
                    }
                  ],
                  "internalType": "struct PluginRepo.Tag",
                  "name": "versionTag",
                  "type": "tuple"
                },
                {
                  "internalType": "contract PluginRepo",
                  "name": "pluginSetupRepo",
                  "type": "address"
                }
              ],
              "internalType": "struct PluginSetupRef",
              "name": "pluginSetupRef",
              "type": "tuple"
            },
            {
              "internalType": "address",
              "name": "plugin",
              "type": "address"
            },
            {
              "components": [
                {
                  "internalType": "enum PermissionLib.Operation",
                  "name": "operation",
                  "type": "uint8"
                },
                {
                  "internalType": "address",
                  "name": "where",
                  "type": "address"
                },
                {
                  "internalType": "address",
                  "name": "who",
                  "type": "address"
                },
                {
                  "internalType": "address",
                  "name": "condition",
                  "type": "address"
                },
                {
                  "internalType": "bytes32",
                  "name": "permissionId",
                  "type": "bytes32"
                }
              ],
              "internalType": "struct PermissionLib.MultiTargetPermission[]",
              "name": "permissions",
              "type": "tuple[]"
            },
            {
              "internalType": "bytes32",
              "name": "helpersHash",
              "type": "bytes32"
            }
          ],
          "internalType": "struct PluginSetupProcessor.ApplyInstallationParams",
          "name": "_params",
          "type": "tuple"
        }
      ],
      "name": "applyInstallation",
      "outputs": [],
      "stateMutability": "nonpayable",
      "type": "function"
    },
    {
      "inputs": [
        {
          "internalType": "address",
          "name": "_dao",
          "type": "address"
        },
        {
          "components": [
            {
              "internalType": "address",
              "name": "plugin",
              "type": "address"
            },
            {
              "components": [
                {
                  "components": [
                    {
                      "internalType": "uint8",
                      "name": "release",
                      "type": "uint8"
                    },
                    {
                      "internalType": "uint16",
                      "name": "build",
                      "type": "uint16"
                    }
                  ],
                  "internalType": "struct PluginRepo.Tag",
                  "name": "versionTag",
                  "type": "tuple"
                },
                {
                  "internalType": "contract PluginRepo",
                  "name": "pluginSetupRepo",
                  "type": "address"
                }
              ],
              "internalType": "struct PluginSetupRef",
              "name": "pluginSetupRef",
              "type": "tuple"
            },
            {
              "components": [
                {
                  "internalType": "enum PermissionLib.Operation",
                  "name": "operation",
                  "type": "uint8"
                },
                {
                  "internalType": "address",
                  "name": "where",
                  "type": "address"
                },
                {
                  "internalType": "address",
                  "name": "who",
                  "type": "address"
                },
                {
                  "internalType": "address",
                  "name": "condition",
                  "type": "address"
                },
                {
                  "internalType": "bytes32",
                  "name": "permissionId",
                  "type": "bytes32"
                }
              ],
              "internalType": "struct PermissionLib.MultiTargetPermission[]",
              "name": "permissions",
              "type": "tuple[]"
            }
          ],
          "internalType": "struct PluginSetupProcessor.ApplyUninstallationParams",
          "name": "_params",
          "type": "tuple"
        }
      ],
      "name": "applyUninstallation",
      "outputs": [],
      "stateMutability": "nonpayable",
      "type": "function"
    },
    {
      "inputs": [
        {
          "internalType": "address",
          "name": "_dao",
          "type": "address"
        },
        {
          "components": [
            {
              "internalType": "address",
              "name": "plugin",
              "type": "address"
            },
            {
              "components": [
                {
                  "components": [
                    {
                      "internalType": "uint8",
                      "name": "release",
                      "type": "uint8"
                    },
                    {
                      "internalType": "uint16",
                      "name": "build",
                      "type": "uint16"
                    }
                  ],
                  "internalType": "struct PluginRepo.Tag",
                  "name": "versionTag",
                  "type": "tuple"
                },
                {
                  "internalType": "contract PluginRepo",
                  "name": "pluginSetupRepo",
                  "type": "address"
                }
              ],
              "internalType": "struct PluginSetupRef",
              "name": "pluginSetupRef",
              "type": "tuple"
            },
            {
              "internalType": "bytes",
              "name": "initData",
              "type": "bytes"
            },
            {
              "components": [
                {
                  "internalType": "enum PermissionLib.Operation",
                  "name": "operation",
                  "type": "uint8"
                },
                {
                  "internalType": "address",
                  "name": "where",
                  "type": "address"
                },
                {
                  "internalType": "address",
                  "name": "who",
                  "type": "address"
                },
                {
                  "internalType": "address",
                  "name": "condition",
                  "type": "address"
                },
                {
                  "internalType": "bytes32",
                  "name": "permissionId",
                  "type": "bytes32"
                }
              ],
              "internalType": "struct PermissionLib.MultiTargetPermission[]",
              "name": "permissions",
              "type": "tuple[]"
            },
            {
              "internalType": "bytes32",
              "name": "helpersHash",
              "type": "bytes32"
            }
          ],
          "internalType": "struct PluginSetupProcessor.ApplyUpdateParams",
          "name": "_params",
          "type": "tuple"
        }
      ],
      "name": "applyUpdate",
      "outputs": [],
      "stateMutability": "nonpayable",
      "type": "function"
    },
    {
      "inputs": [
        {
          "internalType": "address",
          "name": "_dao",
          "type": "address"
        },
        {
          "components": [
            {
              "components": [
                {
                  "components": [
                    {
                      "internalType": "uint8",
                      "name": "release",
                      "type": "uint8"
                    },
                    {
                      "internalType": "uint16",
                      "name": "build",
                      "type": "uint16"
                    }
                  ],
                  "internalType": "struct PluginRepo.Tag",
                  "name": "versionTag",
                  "type": "tuple"
                },
                {
                  "internalType": "contract PluginRepo",
                  "name": "pluginSetupRepo",
                  "type": "address"
                }
              ],
              "internalType": "struct PluginSetupRef",
              "name": "pluginSetupRef",
              "type": "tuple"
            },
            {
              "internalType": "bytes",
              "name": "data",
              "type": "bytes"
            }
          ],
          "internalType": "struct PluginSetupProcessor.PrepareInstallationParams",
          "name": "_params",
          "type": "tuple"
        }
      ],
      "name": "prepareInstallation",
      "outputs": [
        {
          "internalType": "address",
          "name": "plugin",
          "type": "address"
        },
        {
          "components": [
            {
              "internalType": "address[]",
              "name": "helpers",
              "type": "address[]"
            },
            {
              "components": [
                {
                  "internalType": "enum PermissionLib.Operation",
                  "name": "operation",
                  "type": "uint8"
                },
                {
                  "internalType": "address",
                  "name": "where",
                  "type": "address"
                },
                {
                  "internalType": "address",
                  "name": "who",
                  "type": "address"
                },
                {
                  "internalType": "address",
                  "name": "condition",
                  "type": "address"
                },
                {
                  "internalType": "bytes32",
                  "name": "permissionId",
                  "type": "bytes32"
                }
              ],
              "internalType": "struct PermissionLib.MultiTargetPermission[]",
              "name": "permissions",
              "type": "tuple[]"
            }
          ],
          "internalType": "struct IPluginSetup.PreparedSetupData",
          "name": "preparedSetupData",
          "type": "tuple"
        }
      ],
      "stateMutability": "nonpayable",
      "type": "function"
    },
    {
      "inputs": [
        {
          "internalType": "address",
          "name": "_dao",
          "type": "address"
        },
        {
          "components": [
            {
              "components": [
                {
                  "components": [
                    {
                      "internalType": "uint8",
                      "name": "release",
                      "type": "uint8"
                    },
                    {
                      "internalType": "uint16",
                      "name": "build",
                      "type": "uint16"
                    }
                  ],
                  "internalType": "struct PluginRepo.Tag",
                  "name": "versionTag",
                  "type": "tuple"
                },
                {
                  "internalType": "contract PluginRepo",
                  "name": "pluginSetupRepo",
                  "type": "address"
                }
              ],
              "internalType": "struct PluginSetupRef",
              "name": "pluginSetupRef",
              "type": "tuple"
            },
            {
              "components": [
                {
                  "internalType": "address",
                  "name": "plugin",
                  "type": "address"
                },
                {
                  "internalType": "address[]",
                  "name": "currentHelpers",
                  "type": "address[]"
                },
                {
                  "internalType": "bytes",
                  "name": "data",
                  "type": "bytes"
                }
              ],
              "internalType": "struct IPluginSetup.SetupPayload",
              "name": "setupPayload",
              "type": "tuple"
            }
          ],
          "internalType": "struct PluginSetupProcessor.PrepareUninstallationParams",
          "name": "_params",
          "type": "tuple"
        }
      ],
      "name": "prepareUninstallation",
      "outputs": [
        {
          "components": [
            {
              "internalType": "enum PermissionLib.Operation",
              "name": "operation",
              "type": "uint8"
            },
            {
              "internalType": "address",
              "name": "where",
              "type": "address"
            },
            {
              "internalType": "address",
              "name": "who",
              "type": "address"
            },
            {
              "internalType": "address",
              "name": "condition",
              "type": "address"
            },
            {
              "internalType": "bytes32",
              "name": "permissionId",
              "type": "bytes32"
            }
          ],
          "internalType": "struct PermissionLib.MultiTargetPermission[]",
          "name": "permissions",
          "type": "tuple[]"
        }
      ],
      "stateMutability": "nonpayable",
      "type": "function"
    },
    {
      "inputs": [
        {
          "internalType": "address",
          "name": "_dao",
          "type": "address"
        },
        {
          "components": [
            {
              "components": [
                {
                  "internalType": "uint8",
                  "name": "release",
                  "type": "uint8"
                },
                {
                  "internalType": "uint16",
                  "name": "build",
                  "type": "uint16"
                }
              ],
              "internalType": "struct PluginRepo.Tag",
              "name": "currentVersionTag",
              "type": "tuple"
            },
            {
              "components": [
                {
                  "internalType": "uint8",
                  "name": "release",
                  "type": "uint8"
                },
                {
                  "internalType": "uint16",
                  "name": "build",
                  "type": "uint16"
                }
              ],
              "internalType": "struct PluginRepo.Tag",
              "name": "newVersionTag",
              "type": "tuple"
            },
            {
              "internalType": "contract PluginRepo",
              "name": "pluginSetupRepo",
              "type": "address"
            },
            {
              "components": [
                {
                  "internalType": "address",
                  "name": "plugin",
                  "type": "address"
                },
                {
                  "internalType": "address[]",
                  "name": "currentHelpers",
                  "type": "address[]"
                },
                {
                  "internalType": "bytes",
                  "name": "data",
                  "type": "bytes"
                }
              ],
              "internalType": "struct IPluginSetup.SetupPayload",
              "name": "setupPayload",
              "type": "tuple"
            }
          ],
          "internalType": "struct PluginSetupProcessor.PrepareUpdateParams",
          "name": "_params",
          "type": "tuple"
        }
      ],
      "name": "prepareUpdate",
      "outputs": [
        {
          "internalType": "bytes",
          "name": "initData",
          "type": "bytes"
        },
        {
          "components": [
            {
              "internalType": "address[]",
              "name": "helpers",
              "type": "address[]"
            },
            {
              "components": [
                {
                  "internalType": "enum PermissionLib.Operation",
                  "name": "operation",
                  "type": "uint8"
                },
                {
                  "internalType": "address",
                  "name": "where",
                  "type": "address"
                },
                {
                  "internalType": "address",
                  "name": "who",
                  "type": "address"
                },
                {
                  "internalType": "address",
                  "name": "condition",
                  "type": "address"
                },
                {
                  "internalType": "bytes32",
                  "name": "permissionId",
                  "type": "bytes32"
                }
              ],
              "internalType": "struct PermissionLib.MultiTargetPermission[]",
              "name": "permissions",
              "type": "tuple[]"
            }
          ],
          "internalType": "struct IPluginSetup.PreparedSetupData",
          "name": "preparedSetupData",
          "type": "tuple"
        }
      ],
      "stateMutability": "nonpayable",
      "type": "function"
    },
    {
      "inputs": [],
      "name": "repoRegistry",
      "outputs": [
        {
          "internalType": "contract PluginRepoRegistry",
          "name": "",
          "type": "address"
        }
      ],
      "stateMutability": "view",
      "type": "function"
    },
    {
      "inputs": [
        {
          "internalType": "bytes32",
          "name": "",
          "type": "bytes32"
        }
      ],
      "name": "states",
      "outputs": [
        {
          "internalType": "uint256",
          "name": "blockNumber",
          "type": "uint256"
        },
        {
          "internalType": "bytes32",
          "name": "currentAppliedSetupId",
          "type": "bytes32"
        }
      ],
      "stateMutability": "view",
      "type": "function"
    },
    {
      "inputs": [
        {
          "internalType": "bytes32",
          "name": "pluginInstallationId",
          "type": "bytes32"
        },
        {
          "internalType": "bytes32",
          "name": "preparedSetupId",
          "type": "bytes32"
        }
      ],
      "name": "validatePreparedSetupId",
      "outputs": [],
      "stateMutability": "view",
      "type": "function"
    }
  ],
  "transactionHash": "0xac6584639ed9a3b4cc5c21d4013a2fb6b5457a63b1fd927a3b734e9044e40354",
  "args": [
    "0xD75111C439635D5B3B336BfA19d7dF892e5De7d7"
  ],
  "numDeployments": 1,
  "solcInputHash": "f97dc15e6d1f74cd3e4f0c0726ba97cc",
  "bytecode": "0x60806040523480156200001157600080fd5b5060405162002ca638038062002ca683398101604081905262000034916200005a565b600180546001600160a01b0319166001600160a01b03929092169190911790556200008c565b6000602082840312156200006d57600080fd5b81516001600160a01b03811681146200008557600080fd5b9392505050565b612c0a806200009c6000396000f3fe608060405234801561001057600080fd5b50600436106100b45760003560e01c80639665861a116100715780639665861a1461018b578063ca211f7f146101b2578063d7598122146101d9578063fafc79da146101fa578063fbdc1ef11461020d578063fe6c34741461024957600080fd5b806322e12c63146100b95780632fb04336146100ce5780633c8c01d1146100f7578063483d209e14610118578063747e5ec114610143578063851d11f814610178575b600080fd5b6100cc6100c7366004611b1b565b61025c565b005b6100e16100dc366004611b89565b61067e565b6040516100ee9190611c8e565b60405180910390f35b61010a610105366004611b89565b61097c565b6040516100ee929190611d34565b60015461012b906001600160a01b031681565b6040516001600160a01b0390911681526020016100ee565b61016a7ff796b89427c6552c1ac705d833bfb7909f8eb5ce502c1db97f85fabc6ad8354881565b6040519081526020016100ee565b6100cc610186366004611d60565b610c72565b61016a7fb03cf3d518f6d49560b7f5bece1ccb8fd50ea7370f02f5e5210edba04be3c4f781565b61016a7fbd4dbacf5ba6d9793f600403b3293d6ecd695fcc703a2b5edcf245f45fda6cfa81565b6101ec6101e7366004611dbd565b610e2f565b6040516100ee929190611e52565b6100cc610208366004611e80565b61143c565b61023461021b366004611ea2565b6000602081905290815260409020805460019091015482565b604080519283526020830191909152016100ee565b6100cc610257366004611dbd565b611481565b817fb03cf3d518f6d49560b7f5bece1ccb8fd50ea7370f02f5e5210edba04be3c4f761028882826116aa565b60006102a08561029b6020870187611ebb565b611777565b600081815260208181526040822092935061037c906102c790368990038901908901611fe5565b61032d6102d760a08a018a612029565b808060200260200160405190810160405280939291908181526020016000905b828210156103235761031460a0830286013681900381019061207e565b815260200190600101906102f7565b50505050506117ba565b60c089013561033f60808b018b61210e565b8080601f016020809104026020016040519081016040528093929190818152602001838380828437600092019190915250600292506117ea915050565b9050610388838261143c565b60006103a961039f36899003890160208a01611fe5565b8860c00135611832565b43845560018401819055905060006103c76080890160608a01611ebb565b604051639af3e90960e01b81526001600160a01b039190911690639af3e909906103f89060208c0190600401612181565b600060405180830381865afa158015610415573d6000803e3d6000fd5b505050506040513d6000823e601f3d908101601f1916820160405261043d9190810190612206565b9050600061044e60208a018a611ebb565b6001600160a01b0316635c60da1b6040518163ffffffff1660e01b8152600401602060405180830381865afa15801561048b573d6000803e3d6000fd5b505050506040513d601f19601f820116820180604052508101906104af91906122cf565b9050600082602001516001600160a01b0316635c60da1b6040518163ffffffff1660e01b8152600401602060405180830381865afa1580156104f5573d6000803e3d6000fd5b505050506040513d601f19601f8201168201806040525081019061051991906122cf565b9050806001600160a01b0316826001600160a01b03161461058c5761058c61054460208c018c611ebb565b8261055260808e018e61210e565b8080601f01602080910402602001604051908101604052809392919081815260200183838082843760009201919091525061187992505050565b600061059b60a08c018c612029565b9050111561060f576001600160a01b038b1663e978afe56105bf60a08d018d612029565b6040518363ffffffff1660e01b81526004016105dc9291906122ec565b600060405180830381600087803b1580156105f657600080fd5b505af115801561060a573d6000803e3d6000fd5b505050505b61061c60208b018b611ebb565b6001600160a01b03168b6001600160a01b03167f24565610ddf61ee73e8501d7f0454657c71f5944882f5c586d7246bf43e13cda8787604051610669929190918252602082015260400190565b60405180910390a35050505050505050505050565b606060006106a0846106928585018661238f565b61029b906020810190611ebb565b600081815260208190526040812091925061071d6106c336879003870187611fe5565b6107186106d3606089018961238f565b6106e19060208101906123af565b8080602002602001604051908101604052809392919081815260200183836020028082843760009201919091525061199d92505050565b611832565b90508082600101541461075857600182015460405163039d275560e51b81526004810191909152602481018290526044015b60405180910390fd5b600061076a6060870160408801611ebb565b604051639af3e90960e01b81526001600160a01b039190911690639af3e90990610798908990600401612181565b600060405180830381865afa1580156107b5573d6000803e3d6000fd5b505050506040513d6000823e601f3d908101601f191682016040526107dd9190810190612206565b60208101519091506001600160a01b0316639cb0a1248861080160608a018a61238f565b6040518363ffffffff1660e01b815260040161081e929190612538565b6000604051808303816000875af115801561083d573d6000803e3d6000fd5b505050506040513d6000823e601f3d908101601f191682016040526108659190810190612658565b945060006108bc61087b36899003890189611fe5565b610884886117ba565b6040805160208101909152600081527f290decd9548b62a8d60345a988386fc84ba6bc95484008f6362f93160ef3e5639060036117ea565b6000818152600286016020526040902054855491925011156108f457604051630559b4b760e31b81526004810182905260240161074f565b6000818152600285016020526040908190204390556109199060608901908901611ebb565b6001600160a01b03908116908916337f5fdcd271ff15db84cbc94365956df5504f6d756e111654144648433c11a44530848b610958606082018261238f565b8c604051610969949392919061268c565b60405180910390a4505050505092915050565b600061099b604051806040016040528060608152602001606081525090565b60006109ad6060850160408601611ebb565b60015460405163f29ee12560e01b81526001600160a01b03808416600483015292935091169063f29ee12590602401602060405180830381865afa1580156109f9573d6000803e3d6000fd5b505050506040513d601f19601f82011682018060405250810190610a1d91906126c4565b610a3a57604051630353faad60e21b815260040160405180910390fd5b604051639af3e90960e01b81526000906001600160a01b03831690639af3e90990610a69908890600401612181565b600060405180830381865afa158015610a86573d6000803e3d6000fd5b505050506040513d6000823e601f3d908101601f19168201604052610aae9190810190612206565b60208101519091506001600160a01b031663f10832f187610ad2606089018961210e565b6040518463ffffffff1660e01b8152600401610af0939291906126e6565b6000604051808303816000875af1158015610b0f573d6000803e3d6000fd5b505050506040513d6000823e601f3d908101601f19168201604052610b3791908101906127e9565b90945092506000610b488786611777565b90506000610b8d610b5e36899003890189611fe5565b610b6b87602001516117ba565b8751610b769061199d565b6040518060200160405280600081525060016117ea565b600083815260208190526040902060018101549192509015610bc257604051636972275b60e11b815260040160405180910390fd5b600082815260028201602052604090205481541015610bf757604051630559b4b760e31b81526004810183905260240161074f565b600082815260028201602052604090204390556001600160a01b03808616908a16337f8ea69cee01fd9fc24e6b9614ea0896c5a1eac8fd8aba383285248cd0e1d8503a858c610c49606082018261210e565b8e8e604051610c5d9695949392919061282f565b60405180910390a450505050505b9250929050565b817fbd4dbacf5ba6d9793f600403b3293d6ecd695fcc703a2b5edcf245f45fda6cfa610c9e82826116aa565b6000610cb18561029b6020870187611ebb565b6000818152602081815260408220929350610d3490610cd890368990038901908901611fe5565b610884610ce860808a018a612029565b808060200260200160405190810160405280939291908181526020016000905b8282101561032357610d2560a0830286013681900381019061207e565b81526020019060010190610d08565b9050610d40838261143c565b438255600060018301819055610d596080880188612029565b90501115610dcd576001600160a01b03871663e978afe5610d7d6080890189612029565b6040518363ffffffff1660e01b8152600401610d9a9291906122ec565b600060405180830381600087803b158015610db457600080fd5b505af1158015610dc8573d6000803e3d6000fd5b505050505b610dda6020870187611ebb565b6001600160a01b0316876001600160a01b03167fa0e5d4ce6420a0e7a5f0ac10c47b3a672fb661c11f5609bb21b68644d81e17aa83604051610e1e91815260200190565b60405180910390a350505050505050565b6060610e4e604051806040016040528060608152602001606081525090565b610e5e6060840160408501612877565b60ff16610e6e6020850185612877565b60ff16141580610ea45750610e896080840160608501612894565b61ffff16610e9d6040850160208601612894565b61ffff1610155b15610ec957604080516380d4e90760e01b815261074f918591908201906004016128b1565b6000610edc8561069260a087018761238f565b6000818152602081905260408120919250610efd6106d360a088018861238f565b90506000610f49604051806040016040528089600001803603810190610f2391906128cc565b8152602001610f3860a08b0160808c01611ebb565b6001600160a01b0316905283611832565b905080836001015414610f7f57600183015460405163039d275560e51b815260048101919091526024810182905260440161074f565b6000610f9160a0890160808a01611ebb565b604051639af3e90960e01b81526001600160a01b039190911690639af3e90990610fbf908b90600401612181565b600060405180830381865afa158015610fdc573d6000803e3d6000fd5b505050506040513d6000823e601f3d908101601f191682016040526110049190810190612206565b9050600061101860a08a0160808b01611ebb565b6001600160a01b0316639af3e9098a6040016040518263ffffffff1660e01b81526004016110469190612181565b600060405180830381865afa158015611063573d6000803e3d6000fd5b505050506040513d6000823e601f3d908101601f1916820160405261108b9190810190612206565b9050600081602001516001600160a01b031683602001516001600160a01b0316036111825761112c60405180604001604052808c6040018036038101906110d291906128cc565b81526020016110e760a08e0160808f01611ebb565b6001600160a01b031690526040805160208101909152600081527f569e75fc77c1a856f6daaf9e69d8a9566ca34aa47f9133711ce065a571af0cfd90889060026117ea565b905061113b60a08b018b61238f565b6111499060208101906123af565b808060200260200160405190810160405280939291908181526020018383602002808284376000920191909152505050908952506113d9565b6111b763041de68360e41b61119a60a08d018d61238f565b6111a8906020810190611ebb565b6001600160a01b0316906119b0565b6111fb576111c860a08b018b61238f565b6111d6906020810190611ebb565b604051638174ff5560e01b81526001600160a01b03909116600482015260240161074f565b600061120a60a08c018c61238f565b611218906020810190611ebb565b6001600160a01b03166341de68306040518163ffffffff1660e01b8152600401602060405180830381865afa158015611255573d6000803e3d6000fd5b505050506040513d601f19601f8201168201806040525081019061127991906128e8565b600281111561128a5761128a611bd8565b146112cf5761129c60a08b018b61238f565b6112aa906020810190611ebb565b60405163390d5b2560e21b81526001600160a01b03909116600482015260240161074f565b81602001516001600160a01b031663a8a9c29e8c8c60000160200160208101906112f99190612894565b61130660a08f018f61238f565b6040518463ffffffff1660e01b815260040161132493929190612905565b6000604051808303816000875af1158015611343573d6000803e3d6000fd5b505050506040513d6000823e601f3d908101601f1916820160405261136b9190810190612933565b809950819a5050506113d660405180604001604052808c60400180360381019061139591906128cc565b81526020016113aa60a08e0160808f01611ebb565b6001600160a01b03168152506113c38a602001516117ba565b8a516113ce9061199d565b8c60026117ea565b90505b60008181526002870160205260409020548654101561140e57604051630559b4b760e31b81526004810182905260240161074f565b6000818152600287016020526040902043905561142e8b828c8b8d6119d3565b505050505050509250929050565b600082815260208181526040808320848452600281019092529091205481541061147c57604051632cb9867360e11b81526004810183905260240161074f565b505050565b817ff796b89427c6552c1ac705d833bfb7909f8eb5ce502c1db97f85fabc6ad835486114ad82826116aa565b60006114c38561029b6080870160608801611ebb565b600081815260208190526040812091925061155e6114e636889003880188611fe5565b6115426114f660808a018a612029565b808060200260200160405190810160405280939291908181526020016000905b828210156103235761153360a0830286013681900381019061207e565b81526020019060010190611516565b8860a001356040518060200160405280600081525060016117ea565b60018301549091501561158457604051636972275b60e11b815260040160405180910390fd5b61158e838261143c565b60006115ac6115a236899003890189611fe5565b8860a00135611832565b60018401819055438455905060006115c76080890189612029565b9050111561163b576001600160a01b03881663e978afe56115eb60808a018a612029565b6040518363ffffffff1660e01b81526004016116089291906122ec565b600060405180830381600087803b15801561162257600080fd5b505af1158015611636573d6000803e3d6000fd5b505050505b61164b6080880160608901611ebb565b6001600160a01b0316886001600160a01b03167f74e616c7264536b98a5ec234d051ae6ce1305bf05c85f9ddc112364440ccf1298484604051611698929190918252602082015260400190565b60405180910390a35050505050505050565b336001600160a01b0383161480159061173e575060408051602081018252600081529051637ef7c88360e11b81526001600160a01b0384169163fdef9106916116fb9130913391879160040161298c565b602060405180830381865afa158015611718573d6000803e3d6000fd5b505050506040513d601f19601f8201168201806040525081019061173c91906126c4565b155b156117735760405162aeb47760e51b81526001600160a01b03831660048201523360248201526044810182905260640161074f565b5050565b604080516001600160a01b0380851660208301528316918101919091526000906060015b6040516020818303038152906040528051906020012090505b92915050565b6000816040516020016117cd9190611c8e565b604051602081830303815290604052805190602001209050919050565b8451602080870151845185830120604051600094611811949093928a928a928991016129c9565b60405160208183030381529060405280519060200120905095945050505050565b815160208084015160408051845160ff1681850152929093015161ffff16928201929092526001600160a01b0390911660608201526080810182905260009060a00161179b565b80511561196f5760405163278f794360e11b81526001600160a01b03841690634f1ef286906118ae9085908590600401612a27565b600060405180830381600087803b1580156118c857600080fd5b505af19250505080156118d9575060015b61147c576118e5612a4b565b806308c379a00361191e57506118f9612a67565b806119045750611920565b8060405162461bcd60e51b815260040161074f9190612af0565b505b3d80801561194a576040519150601f19603f3d011682016040523d82523d6000602084013e61194f565b606091505b508383836040516396e9e31b60e01b815260040161074f93929190612b03565b604051631b2ce7f360e11b81526001600160a01b038381166004830152841690633659cfe6906024016118ae565b6000816040516020016117cd9190612b2f565b60006119bb83611a47565b80156119cc57506119cc8383611a7a565b9392505050565b6119e360a0840160808501611ebb565b6001600160a01b03908116908616337f3686138d92841c8549b2fe39fda23881fef6aa9b347352114c0869bf5af3e3f28760408801611a2560a08a018a61238f565b8888604051611a38959493929190612b7c565b60405180910390a45050505050565b6000611a5a826301ffc9a760e01b611a7a565b80156117b45750611a73826001600160e01b0319611a7a565b1592915050565b604080516001600160e01b03198316602480830191909152825180830390910181526044909101909152602080820180516001600160e01b03166301ffc9a760e01b178152825160009392849283928392918391908a617530fa92503d91506000519050828015611aec575060208210155b8015611af85750600081115b979650505050505050565b6001600160a01b0381168114611b1857600080fd5b50565b60008060408385031215611b2e57600080fd5b8235611b3981611b03565b915060208301356001600160401b03811115611b5457600080fd5b830160e08186031215611b6657600080fd5b809150509250929050565b600060808284031215611b8357600080fd5b50919050565b60008060408385031215611b9c57600080fd5b8235611ba781611b03565b915060208301356001600160401b03811115611bc257600080fd5b611bce85828601611b71565b9150509250929050565b634e487b7160e01b600052602160045260246000fd5b60038110611bfe57611bfe611bd8565b9052565b611c0d828251611bee565b6020818101516001600160a01b0390811691840191909152604080830151821690840152606080830151909116908301526080908101519082015260a00190565b600081518084526020808501945080840160005b83811015611c8357611c75878351611c02565b965090820190600101611c62565b509495945050505050565b6020815260006119cc6020830184611c4e565b805160408084528151908401819052600091602091908201906060860190845b81811015611ce65783516001600160a01b031683529284019291840191600101611cc1565b50508483015186820387850152805180835290840192506000918401905b80831015611d2957611d17828551611c02565b91508484019350600183019250611d04565b509695505050505050565b6001600160a01b0383168152604060208201819052600090611d5890830184611ca1565b949350505050565b60008060408385031215611d7357600080fd5b8235611d7e81611b03565b915060208301356001600160401b03811115611d9957600080fd5b830160a08186031215611b6657600080fd5b600060c08284031215611b8357600080fd5b60008060408385031215611dd057600080fd5b8235611ddb81611b03565b915060208301356001600160401b03811115611df657600080fd5b611bce85828601611dab565b60005b83811015611e1d578181015183820152602001611e05565b50506000910152565b60008151808452611e3e816020860160208601611e02565b601f01601f19169290920160200192915050565b604081526000611e656040830185611e26565b8281036020840152611e778185611ca1565b95945050505050565b60008060408385031215611e9357600080fd5b50508035926020909101359150565b600060208284031215611eb457600080fd5b5035919050565b600060208284031215611ecd57600080fd5b81356119cc81611b03565b634e487b7160e01b600052604160045260246000fd5b604081018181106001600160401b0382111715611f0d57611f0d611ed8565b60405250565b606081018181106001600160401b0382111715611f0d57611f0d611ed8565b60a081018181106001600160401b0382111715611f0d57611f0d611ed8565b601f8201601f191681016001600160401b0381118282101715611f7657611f76611ed8565b6040525050565b60ff81168114611b1857600080fd5b61ffff81168114611b1857600080fd5b600060408284031215611fae57600080fd5b604051611fba81611eee565b8091508235611fc881611f7d565b81526020830135611fd881611f8c565b6020919091015292915050565b600060608284031215611ff757600080fd5b60405161200381611eee565b61200d8484611f9c565b8152604083013561201d81611b03565b60208201529392505050565b6000808335601e1984360301811261204057600080fd5b8301803591506001600160401b0382111561205a57600080fd5b602001915060a081023603821315610c6b57600080fd5b60038110611b1857600080fd5b600060a0828403121561209057600080fd5b60405160a081018181106001600160401b03821117156120b2576120b2611ed8565b60405282356120c081612071565b815260208301356120d081611b03565b602082015260408301356120e381611b03565b604082015260608301356120f681611b03565b60608201526080928301359281019290925250919050565b6000808335601e1984360301811261212557600080fd5b8301803591506001600160401b0382111561213f57600080fd5b602001915036819003821315610c6b57600080fd5b803561215f81611f7d565b60ff168252602081013561217281611f8c565b61ffff81166020840152505050565b604081016117b48284612154565b805161219a81611b03565b919050565b600082601f8301126121b057600080fd5b81516001600160401b038111156121c9576121c9611ed8565b6040516121e0601f8301601f191660200182611f51565b8181528460208386010111156121f557600080fd5b611d58826020830160208701611e02565b60006020828403121561221857600080fd5b81516001600160401b038082111561222f57600080fd5b90830190818503608081121561224457600080fd5b60405161225081611f13565b604082121561225e57600080fd5b604051915061226c82611eee565b835161227781611f7d565b8252602084015161228781611f8c565b602083015281815261229b6040850161218f565b602082015260608401519150828211156122b457600080fd5b6122c08783860161219f565b60408201529695505050505050565b6000602082840312156122e157600080fd5b81516119cc81611b03565b6020808252818101839052600090604080840186845b8781101561238257813561231581612071565b61231f8482611bee565b508482013561232d81611b03565b6001600160a01b0390811684870152828501359061234a82611b03565b908116848601526060908382013561236181611b03565b16908401526080828101359084015260a09283019290910190600101612302565b5090979650505050505050565b60008235605e198336030181126123a557600080fd5b9190910192915050565b6000808335601e198436030181126123c657600080fd5b8301803591506001600160401b038211156123e057600080fd5b6020019150600581901b3603821315610c6b57600080fd5b6000808335601e1984360301811261240f57600080fd5b83016020810192503590506001600160401b0381111561242e57600080fd5b803603821315610c6b57600080fd5b81835281816020850137506000828201602090810191909152601f909101601f19169091010190565b600060608301823561247781611b03565b6001600160a01b0390811685526020908482013536869003601e1901811261249e57600080fd5b850182810190356001600160401b038111156124b957600080fd5b8060051b36038213156124cb57600080fd5b6060888501529384905292600090608088015b818310156125075785356124f181611b03565b84168152948401946001929092019184016124de565b61251460408901896123f8565b9650945088810360408a015261252b81878761243d565b9998505050505050505050565b6001600160a01b0383168152604060208201819052600090611d5890830184612466565b60006001600160401b0382111561257557612575611ed8565b5060051b60200190565b600082601f83011261259057600080fd5b8151602061259d8261255c565b604080516125ab8382611f51565b84815260a094850287018401948482019350888611156125ca57600080fd5b8488015b8681101561264a5781818b0312156125e65760008081fd5b83516125f181611f32565b81516125fc81612071565b81528187015161260b81611b03565b818801528185015161261c81611b03565b8186015260608281015161262f81611b03565b908201526080828101519082015285529385019381016125ce565b509098975050505050505050565b60006020828403121561266a57600080fd5b81516001600160401b0381111561268057600080fd5b611d588482850161257f565b84815261269c6020820185612154565b60a0606082015260006126b260a0830185612466565b8281036080840152611af88185611c4e565b6000602082840312156126d657600080fd5b815180151581146119cc57600080fd5b6001600160a01b0384168152604060208201819052600090611e77908301848661243d565b60006040828403121561271d57600080fd5b60405161272981611eee565b80915082516001600160401b038082111561274357600080fd5b818501915085601f83011261275757600080fd5b815160206127648261255c565b6040516127718282611f51565b83815260059390931b850182019282810191508984111561279157600080fd5b948201945b838610156127b85785516127a981611b03565b82529482019490820190612796565b865250868101519350828411156127ce57600080fd5b6127da8885890161257f565b81860152505050505092915050565b600080604083850312156127fc57600080fd5b825161280781611b03565b60208401519092506001600160401b0381111561282357600080fd5b611bce8582860161270b565b86815261283f6020820187612154565b60c06060820152600061285660c08301868861243d565b6001600160a01b038516608084015282810360a084015261252b8185611ca1565b60006020828403121561288957600080fd5b81356119cc81611f7d565b6000602082840312156128a657600080fd5b81356119cc81611f8c565b608081016128bf8285612154565b6119cc6040830184612154565b6000604082840312156128de57600080fd5b6119cc8383611f9c565b6000602082840312156128fa57600080fd5b81516119cc81612071565b6001600160a01b038416815261ffff83166020820152606060408201819052600090611e7790830184612466565b6000806040838503121561294657600080fd5b82516001600160401b038082111561295d57600080fd5b6129698683870161219f565b9350602085015191508082111561297f57600080fd5b50611bce8582860161270b565b6001600160a01b03858116825284166020820152604081018390526080606082018190526000906129bf90830184611e26565b9695505050505050565b865160ff16815260208088015161ffff169082015260e081016001600160a01b0387166040830152606082018690526080820185905260a0820184905260048310612a1657612a16611bd8565b8260c0830152979650505050505050565b6001600160a01b0383168152604060208201819052600090611d5890830184611e26565b600060033d1115612a645760046000803e5060005160e01c5b90565b600060443d1015612a755790565b6040516003193d81016004833e81513d6001600160401b038160248401118184111715612aa457505050505090565b8285019150815181811115612abc5750505050505090565b843d8701016020828501011115612ad65750505050505090565b612ae560208286010187611f51565b509095945050505050565b6020815260006119cc6020830184611e26565b6001600160a01b03848116825283166020820152606060408201819052600090611e7790830184611e26565b6020808252825182820181905260009190848201906040850190845b81811015612b705783516001600160a01b031683529284019291840191600101612b4b565b50909695505050505050565b858152612b8c6020820186612154565b60c060608201526000612ba260c0830186612466565b8281036080840152612bb48186611ca1565b905082810360a0840152612bc88185611e26565b9897505050505050505056fea2646970667358221220c339a155e5d7e48633b37c9ee82c841d6022e2798fb6acca8ce445dbf28b6d4364736f6c63430008110033",
  "devdoc": {
    "author": "Aragon Association - 2022-2023",
    "details": "This contract is temporarily granted the `ROOT_PERMISSION_ID` permission on the applying DAO and therefore is highly security critical.",
    "errors": {
      "IPluginNotSupported(address)": [
        {
          "params": {
            "plugin": "The address of the contract."
          }
        }
      ],
      "InvalidAppliedSetupId(bytes32,bytes32)": [
        {
          "params": {
            "appliedSetupId": "The applied setup ID obtained from the data in the supplied setup payload.",
            "currentAppliedSetupId": "The current applied setup ID with which the data in the supplied payload must match."
          }
        }
      ],
      "InvalidUpdateVersion((uint8,uint16),(uint8,uint16))": [
        {
          "params": {
            "currentVersionTag": "The tag of the current version to update from.",
            "newVersionTag": "The tag of the new version to update to."
          }
        }
      ],
      "PluginNonupgradeable(address)": [
        {
          "params": {
            "plugin": "The address of the plugin contract."
          }
        }
      ],
      "PluginProxyUpgradeFailed(address,address,bytes)": [
        {
          "params": {
            "implementation": "The address of the implementation contract.",
            "initData": "The initialization data to be passed to the upgradeable plugin contract via `upgradeToAndCall`.",
            "proxy": "The address of the proxy."
          }
        }
      ],
      "SetupAlreadyPrepared(bytes32)": [
        {
          "params": {
            "preparedSetupId": "The prepared setup ID."
          }
        }
      ],
      "SetupApplicationUnauthorized(address,address,bytes32)": [
        {
          "details": "This is thrown if the `APPLY_INSTALLATION_PERMISSION_ID`, `APPLY_UPDATE_PERMISSION_ID`, or APPLY_UNINSTALLATION_PERMISSION_ID is missing.",
          "params": {
            "caller": "The address (EOA or contract) that requested the application of a setup on the associated DAO.",
            "dao": "The address of the DAO to which the plugin belongs.",
            "permissionId": "The permission identifier."
          }
        }
      ],
      "SetupNotApplicable(bytes32)": [
        {
          "params": {
            "preparedSetupId": "The prepared setup ID."
          }
        }
      ]
    },
    "events": {
      "InstallationApplied(address,address,bytes32,bytes32)": {
        "params": {
          "appliedSetupId": "The applied setup ID.",
          "dao": "The address of the DAO to which the plugin belongs.",
          "plugin": "The address of the plugin contract.",
          "preparedSetupId": "The prepared setup ID."
        }
      },
      "InstallationPrepared(address,address,bytes32,address,(uint8,uint16),bytes,address,(address[],(uint8,address,address,address,bytes32)[]))": {
        "params": {
          "dao": "The address of the DAO to which the plugin belongs.",
          "data": "The bytes-encoded data containing the input parameters for the preparation as specified in the corresponding ABI on the version's metadata.",
          "plugin": "The address of the plugin contract.",
          "pluginSetupRepo": "The repository storing the `PluginSetup` contracts of all versions of a plugin.",
          "preparedSetupData": "The deployed plugin's relevant data which consists of helpers and permissions.",
          "preparedSetupId": "The prepared setup ID obtained from the supplied data.",
          "sender": "The sender that prepared the plugin installation.",
          "versionTag": "The version tag of the plugin setup of the prepared installation."
        }
      },
      "UninstallationApplied(address,address,bytes32)": {
        "params": {
          "dao": "The address of the DAO to which the plugin belongs.",
          "plugin": "The address of the plugin contract.",
          "preparedSetupId": "The prepared setup ID."
        }
      },
      "UninstallationPrepared(address,address,bytes32,address,(uint8,uint16),(address,address[],bytes),(uint8,address,address,address,bytes32)[])": {
        "params": {
          "dao": "The address of the DAO to which the plugin belongs.",
          "permissions": "The list of multi-targeted permission operations to be applied to the installing DAO.",
          "pluginSetupRepo": "The repository storing the `PluginSetup` contracts of all versions of a plugin.",
          "preparedSetupId": "The prepared setup ID.",
          "sender": "The sender that prepared the plugin uninstallation.",
          "setupPayload": "The payload containing the plugin and helper contract addresses deployed in a preparation step as well as optional data to be consumed by the plugin setup.",
          "versionTag": "The version tag of the plugin to used for install preparation."
        }
      },
      "UpdateApplied(address,address,bytes32,bytes32)": {
        "params": {
          "appliedSetupId": "The applied setup ID.",
          "dao": "The address of the DAO to which the plugin belongs.",
          "plugin": "The address of the plugin contract.",
          "preparedSetupId": "The prepared setup ID."
        }
      },
      "UpdatePrepared(address,address,bytes32,address,(uint8,uint16),(address,address[],bytes),(address[],(uint8,address,address,address,bytes32)[]),bytes)": {
        "params": {
          "dao": "The address of the DAO to which the plugin belongs.",
          "initData": "The initialization data to be passed to the upgradeable plugin contract.",
          "pluginSetupRepo": "The repository storing the `PluginSetup` contracts of all versions of a plugin.",
          "preparedSetupData": "The deployed plugin's relevant data which consists of helpers and permissions.",
          "preparedSetupId": "The prepared setup ID.",
          "sender": "The sender that prepared the plugin update.",
          "setupPayload": "The payload containing the plugin and helper contract addresses deployed in a preparation step as well as optional data to be consumed by the plugin setup.",
          "versionTag": "The version tag of the plugin setup of the prepared update."
        }
      }
    },
    "kind": "dev",
    "methods": {
      "applyInstallation(address,(((uint8,uint16),address),address,(uint8,address,address,address,bytes32)[],bytes32))": {
        "params": {
          "_dao": "The address of the installing DAO.",
          "_params": "The struct containing the parameters for the `applyInstallation` function."
        }
      },
      "applyUninstallation(address,(address,((uint8,uint16),address),(uint8,address,address,address,bytes32)[]))": {
        "details": "The list of `_params.setupPayload.currentHelpers` has to be specified in the same order as they were returned from previous setups preparation steps (the latest `prepareInstallation` or `prepareUpdate` step that has happend) on which the uninstallation was prepared for.",
        "params": {
          "_dao": "The address of the uninstalling DAO.",
          "_params": "The struct containing the parameters for the `applyUninstallation` function."
        }
      },
      "applyUpdate(address,(address,((uint8,uint16),address),bytes,(uint8,address,address,address,bytes32)[],bytes32))": {
        "params": {
          "_dao": "The address of the updating DAO.",
          "_params": "The struct containing the parameters for the `applyInstallation` function."
        }
      },
      "constructor": {
        "params": {
          "_repoRegistry": "The plugin repo registry contract."
        }
      },
      "prepareInstallation(address,(((uint8,uint16),address),bytes))": {
        "params": {
          "_dao": "The address of the installing DAO.",
          "_params": "The struct containing the parameters for the `prepareInstallation` function."
        },
        "returns": {
          "plugin": "The prepared plugin contract address.",
          "preparedSetupData": "The data struct containing the array of helper contracts and permissions that the setup has prepared."
        }
      },
      "prepareUninstallation(address,(((uint8,uint16),address),(address,address[],bytes)))": {
        "details": "The list of `_params.setupPayload.currentHelpers` has to be specified in the same order as they were returned from previous setups preparation steps (the latest `prepareInstallation` or `prepareUpdate` step that has happend) on which the uninstallation was prepared for.",
        "params": {
          "_dao": "The address of the uninstalling DAO.",
          "_params": "The struct containing the parameters for the `prepareUninstallation` function."
        },
        "returns": {
          "permissions": "The list of multi-targeted permission operations to be applied to the uninstalling DAO."
        }
      },
      "prepareUpdate(address,((uint8,uint16),(uint8,uint16),address,(address,address[],bytes)))": {
        "details": "The list of `_params.setupPayload.currentHelpers` has to be specified in the same order as they were returned from previous setups preparation steps (the latest `prepareInstallation` or `prepareUpdate` step that has happend) on which the update is prepared for.",
        "params": {
          "_dao": "The address of the DAO For which preparation of update happens.",
          "_params": "The struct containing the parameters for the `prepareUpdate` function."
        },
        "returns": {
          "initData": "The initialization data to be passed to upgradeable contracts when the update is applied",
          "preparedSetupData": "The data struct containing the array of helper contracts and permissions that the setup has prepared."
        }
      },
      "validatePreparedSetupId(bytes32,bytes32)": {
        "details": "If the block number stored in `states[pluginInstallationId].blockNumber` exceeds the one stored in `pluginState.preparedSetupIdToBlockNumber[preparedSetupId]`, the prepared setup with `preparedSetupId` is outdated and not applicable anymore.",
        "params": {
          "pluginInstallationId": "The plugin installation ID obtained from the hash of `abi.encode(daoAddress, pluginAddress)`.",
          "preparedSetupId": "The prepared setup ID to be validated."
        }
      }
    },
    "stateVariables": {
      "EMPTY_ARRAY_HASH": {
        "details": "The hash is computed via `keccak256(abi.encode([]))`."
      },
      "ZERO_BYTES_HASH": {
        "details": "The hash is computed via `keccak256(abi.encode(0))`."
      },
      "states": {
        "details": "This variable is public on purpose to allow future versions to access and migrate the storage."
      }
    },
    "title": "PluginSetupProcessor",
    "version": 1
  },
  "userdoc": {
    "errors": {
      "IPluginNotSupported(address)": [
        {
          "notice": "Thrown if a contract does not support the `IPlugin` interface."
        }
      ],
      "InvalidAppliedSetupId(bytes32,bytes32)": [
        {
          "notice": "Thrown if the applied setup ID resulting from the supplied setup payload does not match with the current applied setup ID."
        }
      ],
      "InvalidUpdateVersion((uint8,uint16),(uint8,uint16))": [
        {
          "notice": "Thrown if the update version is invalid."
        }
      ],
      "PluginAlreadyInstalled()": [
        {
          "notice": "Thrown if plugin is already installed and one tries to prepare or apply install on it."
        }
      ],
      "PluginNonupgradeable(address)": [
        {
          "notice": "Thrown if a plugin is not upgradeable."
        }
      ],
      "PluginProxyUpgradeFailed(address,address,bytes)": [
        {
          "notice": "Thrown if the upgrade of an `UUPSUpgradeable` proxy contract (see [ERC-1822](https://eips.ethereum.org/EIPS/eip-1822)) failed."
        }
      ],
      "PluginRepoNonexistent()": [
        {
          "notice": "Thrown if a plugin repository does not exist on the plugin repo registry."
        }
      ],
      "SetupAlreadyPrepared(bytes32)": [
        {
          "notice": "Thrown if a plugin setup was already prepared indicated by the prepared setup ID."
        }
      ],
      "SetupApplicationUnauthorized(address,address,bytes32)": [
        {
          "notice": "Thrown if a setup is unauthorized and cannot be applied because of a missing permission of the associated DAO."
        }
      ],
      "SetupNotApplicable(bytes32)": [
        {
          "notice": "Thrown if a prepared setup ID is not eligible to be applied. This can happen if another setup has been already applied or if the setup wasn't prepared in the first place."
        }
      ]
    },
    "events": {
      "InstallationApplied(address,address,bytes32,bytes32)": {
        "notice": "Emitted after a plugin installation was applied."
      },
      "InstallationPrepared(address,address,bytes32,address,(uint8,uint16),bytes,address,(address[],(uint8,address,address,address,bytes32)[]))": {
        "notice": "Emitted with a prepared plugin installation to store data relevant for the application step."
      },
      "UninstallationApplied(address,address,bytes32)": {
        "notice": "Emitted after a plugin installation was applied."
      },
      "UninstallationPrepared(address,address,bytes32,address,(uint8,uint16),(address,address[],bytes),(uint8,address,address,address,bytes32)[])": {
        "notice": "Emitted with a prepared plugin uninstallation to store data relevant for the application step."
      },
      "UpdateApplied(address,address,bytes32,bytes32)": {
        "notice": "Emitted after a plugin update was applied."
      },
      "UpdatePrepared(address,address,bytes32,address,(uint8,uint16),(address,address[],bytes),(address[],(uint8,address,address,address,bytes32)[]),bytes)": {
        "notice": "Emitted with a prepared plugin update to store data relevant for the application step."
      }
    },
    "kind": "user",
    "methods": {
      "APPLY_INSTALLATION_PERMISSION_ID()": {
        "notice": "The ID of the permission required to call the `applyInstallation` function."
      },
      "APPLY_UNINSTALLATION_PERMISSION_ID()": {
        "notice": "The ID of the permission required to call the `applyUninstallation` function."
      },
      "APPLY_UPDATE_PERMISSION_ID()": {
        "notice": "The ID of the permission required to call the `applyUpdate` function."
      },
      "applyInstallation(address,(((uint8,uint16),address),address,(uint8,address,address,address,bytes32)[],bytes32))": {
        "notice": "Applies the permissions of a prepared installation to a DAO."
      },
      "applyUninstallation(address,(address,((uint8,uint16),address),(uint8,address,address,address,bytes32)[]))": {
        "notice": "Applies the permissions of a prepared uninstallation to a DAO."
      },
      "applyUpdate(address,(address,((uint8,uint16),address),bytes,(uint8,address,address,address,bytes32)[],bytes32))": {
        "notice": "Applies the permissions of a prepared update of an UUPS upgradeable proxy contract to a DAO."
      },
      "constructor": {
        "notice": "Constructs the plugin setup processor by setting the associated plugin repo registry."
      },
      "prepareInstallation(address,(((uint8,uint16),address),bytes))": {
        "notice": "Prepares the installation of a plugin."
      },
      "prepareUninstallation(address,(((uint8,uint16),address),(address,address[],bytes)))": {
        "notice": "Prepares the uninstallation of a plugin."
      },
      "prepareUpdate(address,((uint8,uint16),(uint8,uint16),address,(address,address[],bytes)))": {
        "notice": "Prepares the update of an UUPS upgradeable plugin."
      },
      "repoRegistry()": {
        "notice": "The plugin repo registry listing the `PluginRepo` contracts versioning the `PluginSetup` contracts."
      },
      "states(bytes32)": {
        "notice": "A mapping between the plugin installation ID (obtained from the DAO and plugin address) and the plugin state information."
      },
      "validatePreparedSetupId(bytes32,bytes32)": {
        "notice": "Validates that a setup ID can be applied for `applyInstallation`, `applyUpdate`, or `applyUninstallation`."
      }
    },
    "notice": "This contract processes the preparation and application of plugin setups (installation, update, uninstallation) on behalf of a requesting DAO.",
    "version": 1
  },
  "storageLayout": {
    "storage": [
      {
        "astId": 26254,
        "contract": "src/framework/plugin/setup/PluginSetupProcessor.sol:PluginSetupProcessor",
        "label": "states",
        "offset": 0,
        "slot": "0",
        "type": "t_mapping(t_bytes32,t_struct(PluginState)26248_storage)"
      },
      {
        "astId": 26320,
        "contract": "src/framework/plugin/setup/PluginSetupProcessor.sol:PluginSetupProcessor",
        "label": "repoRegistry",
        "offset": 0,
        "slot": "1",
        "type": "t_contract(PluginRepoRegistry)26032"
      }
    ],
    "types": {
      "t_bytes32": {
        "encoding": "inplace",
        "label": "bytes32",
        "numberOfBytes": "32"
      },
      "t_contract(PluginRepoRegistry)26032": {
        "encoding": "inplace",
        "label": "contract PluginRepoRegistry",
        "numberOfBytes": "20"
      },
      "t_mapping(t_bytes32,t_struct(PluginState)26248_storage)": {
        "encoding": "mapping",
        "key": "t_bytes32",
        "label": "mapping(bytes32 => struct PluginSetupProcessor.PluginState)",
        "numberOfBytes": "32",
        "value": "t_struct(PluginState)26248_storage"
      },
      "t_mapping(t_bytes32,t_uint256)": {
        "encoding": "mapping",
        "key": "t_bytes32",
        "label": "mapping(bytes32 => uint256)",
        "numberOfBytes": "32",
        "value": "t_uint256"
      },
      "t_struct(PluginState)26248_storage": {
        "encoding": "inplace",
        "label": "struct PluginSetupProcessor.PluginState",
        "members": [
          {
            "astId": 26241,
            "contract": "src/framework/plugin/setup/PluginSetupProcessor.sol:PluginSetupProcessor",
            "label": "blockNumber",
            "offset": 0,
            "slot": "0",
            "type": "t_uint256"
          },
          {
            "astId": 26243,
            "contract": "src/framework/plugin/setup/PluginSetupProcessor.sol:PluginSetupProcessor",
            "label": "currentAppliedSetupId",
            "offset": 0,
            "slot": "1",
            "type": "t_bytes32"
          },
          {
            "astId": 26247,
            "contract": "src/framework/plugin/setup/PluginSetupProcessor.sol:PluginSetupProcessor",
            "label": "preparedSetupIdToBlockNumber",
            "offset": 0,
            "slot": "2",
            "type": "t_mapping(t_bytes32,t_uint256)"
          }
        ],
        "numberOfBytes": "96"
      },
      "t_uint256": {
        "encoding": "inplace",
        "label": "uint256",
        "numberOfBytes": "32"
      }
    }
  }
}