{
  "address": "0xc652c3864DDc48F7166fD801c862795Fd5e858ac",
  "abi": [
    {
      "inputs": [],
      "stateMutability": "nonpayable",
      "type": "constructor"
    },
    {
      "inputs": [],
      "name": "AnyAddressDisallowedForWhoAndWhere",
      "type": "error"
    },
    {
      "inputs": [],
      "name": "ConditionNotPresentForAnyAddress",
      "type": "error"
    },
    {
      "inputs": [],
      "name": "EmptyReleaseMetadata",
      "type": "error"
    },
    {
      "inputs": [],
      "name": "InvalidPluginSetupInterface",
      "type": "error"
    },
    {
      "inputs": [
        {
          "internalType": "uint8",
          "name": "latestRelease",
          "type": "uint8"
        },
        {
          "internalType": "uint8",
          "name": "newRelease",
          "type": "uint8"
        }
      ],
      "name": "InvalidReleaseIncrement",
      "type": "error"
    },
    {
      "inputs": [
        {
          "internalType": "address",
          "name": "where",
          "type": "address"
        },
        {
          "internalType": "address",
          "name": "who",
          "type": "address"
        },
        {
          "internalType": "bytes32",
          "name": "permissionId",
          "type": "bytes32"
        },
        {
          "internalType": "address",
          "name": "currentCondition",
          "type": "address"
        },
        {
          "internalType": "address",
          "name": "newCondition",
          "type": "address"
        }
      ],
      "name": "PermissionAlreadyGrantedForDifferentCondition",
      "type": "error"
    },
    {
      "inputs": [],
      "name": "PermissionsForAnyAddressDisallowed",
      "type": "error"
    },
    {
      "inputs": [
        {
          "internalType": "uint8",
          "name": "release",
          "type": "uint8"
        },
        {
          "internalType": "uint16",
          "name": "build",
          "type": "uint16"
        },
        {
          "internalType": "address",
          "name": "pluginSetup",
          "type": "address"
        }
      ],
      "name": "PluginSetupAlreadyInPreviousRelease",
      "type": "error"
    },
    {
      "inputs": [],
      "name": "ReleaseDoesNotExist",
      "type": "error"
    },
    {
      "inputs": [],
      "name": "ReleaseZeroNotAllowed",
      "type": "error"
    },
    {
      "inputs": [
        {
          "internalType": "address",
          "name": "where",
          "type": "address"
        },
        {
          "internalType": "address",
          "name": "who",
          "type": "address"
        },
        {
          "internalType": "bytes32",
          "name": "permissionId",
          "type": "bytes32"
        }
      ],
      "name": "Unauthorized",
      "type": "error"
    },
    {
      "inputs": [
        {
          "internalType": "bytes32",
          "name": "versionHash",
          "type": "bytes32"
        }
      ],
      "name": "VersionHashDoesNotExist",
      "type": "error"
    },
    {
      "anonymous": false,
      "inputs": [
        {
          "indexed": false,
          "internalType": "address",
          "name": "previousAdmin",
          "type": "address"
        },
        {
          "indexed": false,
          "internalType": "address",
          "name": "newAdmin",
          "type": "address"
        }
      ],
      "name": "AdminChanged",
      "type": "event"
    },
    {
      "anonymous": false,
      "inputs": [
        {
          "indexed": true,
          "internalType": "address",
          "name": "beacon",
          "type": "address"
        }
      ],
      "name": "BeaconUpgraded",
      "type": "event"
    },
    {
      "anonymous": false,
      "inputs": [
        {
          "indexed": true,
          "internalType": "bytes32",
          "name": "permissionId",
          "type": "bytes32"
        },
        {
          "indexed": true,
          "internalType": "address",
          "name": "here",
          "type": "address"
        },
        {
          "indexed": false,
          "internalType": "address",
          "name": "where",
          "type": "address"
        },
        {
          "indexed": true,
          "internalType": "address",
          "name": "who",
          "type": "address"
        },
        {
          "indexed": false,
          "internalType": "contract IPermissionCondition",
          "name": "condition",
          "type": "address"
        }
      ],
      "name": "Granted",
      "type": "event"
    },
    {
      "anonymous": false,
      "inputs": [
        {
          "indexed": false,
          "internalType": "uint8",
          "name": "version",
          "type": "uint8"
        }
      ],
      "name": "Initialized",
      "type": "event"
    },
    {
      "anonymous": false,
      "inputs": [
        {
          "indexed": false,
          "internalType": "uint8",
          "name": "release",
          "type": "uint8"
        },
        {
          "indexed": false,
          "internalType": "bytes",
          "name": "releaseMetadata",
          "type": "bytes"
        }
      ],
      "name": "ReleaseMetadataUpdated",
      "type": "event"
    },
    {
      "anonymous": false,
      "inputs": [
        {
          "indexed": true,
          "internalType": "bytes32",
          "name": "permissionId",
          "type": "bytes32"
        },
        {
          "indexed": true,
          "internalType": "address",
          "name": "here",
          "type": "address"
        },
        {
          "indexed": false,
          "internalType": "address",
          "name": "where",
          "type": "address"
        },
        {
          "indexed": true,
          "internalType": "address",
          "name": "who",
          "type": "address"
        }
      ],
      "name": "Revoked",
      "type": "event"
    },
    {
      "anonymous": false,
      "inputs": [
        {
          "indexed": true,
          "internalType": "address",
          "name": "implementation",
          "type": "address"
        }
      ],
      "name": "Upgraded",
      "type": "event"
    },
    {
      "anonymous": false,
      "inputs": [
        {
          "indexed": false,
          "internalType": "uint8",
          "name": "release",
          "type": "uint8"
        },
        {
          "indexed": false,
          "internalType": "uint16",
          "name": "build",
          "type": "uint16"
        },
        {
          "indexed": true,
          "internalType": "address",
          "name": "pluginSetup",
          "type": "address"
        },
        {
          "indexed": false,
          "internalType": "bytes",
          "name": "buildMetadata",
          "type": "bytes"
        }
      ],
      "name": "VersionCreated",
      "type": "event"
    },
    {
      "inputs": [],
      "name": "MAINTAINER_PERMISSION_ID",
      "outputs": [
        {
          "internalType": "bytes32",
          "name": "",
          "type": "bytes32"
        }
      ],
      "stateMutability": "view",
      "type": "function"
    },
    {
      "inputs": [],
      "name": "ROOT_PERMISSION_ID",
      "outputs": [
        {
          "internalType": "bytes32",
          "name": "",
          "type": "bytes32"
        }
      ],
      "stateMutability": "view",
      "type": "function"
    },
    {
      "inputs": [],
      "name": "UPGRADE_REPO_PERMISSION_ID",
      "outputs": [
        {
          "internalType": "bytes32",
          "name": "",
          "type": "bytes32"
        }
      ],
      "stateMutability": "view",
      "type": "function"
    },
    {
      "inputs": [
        {
          "components": [
            {
              "internalType": "enum PermissionLib.Operation",
              "name": "operation",
              "type": "uint8"
            },
            {
              "internalType": "address",
              "name": "where",
              "type": "address"
            },
            {
              "internalType": "address",
              "name": "who",
              "type": "address"
            },
            {
              "internalType": "address",
              "name": "condition",
              "type": "address"
            },
            {
              "internalType": "bytes32",
              "name": "permissionId",
              "type": "bytes32"
            }
          ],
          "internalType": "struct PermissionLib.MultiTargetPermission[]",
          "name": "_items",
          "type": "tuple[]"
        }
      ],
      "name": "applyMultiTargetPermissions",
      "outputs": [],
      "stateMutability": "nonpayable",
      "type": "function"
    },
    {
      "inputs": [
        {
          "internalType": "address",
          "name": "_where",
          "type": "address"
        },
        {
          "components": [
            {
              "internalType": "enum PermissionLib.Operation",
              "name": "operation",
              "type": "uint8"
            },
            {
              "internalType": "address",
              "name": "who",
              "type": "address"
            },
            {
              "internalType": "bytes32",
              "name": "permissionId",
              "type": "bytes32"
            }
          ],
          "internalType": "struct PermissionLib.SingleTargetPermission[]",
          "name": "items",
          "type": "tuple[]"
        }
      ],
      "name": "applySingleTargetPermissions",
      "outputs": [],
      "stateMutability": "nonpayable",
      "type": "function"
    },
    {
      "inputs": [
        {
          "internalType": "uint8",
          "name": "_release",
          "type": "uint8"
        }
      ],
      "name": "buildCount",
      "outputs": [
        {
          "internalType": "uint256",
          "name": "",
          "type": "uint256"
        }
      ],
      "stateMutability": "view",
      "type": "function"
    },
    {
      "inputs": [
        {
          "internalType": "uint8",
          "name": "_release",
          "type": "uint8"
        },
        {
          "internalType": "address",
          "name": "_pluginSetup",
          "type": "address"
        },
        {
          "internalType": "bytes",
          "name": "_buildMetadata",
          "type": "bytes"
        },
        {
          "internalType": "bytes",
          "name": "_releaseMetadata",
          "type": "bytes"
        }
      ],
      "name": "createVersion",
      "outputs": [],
      "stateMutability": "nonpayable",
      "type": "function"
    },
    {
      "inputs": [
        {
          "internalType": "address",
          "name": "_pluginSetup",
          "type": "address"
        }
      ],
      "name": "getLatestVersion",
      "outputs": [
        {
          "components": [
            {
              "components": [
                {
                  "internalType": "uint8",
                  "name": "release",
                  "type": "uint8"
                },
                {
                  "internalType": "uint16",
                  "name": "build",
                  "type": "uint16"
                }
              ],
              "internalType": "struct PluginRepo.Tag",
              "name": "tag",
              "type": "tuple"
            },
            {
              "internalType": "address",
              "name": "pluginSetup",
              "type": "address"
            },
            {
              "internalType": "bytes",
              "name": "buildMetadata",
              "type": "bytes"
            }
          ],
          "internalType": "struct PluginRepo.Version",
          "name": "",
          "type": "tuple"
        }
      ],
      "stateMutability": "view",
      "type": "function"
    },
    {
      "inputs": [
        {
          "internalType": "uint8",
          "name": "_release",
          "type": "uint8"
        }
      ],
      "name": "getLatestVersion",
      "outputs": [
        {
          "components": [
            {
              "components": [
                {
                  "internalType": "uint8",
                  "name": "release",
                  "type": "uint8"
                },
                {
                  "internalType": "uint16",
                  "name": "build",
                  "type": "uint16"
                }
              ],
              "internalType": "struct PluginRepo.Tag",
              "name": "tag",
              "type": "tuple"
            },
            {
              "internalType": "address",
              "name": "pluginSetup",
              "type": "address"
            },
            {
              "internalType": "bytes",
              "name": "buildMetadata",
              "type": "bytes"
            }
          ],
          "internalType": "struct PluginRepo.Version",
          "name": "",
          "type": "tuple"
        }
      ],
      "stateMutability": "view",
      "type": "function"
    },
    {
      "inputs": [
        {
          "internalType": "bytes32",
          "name": "_tagHash",
          "type": "bytes32"
        }
      ],
      "name": "getVersion",
      "outputs": [
        {
          "components": [
            {
              "components": [
                {
                  "internalType": "uint8",
                  "name": "release",
                  "type": "uint8"
                },
                {
                  "internalType": "uint16",
                  "name": "build",
                  "type": "uint16"
                }
              ],
              "internalType": "struct PluginRepo.Tag",
              "name": "tag",
              "type": "tuple"
            },
            {
              "internalType": "address",
              "name": "pluginSetup",
              "type": "address"
            },
            {
              "internalType": "bytes",
              "name": "buildMetadata",
              "type": "bytes"
            }
          ],
          "internalType": "struct PluginRepo.Version",
          "name": "",
          "type": "tuple"
        }
      ],
      "stateMutability": "view",
      "type": "function"
    },
    {
      "inputs": [
        {
          "components": [
            {
              "internalType": "uint8",
              "name": "release",
              "type": "uint8"
            },
            {
              "internalType": "uint16",
              "name": "build",
              "type": "uint16"
            }
          ],
          "internalType": "struct PluginRepo.Tag",
          "name": "_tag",
          "type": "tuple"
        }
      ],
      "name": "getVersion",
      "outputs": [
        {
          "components": [
            {
              "components": [
                {
                  "internalType": "uint8",
                  "name": "release",
                  "type": "uint8"
                },
                {
                  "internalType": "uint16",
                  "name": "build",
                  "type": "uint16"
                }
              ],
              "internalType": "struct PluginRepo.Tag",
              "name": "tag",
              "type": "tuple"
            },
            {
              "internalType": "address",
              "name": "pluginSetup",
              "type": "address"
            },
            {
              "internalType": "bytes",
              "name": "buildMetadata",
              "type": "bytes"
            }
          ],
          "internalType": "struct PluginRepo.Version",
          "name": "",
          "type": "tuple"
        }
      ],
      "stateMutability": "view",
      "type": "function"
    },
    {
      "inputs": [
        {
          "internalType": "address",
          "name": "_where",
          "type": "address"
        },
        {
          "internalType": "address",
          "name": "_who",
          "type": "address"
        },
        {
          "internalType": "bytes32",
          "name": "_permissionId",
          "type": "bytes32"
        }
      ],
      "name": "grant",
      "outputs": [],
      "stateMutability": "nonpayable",
      "type": "function"
    },
    {
      "inputs": [
        {
          "internalType": "address",
          "name": "_where",
          "type": "address"
        },
        {
          "internalType": "address",
          "name": "_who",
          "type": "address"
        },
        {
          "internalType": "bytes32",
          "name": "_permissionId",
          "type": "bytes32"
        },
        {
          "internalType": "contract IPermissionCondition",
          "name": "_condition",
          "type": "address"
        }
      ],
      "name": "grantWithCondition",
      "outputs": [],
      "stateMutability": "nonpayable",
      "type": "function"
    },
    {
      "inputs": [
        {
          "internalType": "address",
          "name": "initialOwner",
          "type": "address"
        }
      ],
      "name": "initialize",
      "outputs": [],
      "stateMutability": "nonpayable",
      "type": "function"
    },
    {
      "inputs": [
        {
          "internalType": "address",
          "name": "_where",
          "type": "address"
        },
        {
          "internalType": "address",
          "name": "_who",
          "type": "address"
        },
        {
          "internalType": "bytes32",
          "name": "_permissionId",
          "type": "bytes32"
        },
        {
          "internalType": "bytes",
          "name": "_data",
          "type": "bytes"
        }
      ],
      "name": "isGranted",
      "outputs": [
        {
          "internalType": "bool",
          "name": "",
          "type": "bool"
        }
      ],
      "stateMutability": "view",
      "type": "function"
    },
    {
      "inputs": [],
      "name": "latestRelease",
      "outputs": [
        {
          "internalType": "uint8",
          "name": "",
          "type": "uint8"
        }
      ],
      "stateMutability": "view",
      "type": "function"
    },
    {
      "inputs": [],
      "name": "proxiableUUID",
      "outputs": [
        {
          "internalType": "bytes32",
          "name": "",
          "type": "bytes32"
        }
      ],
      "stateMutability": "view",
      "type": "function"
    },
    {
      "inputs": [
        {
          "internalType": "address",
          "name": "_where",
          "type": "address"
        },
        {
          "internalType": "address",
          "name": "_who",
          "type": "address"
        },
        {
          "internalType": "bytes32",
          "name": "_permissionId",
          "type": "bytes32"
        }
      ],
      "name": "revoke",
      "outputs": [],
      "stateMutability": "nonpayable",
      "type": "function"
    },
    {
      "inputs": [
        {
          "internalType": "bytes4",
          "name": "_interfaceId",
          "type": "bytes4"
        }
      ],
      "name": "supportsInterface",
      "outputs": [
        {
          "internalType": "bool",
          "name": "",
          "type": "bool"
        }
      ],
      "stateMutability": "view",
      "type": "function"
    },
    {
      "inputs": [
        {
          "internalType": "uint8",
          "name": "_release",
          "type": "uint8"
        },
        {
          "internalType": "bytes",
          "name": "_releaseMetadata",
          "type": "bytes"
        }
      ],
      "name": "updateReleaseMetadata",
      "outputs": [],
      "stateMutability": "nonpayable",
      "type": "function"
    },
    {
      "inputs": [
        {
          "internalType": "address",
          "name": "newImplementation",
          "type": "address"
        }
      ],
      "name": "upgradeTo",
      "outputs": [],
      "stateMutability": "nonpayable",
      "type": "function"
    },
    {
      "inputs": [
        {
          "internalType": "address",
          "name": "newImplementation",
          "type": "address"
        },
        {
          "internalType": "bytes",
          "name": "data",
          "type": "bytes"
        }
      ],
      "name": "upgradeToAndCall",
      "outputs": [],
      "stateMutability": "payable",
      "type": "function"
    }
  ],
  "numDeployments": 1,
  "solcInputHash": "f97dc15e6d1f74cd3e4f0c0726ba97cc",
  "bytecode": "0x60a0604052306080523480156200001557600080fd5b506200002062000026565b620000e8565b600054610100900460ff1615620000935760405162461bcd60e51b815260206004820152602760248201527f496e697469616c697a61626c653a20636f6e747261637420697320696e697469604482015266616c697a696e6760c81b606482015260840160405180910390fd5b60005460ff9081161015620000e6576000805460ff191660ff9081179091556040519081527f7f26b83ff96e1f2b6a682f133852f6798a09c465da95921460cefb38474024989060200160405180910390a15b565b6080516125a5620001206000396000818161067a015281816106c301528181610762015281816107a2015261085f01526125a56000f3fe6080604052600436106101355760003560e01c80639af3e909116100ab578063d68bad2c1161006f578063d68bad2c14610378578063d96054c414610398578063df1d6c44146103b8578063e0589bd3146103ec578063e978afe51461040c578063fc0544271461042c57600080fd5b80639af3e909146102c2578063afe5eb78146102e2578063c4d66de814610304578063c9dbc2a414610324578063cc98b8f51461034457600080fd5b80633659cfe6116100fd5780633659cfe6146102015780634f1ef2861461022157806350abe9101461023457806352d1902d146102615780637be0ca5e146102765780639aaf9f08146102a257600080fd5b806301ffc9a71461013a57806309e56b141461016f57806322844d041461019f5780632675fdd0146101c157806328375f67146101e1575b600080fd5b34801561014657600080fd5b5061015a610155366004611a9b565b61044c565b60405190151581526020015b60405180910390f35b34801561017b57600080fd5b5061019160008051602061255083398151915281565b604051908152602001610166565b3480156101ab57600080fd5b506101bf6101ba366004611ada565b61049e565b005b3480156101cd57600080fd5b5061015a6101dc366004611c05565b61055c565b3480156101ed57600080fd5b506101bf6101fc366004611cd0565b6105a7565b34801561020d57600080fd5b506101bf61021c366004611d23565b610670565b6101bf61022f366004611d40565b610758565b34801561024057600080fd5b5061025461024f366004611d23565b610828565b6040516101669190611de0565b34801561026d57600080fd5b50610191610852565b34801561028257600080fd5b5060cc546102909060ff1681565b60405160ff9091168152602001610166565b3480156102ae57600080fd5b506102546102bd366004611e2b565b610905565b3480156102ce57600080fd5b506102546102dd366004611e44565b610a23565b3480156102ee57600080fd5b5061019160008051602061250983398151915281565b34801561031057600080fd5b506101bf61031f366004611d23565b610a45565b34801561033057600080fd5b506101bf61033f366004611e5c565b610b9b565b34801561035057600080fd5b506101917f5aa4f06bdc18535eff05128093a2315c2c960a2722e20021cbff28da04760f5b81565b34801561038457600080fd5b506101bf610393366004611eaf565b610bbf565b3480156103a457600080fd5b506101bf6103b3366004611eaf565b610be8565b3480156103c457600080fd5b506101916103d3366004611ef0565b60ff16600090815260c9602052604090205461ffff1690565b3480156103f857600080fd5b50610254610407366004611ef0565b610c0b565b34801561041857600080fd5b506101bf610427366004611f0b565b610c55565b34801561043857600080fd5b506101bf610447366004611f80565b610d4a565b60006001600160e01b03198216630350c86d60e61b148061047d57506001600160e01b03198216632b96ad4d60e01b145b8061049857506301ffc9a760e01b6001600160e01b03198316145b92915050565b6000805160206125508339815191526104b6816110a8565b60005b828110156105555760008484838181106104d5576104d5612013565b9050606002018036038101906104eb9190612038565b9050600081516002811115610502576105026120a1565b0361051f5761051a8682602001518360400151611117565b61054c565b600181516002811115610534576105346120a1565b0361054c5761054c8682602001518360400151611129565b506001016104b9565b5050505050565b600061056a858585856111bd565b806105835750610583856001600160a01b0385856111bd565b8061059c575061059c6001600160a01b038585856111bd565b90505b949350505050565b6000805160206125098339815191526105bf816110a8565b8360ff166000036105e357604051633b7a97fd60e11b815260040160405180910390fd5b60cc5460ff908116908516111561060d576040516311c6e3ab60e01b815260040160405180910390fd5b600082900361062f576040516388bc3fe760e01b815260040160405180910390fd5b7f8ff94c32efcef376eb02508cba5536e0634c1d6ad4b51ffa0f7306c78edaf5f7848484604051610662939291906120e0565b60405180910390a150505050565b6001600160a01b037f00000000000000000000000000000000000000000000000000000000000000001630036106c15760405162461bcd60e51b81526004016106b8906120fd565b60405180910390fd5b7f00000000000000000000000000000000000000000000000000000000000000006001600160a01b031661070a6000805160206124e9833981519152546001600160a01b031690565b6001600160a01b0316146107305760405162461bcd60e51b81526004016106b890612149565b610739816112a5565b60408051600080825260208201909252610755918391906112cf565b50565b6001600160a01b037f00000000000000000000000000000000000000000000000000000000000000001630036107a05760405162461bcd60e51b81526004016106b8906120fd565b7f00000000000000000000000000000000000000000000000000000000000000006001600160a01b03166107e96000805160206124e9833981519152546001600160a01b031690565b6001600160a01b03161461080f5760405162461bcd60e51b81526004016106b890612149565b610818826112a5565b610824828260016112cf565b5050565b610830611a69565b6001600160a01b038216600090815260cb602052604090205461049890610905565b6000306001600160a01b037f000000000000000000000000000000000000000000000000000000000000000016146108f25760405162461bcd60e51b815260206004820152603860248201527f555550535570677261646561626c653a206d757374206e6f742062652063616c60448201527f6c6564207468726f7567682064656c656761746563616c6c000000000000000060648201526084016106b8565b506000805160206124e983398151915290565b61090d611a69565b600082815260ca602052604081208054909160ff909116900361094657604051638d0aeeb160e01b8152600481018490526024016106b8565b6040805160a081018252825460ff81166060830190815261010090910461ffff166080830152815260018301546001600160a01b0316602082015260028301805491928492908401919061099990612195565b80601f01602080910402602001604051908101604052809291908181526020018280546109c590612195565b8015610a125780601f106109e757610100808354040283529160200191610a12565b820191906000526020600020905b8154815290600101906020018083116109f557829003601f168201915b505050505081525050915050919050565b610a2b611a69565b6104986102bd610a40368590038501856121c9565b61143a565b600054610100900460ff1615808015610a655750600054600160ff909116105b80610a7f5750303b158015610a7f575060005460ff166001145b610ae25760405162461bcd60e51b815260206004820152602e60248201527f496e697469616c697a61626c653a20636f6e747261637420697320616c72656160448201526d191e481a5b9a5d1a585b1a5e995960921b60648201526084016106b8565b6000805460ff191660011790558015610b05576000805461ff0019166101001790555b610b0e82611499565b610b273083600080516020612509833981519152611117565b610b5230837f5aa4f06bdc18535eff05128093a2315c2c960a2722e20021cbff28da04760f5b611117565b8015610824576000805461ff0019169055604051600181527f7f26b83ff96e1f2b6a682f133852f6798a09c465da95921460cefb38474024989060200160405180910390a15050565b600080516020612550833981519152610bb3816110a8565b6105558585858561150d565b600080516020612550833981519152610bd7816110a8565b610be2848484611117565b50505050565b600080516020612550833981519152610c00816110a8565b610be2848484611129565b610c13611a69565b60ff8216600081815260c9602090815260409182902054825180840190935292825261ffff909216918101829052610c4e906102bd9061143a565b9392505050565b600080516020612550833981519152610c6d816110a8565b60005b82811015610be2576000848483818110610c8c57610c8c612013565b905060a00201803603810190610ca2919061222d565b9050600081516002811115610cb957610cb96120a1565b03610cda57610cd5816020015182604001518360800151611117565b610d41565b600181516002811115610cef57610cef6120a1565b03610d0b57610cd5816020015182604001518360800151611129565b600281516002811115610d2057610d206120a1565b03610d4157610d41816020015182604001518360800151846060015161150d565b50600101610c70565b600080516020612509833981519152610d62816110a8565b610d7c6001600160a01b03871663099718b560e41b6116e0565b610d9957604051639d145ceb60e01b815260040160405180910390fd5b8660ff16600003610dbd57604051633b7a97fd60e11b815260040160405180910390fd5b60cc54600190610dd09060ff16896122d2565b60ff161115610e035760cc546040516353db7b7b60e01b815260ff918216600482015290881660248201526044016106b8565b60cc5460ff9081169088161115610e455760cc805460ff191660ff89161790556000829003610e45576040516388bc3fe760e01b815260040160405180910390fd5b6001600160a01b038616600090815260cb6020908152604080832054835260ca9091529020805460ff1615801590610e845750805460ff898116911614155b15610eca57805460405160016218326360e21b0319815260ff8216600482015261010090910461ffff1660248201526001600160a01b03881660448201526064016106b8565b60ff8816600090815260c96020526040812080548290610eed9061ffff166122eb565b91906101000a81548161ffff021916908361ffff16021790559050600060405180604001604052808b60ff1681526020018361ffff1681525090506000610f338261143a565b905060405180606001604052808381526020018b6001600160a01b031681526020018a8a8080601f016020809104026020016040519081016040528093929190818152602001838380828437600092018290525093909452505083815260ca60209081526040918290208451805182549184015161ffff166101000262ffffff1990921660ff90911617178155908401516001820180546001600160a01b039092166001600160a01b0319909216919091179055908301519091506002820190610ffd908261235a565b5050506001600160a01b038a16600081815260cb602052604090819020839055517feb4bce5025c5200f6a074dd28fe7754955dfdca0eb2dcbaa16ccc292655e666990611051908e9087908e908e9061241a565b60405180910390a2851561109b577f8ff94c32efcef376eb02508cba5536e0634c1d6ad4b51ffa0f7306c78edaf5f78b8888604051611092939291906120e0565b60405180910390a15b5050505050505050505050565b6110eb3033836000368080601f01602080910402602001604051908101604052809392919081815260200183838082843760009201919091525061055c92505050565b61075557604051631e09743f60e01b8152306004820152336024820152604481018290526064016106b8565b611124838383600261150d565b505050565b60006111368484846116fc565b6000818152609760205260409020549091506001600160a01b031615610be25760008181526097602090815260409182902080546001600160a01b031916905590516001600160a01b038681168252851691339185917f3ca48185ec3f6e47e24db18b13f1c65b1ce05da1659f9c1c4fe717dda5f67524910160405180910390a450505050565b600080609760006111cf8888886116fc565b81526020810191909152604001600020546001600160a01b03169050806111fa57600091505061059f565b6001196001600160a01b0382160161121657600191505061059f565b6040516302675fdd60e41b81526001600160a01b03821690632675fdd09061124890899089908990899060040161244b565b602060405180830381865afa925050508015611281575060408051601f3d908101601f1916820190925261127e9181019061247e565b60015b156112995780156112975760019250505061059f565b505b50600095945050505050565b7f5aa4f06bdc18535eff05128093a2315c2c960a2722e20021cbff28da04760f5b610824816110a8565b7f4910fdfa16fed3260ed0e7147f7cc6da11a60208b5b9406d12a635614ffd91435460ff16156113025761112483611761565b826001600160a01b03166352d1902d6040518163ffffffff1660e01b8152600401602060405180830381865afa92505050801561135c575060408051601f3d908101601f19168201909252611359918101906124a0565b60015b6113bf5760405162461bcd60e51b815260206004820152602e60248201527f45524331393637557067726164653a206e657720696d706c656d656e7461746960448201526d6f6e206973206e6f74205555505360901b60648201526084016106b8565b6000805160206124e9833981519152811461142e5760405162461bcd60e51b815260206004820152602960248201527f45524331393637557067726164653a20756e737570706f727465642070726f786044820152681a58589b195555525160ba1b60648201526084016106b8565b506111248383836117fd565b60008160000151826020015160405160200161147c92919060f89290921b6001600160f81b031916825260f01b6001600160f01b031916600182015260030190565b604051602081830303815290604052805190602001209050919050565b600054610100900460ff166115045760405162461bcd60e51b815260206004820152602b60248201527f496e697469616c697a61626c653a20636f6e7472616374206973206e6f74206960448201526a6e697469616c697a696e6760a81b60648201526084016106b8565b61075581611822565b6001600160a01b0384811614801561152d57506001600160a01b03838116145b1561154b576040516385f1ba9960e01b815260040160405180910390fd5b6001600160a01b03848116148061156a57506001600160a01b03838116145b156115d557600060008051602061255083398151915283148061158a5750805b156115a8576040516324159e5b60e01b815260040160405180910390fd5b6001196001600160a01b038316016115d3576040516324aadf4360e21b815260040160405180910390fd5b505b60006115e28585856116fc565b6000818152609760205260409020549091506001600160a01b0316828161167b5760008381526097602090815260409182902080546001600160a01b0319166001600160a01b038581169190911790915582518a8216815287821692810192909252881691339188917f0f579ad49235a8c1fd9041427e7067b1eb10926bbed380bf6fabc73e0e807644910160405180910390a46116d7565b806001600160a01b0316826001600160a01b0316146116d7576040516305cc3c4f60e11b81526001600160a01b03808916600483015280881660248301526044820187905280841660648301528216608482015260a4016106b8565b50505050505050565b60006116eb8361183b565b8015610c4e5750610c4e838361186e565b604051692822a926a4a9a9a4a7a760b11b60208201526bffffffffffffffffffffffff19606084811b8216602a84015285901b16603e820152605281018290526000906072016040516020818303038152906040528051906020012090509392505050565b6001600160a01b0381163b6117ce5760405162461bcd60e51b815260206004820152602d60248201527f455243313936373a206e657720696d706c656d656e746174696f6e206973206e60448201526c1bdd08184818dbdb9d1c9858dd609a1b60648201526084016106b8565b6000805160206124e983398151915280546001600160a01b0319166001600160a01b0392909216919091179055565b611806836118f7565b6000825111806118135750805b1561112457610be28383611937565b6107553082600080516020612550833981519152611117565b600061184e826301ffc9a760e01b61186e565b80156104985750611867826001600160e01b031961186e565b1592915050565b604080516001600160e01b03198316602480830191909152825180830390910181526044909101909152602080820180516001600160e01b03166301ffc9a760e01b178152825160009392849283928392918391908a617530fa92503d915060005190508280156118e0575060208210155b80156118ec5750600081115b979650505050505050565b61190081611761565b6040516001600160a01b038216907fbc7cd75a20ee27fd9adebab32041f755214dbc6bffa90cc0225b39da2e5c2d3b90600090a250565b60606001600160a01b0383163b61199f5760405162461bcd60e51b815260206004820152602660248201527f416464726573733a2064656c65676174652063616c6c20746f206e6f6e2d636f6044820152651b9d1c9858dd60d21b60648201526084016106b8565b600080846001600160a01b0316846040516119ba91906124b9565b600060405180830381855af49150503d80600081146119f5576040519150601f19603f3d011682016040523d82523d6000602084013e6119fa565b606091505b5091509150611a22828260405180606001604052806027815260200161252960279139611a2b565b95945050505050565b60608315611a3a575081610c4e565b610c4e8383815115611a4f5781518083602001fd5b8060405162461bcd60e51b81526004016106b891906124d5565b6040805160a0810190915260006060820181815260808301919091528190815260006020820152606060409091015290565b600060208284031215611aad57600080fd5b81356001600160e01b031981168114610c4e57600080fd5b6001600160a01b038116811461075557600080fd5b600080600060408486031215611aef57600080fd5b8335611afa81611ac5565b9250602084013567ffffffffffffffff80821115611b1757600080fd5b818601915086601f830112611b2b57600080fd5b813581811115611b3a57600080fd5b876020606083028501011115611b4f57600080fd5b6020830194508093505050509250925092565b634e487b7160e01b600052604160045260246000fd5b600082601f830112611b8957600080fd5b813567ffffffffffffffff80821115611ba457611ba4611b62565b604051601f8301601f19908116603f01168101908282118183101715611bcc57611bcc611b62565b81604052838152866020858801011115611be557600080fd5b836020870160208301376000602085830101528094505050505092915050565b60008060008060808587031215611c1b57600080fd5b8435611c2681611ac5565b93506020850135611c3681611ac5565b925060408501359150606085013567ffffffffffffffff811115611c5957600080fd5b611c6587828801611b78565b91505092959194509250565b803560ff81168114611c8257600080fd5b919050565b60008083601f840112611c9957600080fd5b50813567ffffffffffffffff811115611cb157600080fd5b602083019150836020828501011115611cc957600080fd5b9250929050565b600080600060408486031215611ce557600080fd5b611cee84611c71565b9250602084013567ffffffffffffffff811115611d0a57600080fd5b611d1686828701611c87565b9497909650939450505050565b600060208284031215611d3557600080fd5b8135610c4e81611ac5565b60008060408385031215611d5357600080fd5b8235611d5e81611ac5565b9150602083013567ffffffffffffffff811115611d7a57600080fd5b611d8685828601611b78565b9150509250929050565b60005b83811015611dab578181015183820152602001611d93565b50506000910152565b60008151808452611dcc816020860160208601611d90565b601f01601f19169290920160200192915050565b60208082528251805160ff168383015281015161ffff16604080840191909152908301516001600160a01b0316606083015282015160808083015260009061059f60a0840182611db4565b600060208284031215611e3d57600080fd5b5035919050565b600060408284031215611e5657600080fd5b50919050565b60008060008060808587031215611e7257600080fd5b8435611e7d81611ac5565b93506020850135611e8d81611ac5565b9250604085013591506060850135611ea481611ac5565b939692955090935050565b600080600060608486031215611ec457600080fd5b8335611ecf81611ac5565b92506020840135611edf81611ac5565b929592945050506040919091013590565b600060208284031215611f0257600080fd5b610c4e82611c71565b60008060208385031215611f1e57600080fd5b823567ffffffffffffffff80821115611f3657600080fd5b818501915085601f830112611f4a57600080fd5b813581811115611f5957600080fd5b86602060a083028501011115611f6e57600080fd5b60209290920196919550909350505050565b60008060008060008060808789031215611f9957600080fd5b611fa287611c71565b95506020870135611fb281611ac5565b9450604087013567ffffffffffffffff80821115611fcf57600080fd5b611fdb8a838b01611c87565b90965094506060890135915080821115611ff457600080fd5b5061200189828a01611c87565b979a9699509497509295939492505050565b634e487b7160e01b600052603260045260246000fd5b803560038110611c8257600080fd5b60006060828403121561204a57600080fd5b6040516060810181811067ffffffffffffffff8211171561206d5761206d611b62565b60405261207983612029565b8152602083013561208981611ac5565b60208201526040928301359281019290925250919050565b634e487b7160e01b600052602160045260246000fd5b81835281816020850137506000828201602090810191909152601f909101601f19169091010190565b60ff8416815260406020820152600061059c6040830184866120b7565b6020808252602c908201527f46756e6374696f6e206d7573742062652063616c6c6564207468726f7567682060408201526b19195b1959d85d1958d85b1b60a21b606082015260800190565b6020808252602c908201527f46756e6374696f6e206d7573742062652063616c6c6564207468726f7567682060408201526b6163746976652070726f787960a01b606082015260800190565b600181811c908216806121a957607f821691505b602082108103611e5657634e487b7160e01b600052602260045260246000fd5b6000604082840312156121db57600080fd5b6040516040810181811067ffffffffffffffff821117156121fe576121fe611b62565b60405261220a83611c71565b8152602083013561ffff8116811461222157600080fd5b60208201529392505050565b600060a0828403121561223f57600080fd5b60405160a0810181811067ffffffffffffffff8211171561226257612262611b62565b60405261226e83612029565b8152602083013561227e81611ac5565b6020820152604083013561229181611ac5565b604082015260608301356122a481611ac5565b60608201526080928301359281019290925250919050565b634e487b7160e01b600052601160045260246000fd5b60ff8281168282160390811115610498576104986122bc565b600061ffff808316818103612302576123026122bc565b6001019392505050565b601f82111561112457600081815260208120601f850160051c810160208610156123335750805b601f850160051c820191505b818110156123525782815560010161233f565b505050505050565b815167ffffffffffffffff81111561237457612374611b62565b612388816123828454612195565b8461230c565b602080601f8311600181146123bd57600084156123a55750858301515b600019600386901b1c1916600185901b178555612352565b600085815260208120601f198616915b828110156123ec578886015182559484019460019091019084016123cd565b508582101561240a5787850151600019600388901b60f8161c191681555b5050505050600190811b01905550565b60ff8516815261ffff841660208201526060604082015260006124416060830184866120b7565b9695505050505050565b6001600160a01b038581168252841660208201526040810183905260806060820181905260009061244190830184611db4565b60006020828403121561249057600080fd5b81518015158114610c4e57600080fd5b6000602082840312156124b257600080fd5b5051919050565b600082516124cb818460208701611d90565b9190910192915050565b602081526000610c4e6020830184611db456fe360894a13ba1a3210667c828492db98dca3e2076cc3735a920a3ca505d382bbca0885006fe6672eeafd1deca6c67bcdc6dd79cfe2b157a98539ddf73cd8c04ea416464726573733a206c6f772d6c6576656c2064656c65676174652063616c6c206661696c6564815fe80e4b37c8582a3b773d1d7071f983eacfd56b5965db654f3087c25ada33a2646970667358221220693925967f0d7808d259b7747145944c918815f7619bd93d4fab52d01e14681b64736f6c63430008110033",
  "devdoc": {
    "author": "Aragon Association - 2020 - 2023",
    "errors": {
      "InvalidReleaseIncrement(uint8,uint8)": [
        {
          "params": {
            "latestRelease": "The latest release number.",
            "newRelease": "The new release number."
          }
        }
      ],
      "PermissionAlreadyGrantedForDifferentCondition(address,address,bytes32,address,address)": [
        {
          "details": "This makes sure that condition on the same permission can not be overwriten by a different condition.",
          "params": {
            "currentCondition": "The current condition set for permissionId.",
            "newCondition": "The new condition it tries to set for permissionId.",
            "permissionId": "The permission identifier.",
            "where": "The address of the target contract to grant `_who` permission to.",
            "who": "The address (EOA or contract) to which the permission has already been granted."
          }
        }
      ],
      "PluginSetupAlreadyInPreviousRelease(uint8,uint16,address)": [
        {
          "params": {
            "build": "The build number of the already existing plugin setup.",
            "pluginSetup": "The plugin setup contract address.",
            "release": "The release number of the already existing plugin setup."
          }
        }
      ],
      "Unauthorized(address,address,bytes32)": [
        {
          "params": {
            "permissionId": "The permission identifier.",
            "where": "The context in which the authorization reverted.",
            "who": "The address (EOA or contract) missing the permission."
          }
        }
      ],
      "VersionHashDoesNotExist(bytes32)": [
        {
          "params": {
            "versionHash": "The tag hash."
          }
        }
      ]
    },
    "events": {
      "ReleaseMetadataUpdated(uint8,bytes)": {
        "params": {
          "release": "The release number.",
          "releaseMetadata": "The release metadata URI."
        }
      },
      "VersionCreated(uint8,uint16,address,bytes)": {
        "params": {
          "build": "The build number.",
          "buildMetadata": "The build metadata URI.",
          "pluginSetup": "The address of the plugin setup contract.",
          "release": "The release number."
        }
      }
    },
    "kind": "dev",
    "methods": {
      "applyMultiTargetPermissions((uint8,address,address,address,bytes32)[])": {
        "params": {
          "_items": "The array of multi-targeted permission operations to apply."
        }
      },
      "applySingleTargetPermissions(address,(uint8,address,bytes32)[])": {
        "params": {
          "_where": "The address of the single target contract.",
          "items": "The array of single-targeted permission operations to apply."
        }
      },
      "buildCount(uint8)": {
        "params": {
          "_release": "The release number."
        },
        "returns": {
          "_0": "The number of builds of this release."
        }
      },
      "constructor": {
        "details": "Used to disallow initializing the implementation contract by an attacker for extra safety."
      },
      "createVersion(uint8,address,bytes,bytes)": {
        "params": {
          "_buildMetadata": "The build metadata URI.",
          "_pluginSetupAddress": "The address of the plugin setup contract.",
          "_release": "The release number.",
          "_releaseMetadata": "The release metadata URI."
        }
      },
      "getLatestVersion(address)": {
        "params": {
          "_pluginSetup": "The plugin setup address"
        },
        "returns": {
          "_0": "The latest version associated with the plugin Setup."
        }
      },
      "getLatestVersion(uint8)": {
        "params": {
          "_release": "The release number."
        },
        "returns": {
          "_0": "The latest version of this release."
        }
      },
      "getVersion((uint8,uint16))": {
        "params": {
          "_tag": "The version tag."
        },
        "returns": {
          "_0": "The version associated with the tag."
        }
      },
      "getVersion(bytes32)": {
        "params": {
          "_tagHash": "The tag hash."
        },
        "returns": {
          "_0": "The version associated with a tag hash."
        }
      },
      "grant(address,address,bytes32)": {
        "details": "Requires the `ROOT_PERMISSION_ID` permission.Note, that granting permissions with `_who` or `_where` equal to `ANY_ADDR` does not replace other permissions with specific `_who` and `_where` addresses that exist in parallel.",
        "params": {
          "_permissionId": "The permission identifier.",
          "_where": "The address of the target contract for which `_who` receives permission.",
          "_who": "The address (EOA or contract) receiving the permission."
        }
      },
      "grantWithCondition(address,address,bytes32,address)": {
        "details": "Requires the `ROOT_PERMISSION_ID` permissionNote, that granting permissions with `_who` or `_where` equal to `ANY_ADDR` does not replace other permissions with specific `_who` and `_where` addresses that exist in parallel.",
        "params": {
          "_condition": "The `PermissionCondition` that will be asked for authorization on calls connected to the specified permission identifier.",
          "_permissionId": "The permission identifier.",
          "_where": "The address of the target contract for which `_who` receives permission.",
          "_who": "The address (EOA or contract) receiving the permission."
        }
      },
      "initialize(address)": {
        "details": "This method is required to support [ERC-1822](https://eips.ethereum.org/EIPS/eip-1822)."
      },
      "isGranted(address,address,bytes32,bytes)": {
        "params": {
          "_data": "The optional data passed to the `PermissionCondition` registered.",
          "_permissionId": "The permission identifier.",
          "_where": "The address of the target contract for which `_who` receives permission.",
          "_who": "The address (EOA or contract) for which the permission is checked."
        },
        "returns": {
          "_0": "Returns true if `_who` has the permissions on the target contract via the specified permission identifier."
        }
      },
      "proxiableUUID()": {
        "details": "Implementation of the ERC1822 {proxiableUUID} function. This returns the storage slot used by the implementation. It is used to validate the implementation's compatibility when performing an upgrade. IMPORTANT: A proxy pointing at a proxiable contract should not be considered proxiable itself, because this risks bricking a proxy that upgrades to it, by delegating to itself until out of gas. Thus it is critical that this function revert if invoked through a proxy. This is guaranteed by the `notDelegated` modifier."
      },
      "revoke(address,address,bytes32)": {
        "details": "Requires the `ROOT_PERMISSION_ID` permission.Note, that revoking permissions with `_who` or `_where` equal to `ANY_ADDR` does not revoke other permissions with specific `_who` and `_where` addresses that exist in parallel.",
        "params": {
          "_permissionId": "The permission identifier.",
          "_where": "The address of the target contract for which `_who` loses permission.",
          "_who": "The address (EOA or contract) losing the permission."
        }
      },
      "supportsInterface(bytes4)": {
        "params": {
          "_interfaceId": "The ID of the interface."
        },
        "returns": {
          "_0": "Returns `true` if the interface is supported."
        }
      },
      "updateReleaseMetadata(uint8,bytes)": {
        "params": {
          "_release": "The release number.",
          "_releaseMetadata": "The release metadata URI."
        }
      },
      "upgradeTo(address)": {
        "details": "Upgrade the implementation of the proxy to `newImplementation`. Calls {_authorizeUpgrade}. Emits an {Upgraded} event."
      },
      "upgradeToAndCall(address,bytes)": {
        "details": "Upgrade the implementation of the proxy to `newImplementation`, and subsequently execute the function call encoded in `data`. Calls {_authorizeUpgrade}. Emits an {Upgraded} event."
      }
    },
    "stateVariables": {
      "latestRelease": {
        "details": "The maximum release number is 255."
      }
    },
    "title": "PluginRepo",
    "version": 1
  },
  "userdoc": {
    "errors": {
      "AnyAddressDisallowedForWhoAndWhere()": [
        {
          "notice": "Thrown for permission grants where `who` and `where` are both `ANY_ADDR`."
        }
      ],
      "ConditionNotPresentForAnyAddress()": [
        {
          "notice": "Thrown for permission grants where `who` or `where` is `ANY_ADDR`, but no condition is present."
        }
      ],
      "EmptyReleaseMetadata()": [
        {
          "notice": "Thrown if the metadata URI is empty."
        }
      ],
      "InvalidPluginSetupInterface()": [
        {
          "notice": "Thrown if a plugin setup contract does not inherit from `PluginSetup`."
        }
      ],
      "InvalidReleaseIncrement(uint8,uint8)": [
        {
          "notice": "Thrown if a release number is incremented by more than one."
        }
      ],
      "PermissionAlreadyGrantedForDifferentCondition(address,address,bytes32,address,address)": [
        {
          "notice": "Thrown if a permission has been already granted with a different condition."
        }
      ],
      "PermissionsForAnyAddressDisallowed()": [
        {
          "notice": "Thrown for `ROOT_PERMISSION_ID` or `EXECUTE_PERMISSION_ID` permission grants where `who` or `where` is `ANY_ADDR`."
        }
      ],
      "PluginSetupAlreadyInPreviousRelease(uint8,uint16,address)": [
        {
          "notice": "Thrown if the same plugin setup contract exists already in a previous releases."
        }
      ],
      "ReleaseDoesNotExist()": [
        {
          "notice": "Thrown if release does not exist."
        }
      ],
      "ReleaseZeroNotAllowed()": [
        {
          "notice": "Thrown if a release number is zero."
        }
      ],
      "Unauthorized(address,address,bytes32)": [
        {
          "notice": "Thrown if a call is unauthorized."
        }
      ],
      "VersionHashDoesNotExist(bytes32)": [
        {
          "notice": "Thrown if a version does not exist."
        }
      ]
    },
    "events": {
      "Granted(bytes32,address,address,address,address)": {
        "notice": "Emitted when a permission `permission` is granted in the context `here` to the address `_who` for the contract `_where`."
      },
      "ReleaseMetadataUpdated(uint8,bytes)": {
        "notice": "Thrown when a release's metadata was updated."
      },
      "Revoked(bytes32,address,address,address)": {
        "notice": "Emitted when a permission `permission` is revoked in the context `here` from the address `_who` for the contract `_where`."
      },
      "VersionCreated(uint8,uint16,address,bytes)": {
        "notice": "Thrown if the same plugin setup exists in previous releases."
      }
    },
    "kind": "user",
    "methods": {
      "MAINTAINER_PERMISSION_ID()": {
        "notice": "The ID of the permission required to call the `createVersion` function."
      },
      "ROOT_PERMISSION_ID()": {
        "notice": "The ID of the permission required to call the `grant`, `grantWithCondition`, `revoke`, and `bulk` function."
      },
      "UPGRADE_REPO_PERMISSION_ID()": {
        "notice": "The ID of the permission required to call the `createVersion` function."
      },
      "applyMultiTargetPermissions((uint8,address,address,address,bytes32)[])": {
        "notice": "Applies an array of permission operations on multiple target contracts `items[i].where`."
      },
      "applySingleTargetPermissions(address,(uint8,address,bytes32)[])": {
        "notice": "Applies an array of permission operations on a single target contracts `_where`."
      },
      "buildCount(uint8)": {
        "notice": "Gets the total number of builds for a given release number."
      },
      "createVersion(uint8,address,bytes,bytes)": {
        "notice": "Creates a new plugin version as the latest build for an existing release number or the first build for a new release number for the provided `PluginSetup` contract address and metadata."
      },
      "getLatestVersion(address)": {
        "notice": "Returns the latest version for a given plugin setup."
      },
      "getLatestVersion(uint8)": {
        "notice": "Returns the latest version for a given release number."
      },
      "getVersion((uint8,uint16))": {
        "notice": "Returns the version associated with a tag."
      },
      "getVersion(bytes32)": {
        "notice": "Returns the version for a tag hash."
      },
      "grant(address,address,bytes32)": {
        "notice": "Grants permission to an address to call methods in a contract guarded by an auth modifier with the specified permission identifier."
      },
      "grantWithCondition(address,address,bytes32,address)": {
        "notice": "Grants permission to an address to call methods in a target contract guarded by an auth modifier with the specified permission identifier if the referenced condition permits it."
      },
      "initialize(address)": {
        "notice": "Initializes the contract by - initializing the permission manager - granting the `MAINTAINER_PERMISSION_ID` permission to the initial owner."
      },
      "isGranted(address,address,bytes32,bytes)": {
        "notice": "Checks if an address has permission on a contract via a permission identifier and considers if `ANY_ADDRESS` was used in the granting process."
      },
      "latestRelease()": {
        "notice": "The ID of the latest release."
      },
      "revoke(address,address,bytes32)": {
        "notice": "Revokes permission from an address to call methods in a target contract guarded by an auth modifier with the specified permission identifier."
      },
      "supportsInterface(bytes4)": {
        "notice": "Checks if this or the parent contract supports an interface by its ID."
      },
      "updateReleaseMetadata(uint8,bytes)": {
        "notice": "Updates the metadata for release with content `@fromHex(_releaseMetadata)`."
      }
    },
    "notice": "The plugin repository contract required for managing and publishing different plugin versions within the Aragon DAO framework.",
    "version": 1
  },
  "storageLayout": {
    "storage": [
      {
        "astId": 6275,
        "contract": "src/framework/plugin/repo/PluginRepo.sol:PluginRepo",
        "label": "_initialized",
        "offset": 0,
        "slot": "0",
        "type": "t_uint8"
      },
      {
        "astId": 6278,
        "contract": "src/framework/plugin/repo/PluginRepo.sol:PluginRepo",
        "label": "_initializing",
        "offset": 1,
        "slot": "0",
        "type": "t_bool"
      },
      {
        "astId": 13460,
        "contract": "src/framework/plugin/repo/PluginRepo.sol:PluginRepo",
        "label": "__gap",
        "offset": 0,
        "slot": "1",
        "type": "t_array(t_uint256)50_storage"
      },
      {
        "astId": 6257,
        "contract": "src/framework/plugin/repo/PluginRepo.sol:PluginRepo",
        "label": "__gap",
        "offset": 0,
        "slot": "51",
        "type": "t_array(t_uint256)50_storage"
      },
      {
        "astId": 6572,
        "contract": "src/framework/plugin/repo/PluginRepo.sol:PluginRepo",
        "label": "__gap",
        "offset": 0,
        "slot": "101",
        "type": "t_array(t_uint256)50_storage"
      },
      {
        "astId": 22976,
        "contract": "src/framework/plugin/repo/PluginRepo.sol:PluginRepo",
        "label": "permissionsHashed",
        "offset": 0,
        "slot": "151",
        "type": "t_mapping(t_bytes32,t_address)"
      },
      {
        "astId": 23638,
        "contract": "src/framework/plugin/repo/PluginRepo.sol:PluginRepo",
        "label": "__gap",
        "offset": 0,
        "slot": "152",
        "type": "t_array(t_uint256)49_storage"
      },
      {
        "astId": 25225,
        "contract": "src/framework/plugin/repo/PluginRepo.sol:PluginRepo",
        "label": "buildsPerRelease",
        "offset": 0,
        "slot": "201",
        "type": "t_mapping(t_uint8,t_uint16)"
      },
      {
        "astId": 25231,
        "contract": "src/framework/plugin/repo/PluginRepo.sol:PluginRepo",
        "label": "versions",
        "offset": 0,
        "slot": "202",
        "type": "t_mapping(t_bytes32,t_struct(Version)25208_storage)"
      },
      {
        "astId": 25236,
        "contract": "src/framework/plugin/repo/PluginRepo.sol:PluginRepo",
        "label": "latestTagHashForPluginSetup",
        "offset": 0,
        "slot": "203",
        "type": "t_mapping(t_address,t_bytes32)"
      },
      {
        "astId": 25239,
        "contract": "src/framework/plugin/repo/PluginRepo.sol:PluginRepo",
        "label": "latestRelease",
        "offset": 0,
        "slot": "204",
        "type": "t_uint8"
      }
    ],
    "types": {
      "t_address": {
        "encoding": "inplace",
        "label": "address",
        "numberOfBytes": "20"
      },
      "t_array(t_uint256)49_storage": {
        "base": "t_uint256",
        "encoding": "inplace",
        "label": "uint256[49]",
        "numberOfBytes": "1568"
      },
      "t_array(t_uint256)50_storage": {
        "base": "t_uint256",
        "encoding": "inplace",
        "label": "uint256[50]",
        "numberOfBytes": "1600"
      },
      "t_bool": {
        "encoding": "inplace",
        "label": "bool",
        "numberOfBytes": "1"
      },
      "t_bytes32": {
        "encoding": "inplace",
        "label": "bytes32",
        "numberOfBytes": "32"
      },
      "t_bytes_storage": {
        "encoding": "bytes",
        "label": "bytes",
        "numberOfBytes": "32"
      },
      "t_mapping(t_address,t_bytes32)": {
        "encoding": "mapping",
        "key": "t_address",
        "label": "mapping(address => bytes32)",
        "numberOfBytes": "32",
        "value": "t_bytes32"
      },
      "t_mapping(t_bytes32,t_address)": {
        "encoding": "mapping",
        "key": "t_bytes32",
        "label": "mapping(bytes32 => address)",
        "numberOfBytes": "32",
        "value": "t_address"
      },
      "t_mapping(t_bytes32,t_struct(Version)25208_storage)": {
        "encoding": "mapping",
        "key": "t_bytes32",
        "label": "mapping(bytes32 => struct PluginRepo.Version)",
        "numberOfBytes": "32",
        "value": "t_struct(Version)25208_storage"
      },
      "t_mapping(t_uint8,t_uint16)": {
        "encoding": "mapping",
        "key": "t_uint8",
        "label": "mapping(uint8 => uint16)",
        "numberOfBytes": "32",
        "value": "t_uint16"
      },
      "t_struct(Tag)25200_storage": {
        "encoding": "inplace",
        "label": "struct PluginRepo.Tag",
        "members": [
          {
            "astId": 25197,
            "contract": "src/framework/plugin/repo/PluginRepo.sol:PluginRepo",
            "label": "release",
            "offset": 0,
            "slot": "0",
            "type": "t_uint8"
          },
          {
            "astId": 25199,
            "contract": "src/framework/plugin/repo/PluginRepo.sol:PluginRepo",
            "label": "build",
            "offset": 1,
            "slot": "0",
            "type": "t_uint16"
          }
        ],
        "numberOfBytes": "32"
      },
      "t_struct(Version)25208_storage": {
        "encoding": "inplace",
        "label": "struct PluginRepo.Version",
        "members": [
          {
            "astId": 25203,
            "contract": "src/framework/plugin/repo/PluginRepo.sol:PluginRepo",
            "label": "tag",
            "offset": 0,
            "slot": "0",
            "type": "t_struct(Tag)25200_storage"
          },
          {
            "astId": 25205,
            "contract": "src/framework/plugin/repo/PluginRepo.sol:PluginRepo",
            "label": "pluginSetup",
            "offset": 0,
            "slot": "1",
            "type": "t_address"
          },
          {
            "astId": 25207,
            "contract": "src/framework/plugin/repo/PluginRepo.sol:PluginRepo",
            "label": "buildMetadata",
            "offset": 0,
            "slot": "2",
            "type": "t_bytes_storage"
          }
        ],
        "numberOfBytes": "96"
      },
      "t_uint16": {
        "encoding": "inplace",
        "label": "uint16",
        "numberOfBytes": "2"
      },
      "t_uint256": {
        "encoding": "inplace",
        "label": "uint256",
        "numberOfBytes": "32"
      },
      "t_uint8": {
        "encoding": "inplace",
        "label": "uint8",
        "numberOfBytes": "1"
      }
    }
  }
}