{
  "address": "0xeEd52230748E206DbbBB52262BF0A866c9FBC689",
  "abi": [
    {
      "inputs": [
        {
          "internalType": "address",
          "name": "dao",
          "type": "address"
        },
        {
          "internalType": "address",
          "name": "where",
          "type": "address"
        },
        {
          "internalType": "address",
          "name": "who",
          "type": "address"
        },
        {
          "internalType": "bytes32",
          "name": "permissionId",
          "type": "bytes32"
        }
      ],
      "name": "DaoUnauthorized",
      "type": "error"
    },
    {
      "anonymous": false,
      "inputs": [
        {
          "indexed": false,
          "internalType": "address",
          "name": "previousAdmin",
          "type": "address"
        },
        {
          "indexed": false,
          "internalType": "address",
          "name": "newAdmin",
          "type": "address"
        }
      ],
      "name": "AdminChanged",
      "type": "event"
    },
    {
      "anonymous": false,
      "inputs": [
        {
          "indexed": true,
          "internalType": "address",
          "name": "beacon",
          "type": "address"
        }
      ],
      "name": "BeaconUpgraded",
      "type": "event"
    },
    {
      "anonymous": false,
      "inputs": [
        {
          "indexed": false,
          "internalType": "uint8",
          "name": "version",
          "type": "uint8"
        }
      ],
      "name": "Initialized",
      "type": "event"
    },
    {
      "anonymous": false,
      "inputs": [
        {
          "indexed": true,
          "internalType": "address",
          "name": "implementation",
          "type": "address"
        }
      ],
      "name": "Upgraded",
      "type": "event"
    },
    {
      "inputs": [],
      "name": "STATION_EXECUTOR_PERMISSION_ID",
      "outputs": [
        {
          "internalType": "bytes32",
          "name": "",
          "type": "bytes32"
        }
      ],
      "stateMutability": "view",
      "type": "function"
    },
    {
      "inputs": [],
      "name": "STATION_UPDATOR_PERMISSION_ID",
      "outputs": [
        {
          "internalType": "bytes32",
          "name": "",
          "type": "bytes32"
        }
      ],
      "stateMutability": "view",
      "type": "function"
    },
    {
      "inputs": [],
      "name": "UPGRADE_PLUGIN_PERMISSION_ID",
      "outputs": [
        {
          "internalType": "bytes32",
          "name": "",
          "type": "bytes32"
        }
      ],
      "stateMutability": "view",
      "type": "function"
    },
    {
      "inputs": [
        {
          "internalType": "bytes32",
          "name": "role",
          "type": "bytes32"
        }
      ],
      "name": "addMembershipRole",
      "outputs": [],
      "stateMutability": "nonpayable",
      "type": "function"
    },
    {
      "inputs": [],
      "name": "dao",
      "outputs": [
        {
          "internalType": "contract IDAO",
          "name": "",
          "type": "address"
        }
      ],
      "stateMutability": "view",
      "type": "function"
    },
    {
      "inputs": [
        {
          "internalType": "address",
          "name": "owner",
          "type": "address"
        },
        {
          "internalType": "bytes32",
          "name": "role",
          "type": "bytes32"
        }
      ],
      "name": "grantMembership",
      "outputs": [],
      "stateMutability": "nonpayable",
      "type": "function"
    },
    {
      "inputs": [],
      "name": "implementation",
      "outputs": [
        {
          "internalType": "address",
          "name": "",
          "type": "address"
        }
      ],
      "stateMutability": "view",
      "type": "function"
    },
    {
      "inputs": [
        {
          "internalType": "contract IDAO",
          "name": "_dao",
          "type": "address"
        },
        {
          "internalType": "address",
          "name": "_membershipToken",
          "type": "address"
        }
      ],
      "name": "initializeBuild1",
      "outputs": [],
      "stateMutability": "nonpayable",
      "type": "function"
    },
    {
      "inputs": [],
      "name": "membershipToken",
      "outputs": [
        {
          "internalType": "contract IMembershipToken",
          "name": "",
          "type": "address"
        }
      ],
      "stateMutability": "view",
      "type": "function"
    },
    {
      "inputs": [],
      "name": "pluginType",
      "outputs": [
        {
          "internalType": "enum IPlugin.PluginType",
          "name": "",
          "type": "uint8"
        }
      ],
      "stateMutability": "pure",
      "type": "function"
    },
    {
      "inputs": [],
      "name": "proxiableUUID",
      "outputs": [
        {
          "internalType": "bytes32",
          "name": "",
          "type": "bytes32"
        }
      ],
      "stateMutability": "view",
      "type": "function"
    },
    {
      "inputs": [
        {
          "internalType": "bytes32",
          "name": "role",
          "type": "bytes32"
        }
      ],
      "name": "removeMembershipRole",
      "outputs": [],
      "stateMutability": "nonpayable",
      "type": "function"
    },
    {
      "inputs": [
        {
          "internalType": "uint256",
          "name": "tokenId",
          "type": "uint256"
        },
        {
          "internalType": "address",
          "name": "to",
          "type": "address"
        }
      ],
      "name": "revokeMembership",
      "outputs": [],
      "stateMutability": "nonpayable",
      "type": "function"
    },
    {
      "inputs": [
        {
          "internalType": "uint256",
          "name": "tokenId",
          "type": "uint256"
        },
        {
          "internalType": "bytes32",
          "name": "role",
          "type": "bytes32"
        }
      ],
      "name": "setMembershipRole",
      "outputs": [],
      "stateMutability": "nonpayable",
      "type": "function"
    },
    {
      "inputs": [
        {
          "internalType": "bytes4",
          "name": "_interfaceId",
          "type": "bytes4"
        }
      ],
      "name": "supportsInterface",
      "outputs": [
        {
          "internalType": "bool",
          "name": "",
          "type": "bool"
        }
      ],
      "stateMutability": "view",
      "type": "function"
    },
    {
      "inputs": [
        {
          "internalType": "address",
          "name": "implementation",
          "type": "address"
        }
      ],
      "name": "upgradeMembershipToken",
      "outputs": [],
      "stateMutability": "nonpayable",
      "type": "function"
    },
    {
      "inputs": [
        {
          "internalType": "address",
          "name": "newImplementation",
          "type": "address"
        }
      ],
      "name": "upgradeTo",
      "outputs": [],
      "stateMutability": "nonpayable",
      "type": "function"
    },
    {
      "inputs": [
        {
          "internalType": "address",
          "name": "newImplementation",
          "type": "address"
        },
        {
          "internalType": "bytes",
          "name": "data",
          "type": "bytes"
        }
      ],
      "name": "upgradeToAndCall",
      "outputs": [],
      "stateMutability": "payable",
      "type": "function"
    }
  ],
  "numDeployments": 1,
  "solcInputHash": "dcb4cc8b7e5c749e95c1977b57e7355c",
  "bytecode": "0x60a06040523060805234801561001457600080fd5b5061001d610022565b6100e2565b600054610100900460ff161561008e5760405162461bcd60e51b815260206004820152602760248201527f496e697469616c697a61626c653a20636f6e747261637420697320696e697469604482015266616c697a696e6760c81b606482015260840160405180910390fd5b60005460ff90811610156100e0576000805460ff191660ff9081179091556040519081527f7f26b83ff96e1f2b6a682f133852f6798a09c465da95921460cefb38474024989060200160405180910390a15b565b6080516116846101196000396000818161057c015281816105bc0152818161064501528181610685015261070101526116846000f3fe6080604052600436106101095760003560e01c80635c60da1b11610095578063c9b07d1811610064578063c9b07d18146102d3578063c9c4bfca146102f3578063d97e2cdf14610327578063f4a8f52114610347578063f4e836cb1461036757600080fd5b80635c60da1b1461024957806362ad351b1461025e57806367ec635b1461027f578063c3465db1146102b357600080fd5b806341de6830116100dc57806341de6830146101b75780634f1ef286146101d357806352d1902d146101e65780635742fc1014610209578063592a221f1461022957600080fd5b806301ffc9a71461010e57806305b605c7146101435780633659cfe6146101655780634162169f14610185575b600080fd5b34801561011a57600080fd5b5061012e610129366004611189565b610389565b60405190151581526020015b60405180910390f35b34801561014f57600080fd5b5061016361015e3660046111c8565b6103db565b005b34801561017157600080fd5b506101636101803660046111f8565b610571565b34801561019157600080fd5b5060c9546001600160a01b03165b6040516001600160a01b03909116815260200161013a565b3480156101c357600080fd5b50600060405161013a9190611215565b6101636101e1366004611253565b61063a565b3480156101f257600080fd5b506101fb6106f4565b60405190815260200161013a565b34801561021557600080fd5b50610163610224366004611317565b6107a7565b34801561023557600080fd5b50610163610244366004611339565b610830565b34801561025557600080fd5b5061019f6109ce565b34801561026a57600080fd5b5061012d5461019f906001600160a01b031681565b34801561028b57600080fd5b506101fb7fd9185569d0407ee12a5141f338a0cec7c8e00851b3b02df406bf1e435b21d6f881565b3480156102bf57600080fd5b506101636102ce366004611365565b6109dd565b3480156102df57600080fd5b506101636102ee366004611393565b610b0d565b3480156102ff57600080fd5b506101fb7f821b6e3a557148015a918c89e5d092e878a69854a2d1a410635f771bd5a8a3f581565b34801561033357600080fd5b506101636103423660046111f8565b610b98565b34801561035357600080fd5b50610163610362366004611393565b610c04565b34801561037357600080fd5b506101fb6000805160206115e883398151915281565b60006001600160e01b0319821663041de68360e41b14806103ba57506001600160e01b031982166352d1902d60e01b145b806103d557506301ffc9a760e01b6001600160e01b03198316145b92915050565b61012d546001600160a01b031661040d5760405162461bcd60e51b8152600401610404906113ac565b60405180910390fd5b60c9546000805160206115e883398151915290610439906001600160a01b031630335b84600036610c5d565b61012d54604051636500141f60e01b81526001600160a01b03848116600483015285921690636500141f90602401602060405180830381865afa158015610484573d6000803e3d6000fd5b505050506040513d601f19601f820116820180604052508101906104a891906113fa565b1461050c5760405162461bcd60e51b815260206004820152602e60248201527f53746174696f6e2e7265766f6b654d656d62657273686970203a20546f6b656e60448201526d081a59081b5a5cdb585d18da195960921b6064820152608401610404565b61012d54604051630852cd8d60e31b8152600481018590526001600160a01b03909116906342966c68906024015b600060405180830381600087803b15801561055457600080fd5b505af1158015610568573d6000803e3d6000fd5b50505050505050565b306001600160a01b037f00000000000000000000000000000000000000000000000000000000000000001614156105ba5760405162461bcd60e51b815260040161040490611413565b7f00000000000000000000000000000000000000000000000000000000000000006001600160a01b03166105ec610d11565b6001600160a01b0316146106125760405162461bcd60e51b81526004016104049061145f565b61061b81610d2d565b6040805160008082526020820190925261063791839190610d66565b50565b306001600160a01b037f00000000000000000000000000000000000000000000000000000000000000001614156106835760405162461bcd60e51b815260040161040490611413565b7f00000000000000000000000000000000000000000000000000000000000000006001600160a01b03166106b5610d11565b6001600160a01b0316146106db5760405162461bcd60e51b81526004016104049061145f565b6106e482610d2d565b6106f082826001610d66565b5050565b6000306001600160a01b037f000000000000000000000000000000000000000000000000000000000000000016146107945760405162461bcd60e51b815260206004820152603860248201527f555550535570677261646561626c653a206d757374206e6f742062652063616c60448201527f6c6564207468726f7567682064656c656761746563616c6c00000000000000006064820152608401610404565b5060008051602061160883398151915290565b61012d546001600160a01b03166107d05760405162461bcd60e51b8152600401610404906113ac565b60c9546000805160206115e8833981519152906107f7906001600160a01b03163033610430565b61012d54604051630cd13b2760e31b815260048101859052602481018490526001600160a01b0390911690636689d9389060440161053a565b61012d546001600160a01b03166108595760405162461bcd60e51b8152600401610404906113ac565b60c9546000805160206115e883398151915290610880906001600160a01b03163033610430565b61012d54604051636500141f60e01b81526001600160a01b03858116600483015290911690636500141f90602401602060405180830381865afa1580156108cb573d6000803e3d6000fd5b505050506040513d601f19601f820116820180604052508101906108ef91906113fa565b156109505760405162461bcd60e51b815260206004820152602b60248201527f53746174696f6e2e6772616e744d656d62657273686970203a2053425420657860448201526a69737420616c726561647960a81b6064820152608401610404565b61012d54604051632cfd300560e01b81526001600160a01b0385811660048301526024820185905290911690632cfd3005906044016020604051808303816000875af11580156109a4573d6000803e3d6000fd5b505050506040513d601f19601f820116820180604052508101906109c891906113fa565b50505050565b60006109d8610d11565b905090565b600054610100900460ff16158080156109fd5750600054600160ff909116105b80610a175750303b158015610a17575060005460ff166001145b610a7a5760405162461bcd60e51b815260206004820152602e60248201527f496e697469616c697a61626c653a20636f6e747261637420697320616c72656160448201526d191e481a5b9a5d1a585b1a5e995960921b6064820152608401610404565b6000805460ff191660011790558015610a9d576000805461ff0019166101001790555b610aa683610ed1565b61012d80546001600160a01b0319166001600160a01b0384161790558015610b08576000805461ff0019169055604051600181527f7f26b83ff96e1f2b6a682f133852f6798a09c465da95921460cefb38474024989060200160405180910390a15b505050565b60c9546000805160206115e883398151915290610b34906001600160a01b03163033610430565b61012d5460405163d0bf6d1560e01b8152600481018490526001600160a01b039091169063d0bf6d15906024015b600060405180830381600087803b158015610b7c57600080fd5b505af1158015610b90573d6000803e3d6000fd5b505050505050565b60c9547fd9185569d0407ee12a5141f338a0cec7c8e00851b3b02df406bf1e435b21d6f890610bd1906001600160a01b03163033610430565b61012d54604051631b2ce7f360e11b81526001600160a01b03848116600483015290911690633659cfe690602401610b62565b60c9546000805160206115e883398151915290610c2b906001600160a01b03163033610430565b61012d5460405163274b02a760e01b8152600481018490526001600160a01b039091169063274b02a790602401610b62565b604051637ef7c88360e11b81526001600160a01b0387169063fdef910690610c9190889088908890889088906004016114ab565b602060405180830381865afa158015610cae573d6000803e3d6000fd5b505050506040513d601f19601f82011682018060405250810190610cd291906114ff565b610b9057604051630cb6f8ed60e21b81526001600160a01b03808816600483015280871660248301528516604482015260648101849052608401610404565b600080516020611608833981519152546001600160a01b031690565b60c9547f821b6e3a557148015a918c89e5d092e878a69854a2d1a410635f771bd5a8a3f5906106f0906001600160a01b03163033610430565b7f4910fdfa16fed3260ed0e7147f7cc6da11a60208b5b9406d12a635614ffd91435460ff1615610d9957610b0883610f01565b826001600160a01b03166352d1902d6040518163ffffffff1660e01b8152600401602060405180830381865afa925050508015610df3575060408051601f3d908101601f19168201909252610df0918101906113fa565b60015b610e565760405162461bcd60e51b815260206004820152602e60248201527f45524331393637557067726164653a206e657720696d706c656d656e7461746960448201526d6f6e206973206e6f74205555505360901b6064820152608401610404565b6000805160206116088339815191528114610ec55760405162461bcd60e51b815260206004820152602960248201527f45524331393637557067726164653a20756e737570706f727465642070726f786044820152681a58589b195555525160ba1b6064820152608401610404565b50610b08838383610f9d565b600054610100900460ff16610ef85760405162461bcd60e51b815260040161040490611521565b61063781610fc2565b6001600160a01b0381163b610f6e5760405162461bcd60e51b815260206004820152602d60248201527f455243313936373a206e657720696d706c656d656e746174696f6e206973206e60448201526c1bdd08184818dbdb9d1c9858dd609a1b6064820152608401610404565b60008051602061160883398151915280546001600160a01b0319166001600160a01b0392909216919091179055565b610fa68361100b565b600082511180610fb35750805b15610b08576109c8838361104b565b600054610100900460ff16610fe95760405162461bcd60e51b815260040161040490611521565b60c980546001600160a01b0319166001600160a01b0392909216919091179055565b61101481610f01565b6040516001600160a01b038216907fbc7cd75a20ee27fd9adebab32041f755214dbc6bffa90cc0225b39da2e5c2d3b90600090a250565b60606001600160a01b0383163b6110b35760405162461bcd60e51b815260206004820152602660248201527f416464726573733a2064656c65676174652063616c6c20746f206e6f6e2d636f6044820152651b9d1c9858dd60d21b6064820152608401610404565b600080846001600160a01b0316846040516110ce9190611598565b600060405180830381855af49150503d8060008114611109576040519150601f19603f3d011682016040523d82523d6000602084013e61110e565b606091505b509150915061113682826040518060600160405280602781526020016116286027913961113f565b95945050505050565b6060831561114e575081611158565b611158838361115f565b9392505050565b81511561116f5781518083602001fd5b8060405162461bcd60e51b815260040161040491906115b4565b60006020828403121561119b57600080fd5b81356001600160e01b03198116811461115857600080fd5b6001600160a01b038116811461063757600080fd5b600080604083850312156111db57600080fd5b8235915060208301356111ed816111b3565b809150509250929050565b60006020828403121561120a57600080fd5b8135611158816111b3565b602081016003831061123757634e487b7160e01b600052602160045260246000fd5b91905290565b634e487b7160e01b600052604160045260246000fd5b6000806040838503121561126657600080fd5b8235611271816111b3565b9150602083013567ffffffffffffffff8082111561128e57600080fd5b818501915085601f8301126112a257600080fd5b8135818111156112b4576112b461123d565b604051601f8201601f19908116603f011681019083821181831017156112dc576112dc61123d565b816040528281528860208487010111156112f557600080fd5b8260208601602083013760006020848301015280955050505050509250929050565b6000806040838503121561132a57600080fd5b50508035926020909101359150565b6000806040838503121561134c57600080fd5b8235611357816111b3565b946020939093013593505050565b6000806040838503121561137857600080fd5b8235611383816111b3565b915060208301356111ed816111b3565b6000602082840312156113a557600080fd5b5035919050565b6020808252602e908201527f53746174696f6e2e746f6b656e536574203a204d656d6265727368697020746f60408201526d1ad95b881a5cc81b9bdd081cd95d60921b606082015260800190565b60006020828403121561140c57600080fd5b5051919050565b6020808252602c908201527f46756e6374696f6e206d7573742062652063616c6c6564207468726f7567682060408201526b19195b1959d85d1958d85b1b60a21b606082015260800190565b6020808252602c908201527f46756e6374696f6e206d7573742062652063616c6c6564207468726f7567682060408201526b6163746976652070726f787960a01b606082015260800190565b6001600160a01b038681168252851660208201526040810184905260806060820181905281018290526000828460a0840137600060a0848401015260a0601f19601f85011683010190509695505050505050565b60006020828403121561151157600080fd5b8151801515811461115857600080fd5b6020808252602b908201527f496e697469616c697a61626c653a20636f6e7472616374206973206e6f74206960408201526a6e697469616c697a696e6760a81b606082015260800190565b60005b8381101561158757818101518382015260200161156f565b838111156109c85750506000910152565b600082516115aa81846020870161156c565b9190910192915050565b60208152600082518060208401526115d381604085016020870161156c565b601f01601f1916919091016040019291505056feda6a77e2e90dd19567c409a8a01136a3ba8ee9b4e4f98644991d64bac39621b1360894a13ba1a3210667c828492db98dca3e2076cc3735a920a3ca505d382bbc416464726573733a206c6f772d6c6576656c2064656c65676174652063616c6c206661696c6564a2646970667358221220a2f21806a5cbd6a7d33ef7080c77f988bcaab3de03827eccffafba173e8823af64736f6c634300080b0033",
  "devdoc": {
    "author": "Mesehr",
    "details": "This contract is upgradable.",
    "errors": {
      "DaoUnauthorized(address,address,address,bytes32)": [
        {
          "params": {
            "dao": "The associated DAO.",
            "permissionId": "The permission identifier.",
            "where": "The context in which the authorization reverted.",
            "who": "The address (EOA or contract) missing the permission."
          }
        }
      ]
    },
    "kind": "dev",
    "methods": {
      "addMembershipRole(bytes32)": {
        "details": "The caller must have the `STATION_EXECUTOR_PERMISSION_ID` permission.",
        "params": {
          "role": "The role to add."
        }
      },
      "dao()": {
        "returns": {
          "_0": "The DAO contract."
        }
      },
      "grantMembership(address,bytes32)": {
        "details": "The caller must have the `STATION_EXECUTOR_PERMISSION_ID` permission.",
        "params": {
          "owner": "The DAO contract.",
          "role": "The role to grant membership for."
        }
      },
      "implementation()": {
        "returns": {
          "_0": "The address of the implementation contract."
        }
      },
      "initializeBuild1(address,address)": {
        "params": {
          "_dao": "The DAO contract.",
          "_membershipToken": "The Membership Token."
        }
      },
      "proxiableUUID()": {
        "details": "Implementation of the ERC1822 {proxiableUUID} function. This returns the storage slot used by the implementation. It is used to validate the implementation's compatibility when performing an upgrade. IMPORTANT: A proxy pointing at a proxiable contract should not be considered proxiable itself, because this risks bricking a proxy that upgrades to it, by delegating to itself until out of gas. Thus it is critical that this function revert if invoked through a proxy. This is guaranteed by the `notDelegated` modifier."
      },
      "removeMembershipRole(bytes32)": {
        "details": "The caller must have the `STATION_EXECUTOR_PERMISSION_ID` permission.",
        "params": {
          "role": "The role to remove."
        }
      },
      "revokeMembership(uint256,address)": {
        "details": "The caller must have the `STATION_EXECUTOR_PERMISSION_ID` permission.",
        "params": {
          "to": "Address of a DAO member whose membership is revoked .",
          "tokenId": "TokenId assgined for each DAO member ."
        }
      },
      "setMembershipRole(uint256,bytes32)": {
        "details": "The caller must have the `STATION_EXECUTOR_PERMISSION_ID` permission.",
        "params": {
          "role": "The role to set membership for.",
          "tokenId": "TokenId assgined for each DAO member ."
        }
      },
      "supportsInterface(bytes4)": {
        "params": {
          "_interfaceId": "The ID of the interface."
        },
        "returns": {
          "_0": "Returns `true` if the interface is supported."
        }
      },
      "upgradeMembershipToken(address)": {
        "details": "The caller must have the `STATION_UPDATOR_PERMISSION_ID` permission.",
        "params": {
          "implementation": "Address of a new implementation contract."
        }
      },
      "upgradeTo(address)": {
        "details": "Upgrade the implementation of the proxy to `newImplementation`. Calls {_authorizeUpgrade}. Emits an {Upgraded} event."
      },
      "upgradeToAndCall(address,bytes)": {
        "details": "Upgrade the implementation of the proxy to `newImplementation`, and subsequently execute the function call encoded in `data`. Calls {_authorizeUpgrade}. Emits an {Upgraded} event."
      }
    },
    "title": "StationBuild1",
    "version": 1
  },
  "userdoc": {
    "errors": {
      "DaoUnauthorized(address,address,address,bytes32)": [
        {
          "notice": "Thrown if a call is unauthorized in the associated DAO."
        }
      ]
    },
    "kind": "user",
    "methods": {
      "STATION_EXECUTOR_PERMISSION_ID()": {
        "notice": "The ID of the permission required to call the `grantMembership`, `setMembershipRole`, `revokeMembership` function."
      },
      "STATION_UPDATOR_PERMISSION_ID()": {
        "notice": "The ID of the permission required to call the `updateMembershipToken` function."
      },
      "UPGRADE_PLUGIN_PERMISSION_ID()": {
        "notice": "The ID of the permission required to call the `_authorizeUpgrade` function."
      },
      "addMembershipRole(bytes32)": {
        "notice": "Adds a membership role."
      },
      "dao()": {
        "notice": "Returns the DAO contract."
      },
      "grantMembership(address,bytes32)": {
        "notice": "Grants membership to a member of a DAO."
      },
      "implementation()": {
        "notice": "Returns the address of the implementation contract in the [proxy storage slot](https://eips.ethereum.org/EIPS/eip-1967) slot the [UUPS proxy](https://eips.ethereum.org/EIPS/eip-1822) is pointing to."
      },
      "initializeBuild1(address,address)": {
        "notice": "Initializes the station-plugin by storing a associated DAO and a related membership token."
      },
      "pluginType()": {
        "notice": "Returns the plugin's type"
      },
      "removeMembershipRole(bytes32)": {
        "notice": "Removes a membership role."
      },
      "revokeMembership(uint256,address)": {
        "notice": "Revokes membership of a member."
      },
      "setMembershipRole(uint256,bytes32)": {
        "notice": "Sets a membership role."
      },
      "supportsInterface(bytes4)": {
        "notice": "Checks if an interface is supported by this or its parent contract."
      },
      "upgradeMembershipToken(address)": {
        "notice": "Upgrades a membership token."
      }
    },
    "notice": "This contract is deployed by the DAO and is used to grant, revoke and set membership roles for the DAO.",
    "version": 1
  },
  "storageLayout": {
    "storage": [
      {
        "astId": 1079,
        "contract": "src/plugins/wepublic/station/StationBuild1.sol:StationBuild1",
        "label": "_initialized",
        "offset": 0,
        "slot": "0",
        "type": "t_uint8"
      },
      {
        "astId": 1082,
        "contract": "src/plugins/wepublic/station/StationBuild1.sol:StationBuild1",
        "label": "_initializing",
        "offset": 1,
        "slot": "0",
        "type": "t_bool"
      },
      {
        "astId": 6448,
        "contract": "src/plugins/wepublic/station/StationBuild1.sol:StationBuild1",
        "label": "__gap",
        "offset": 0,
        "slot": "1",
        "type": "t_array(t_uint256)50_storage"
      },
      {
        "astId": 1061,
        "contract": "src/plugins/wepublic/station/StationBuild1.sol:StationBuild1",
        "label": "__gap",
        "offset": 0,
        "slot": "51",
        "type": "t_array(t_uint256)50_storage"
      },
      {
        "astId": 1376,
        "contract": "src/plugins/wepublic/station/StationBuild1.sol:StationBuild1",
        "label": "__gap",
        "offset": 0,
        "slot": "101",
        "type": "t_array(t_uint256)50_storage"
      },
      {
        "astId": 5584,
        "contract": "src/plugins/wepublic/station/StationBuild1.sol:StationBuild1",
        "label": "__gap",
        "offset": 0,
        "slot": "151",
        "type": "t_array(t_uint256)50_storage"
      },
      {
        "astId": 10434,
        "contract": "src/plugins/wepublic/station/StationBuild1.sol:StationBuild1",
        "label": "dao_",
        "offset": 0,
        "slot": "201",
        "type": "t_contract(IDAO)10250"
      },
      {
        "astId": 10483,
        "contract": "src/plugins/wepublic/station/StationBuild1.sol:StationBuild1",
        "label": "__gap",
        "offset": 0,
        "slot": "202",
        "type": "t_array(t_uint256)49_storage"
      },
      {
        "astId": 10418,
        "contract": "src/plugins/wepublic/station/StationBuild1.sol:StationBuild1",
        "label": "__gap",
        "offset": 0,
        "slot": "251",
        "type": "t_array(t_uint256)50_storage"
      },
      {
        "astId": 11633,
        "contract": "src/plugins/wepublic/station/StationBuild1.sol:StationBuild1",
        "label": "membershipToken",
        "offset": 0,
        "slot": "301",
        "type": "t_contract(IMembershipToken)13078"
      }
    ],
    "types": {
      "t_array(t_uint256)49_storage": {
        "base": "t_uint256",
        "encoding": "inplace",
        "label": "uint256[49]",
        "numberOfBytes": "1568"
      },
      "t_array(t_uint256)50_storage": {
        "base": "t_uint256",
        "encoding": "inplace",
        "label": "uint256[50]",
        "numberOfBytes": "1600"
      },
      "t_bool": {
        "encoding": "inplace",
        "label": "bool",
        "numberOfBytes": "1"
      },
      "t_contract(IDAO)10250": {
        "encoding": "inplace",
        "label": "contract IDAO",
        "numberOfBytes": "20"
      },
      "t_contract(IMembershipToken)13078": {
        "encoding": "inplace",
        "label": "contract IMembershipToken",
        "numberOfBytes": "20"
      },
      "t_uint256": {
        "encoding": "inplace",
        "label": "uint256",
        "numberOfBytes": "32"
      },
      "t_uint8": {
        "encoding": "inplace",
        "label": "uint8",
        "numberOfBytes": "1"
      }
    }
  }
}