{
  "address": "0x63CC6993D0194Fd771079cdeA01D4Af8c184566e",
  "abi": [
    {
      "inputs": [
        {
          "internalType": "address",
          "name": "dao",
          "type": "address"
        },
        {
          "internalType": "address",
          "name": "where",
          "type": "address"
        },
        {
          "internalType": "address",
          "name": "who",
          "type": "address"
        },
        {
          "internalType": "bytes32",
          "name": "permissionId",
          "type": "bytes32"
        }
      ],
      "name": "DaoUnauthorized",
      "type": "error"
    },
    {
      "anonymous": false,
      "inputs": [
        {
          "indexed": false,
          "internalType": "address",
          "name": "previousAdmin",
          "type": "address"
        },
        {
          "indexed": false,
          "internalType": "address",
          "name": "newAdmin",
          "type": "address"
        }
      ],
      "name": "AdminChanged",
      "type": "event"
    },
    {
      "anonymous": false,
      "inputs": [
        {
          "indexed": true,
          "internalType": "address",
          "name": "beacon",
          "type": "address"
        }
      ],
      "name": "BeaconUpgraded",
      "type": "event"
    },
    {
      "anonymous": false,
      "inputs": [
        {
          "indexed": false,
          "internalType": "uint8",
          "name": "version",
          "type": "uint8"
        }
      ],
      "name": "Initialized",
      "type": "event"
    },
    {
      "anonymous": false,
      "inputs": [
        {
          "indexed": true,
          "internalType": "address",
          "name": "implementation",
          "type": "address"
        }
      ],
      "name": "Upgraded",
      "type": "event"
    },
    {
      "inputs": [],
      "name": "TREASURY_EXECUTOR_PERMISSION_ID",
      "outputs": [
        {
          "internalType": "bytes32",
          "name": "",
          "type": "bytes32"
        }
      ],
      "stateMutability": "view",
      "type": "function"
    },
    {
      "inputs": [],
      "name": "TREASURY_UPDATOR_PERMISSION_ID",
      "outputs": [
        {
          "internalType": "bytes32",
          "name": "",
          "type": "bytes32"
        }
      ],
      "stateMutability": "view",
      "type": "function"
    },
    {
      "inputs": [],
      "name": "UPGRADE_PLUGIN_PERMISSION_ID",
      "outputs": [
        {
          "internalType": "bytes32",
          "name": "",
          "type": "bytes32"
        }
      ],
      "stateMutability": "view",
      "type": "function"
    },
    {
      "inputs": [
        {
          "internalType": "uint256",
          "name": "amount",
          "type": "uint256"
        }
      ],
      "name": "burnMirrorToken",
      "outputs": [],
      "stateMutability": "nonpayable",
      "type": "function"
    },
    {
      "inputs": [],
      "name": "dao",
      "outputs": [
        {
          "internalType": "contract IDAO",
          "name": "",
          "type": "address"
        }
      ],
      "stateMutability": "view",
      "type": "function"
    },
    {
      "inputs": [],
      "name": "implementation",
      "outputs": [
        {
          "internalType": "address",
          "name": "",
          "type": "address"
        }
      ],
      "stateMutability": "view",
      "type": "function"
    },
    {
      "inputs": [
        {
          "internalType": "contract IDAO",
          "name": "_dao",
          "type": "address"
        },
        {
          "internalType": "address",
          "name": "_mirrorToken",
          "type": "address"
        }
      ],
      "name": "initializeBuild1",
      "outputs": [],
      "stateMutability": "nonpayable",
      "type": "function"
    },
    {
      "inputs": [
        {
          "internalType": "uint256",
          "name": "amount",
          "type": "uint256"
        }
      ],
      "name": "mintMirrorToken",
      "outputs": [],
      "stateMutability": "nonpayable",
      "type": "function"
    },
    {
      "inputs": [],
      "name": "mirrorToken",
      "outputs": [
        {
          "internalType": "contract IMirrorToken",
          "name": "",
          "type": "address"
        }
      ],
      "stateMutability": "view",
      "type": "function"
    },
    {
      "inputs": [],
      "name": "pluginType",
      "outputs": [
        {
          "internalType": "enum IPlugin.PluginType",
          "name": "",
          "type": "uint8"
        }
      ],
      "stateMutability": "pure",
      "type": "function"
    },
    {
      "inputs": [],
      "name": "proxiableUUID",
      "outputs": [
        {
          "internalType": "bytes32",
          "name": "",
          "type": "bytes32"
        }
      ],
      "stateMutability": "view",
      "type": "function"
    },
    {
      "inputs": [
        {
          "internalType": "bytes4",
          "name": "_interfaceId",
          "type": "bytes4"
        }
      ],
      "name": "supportsInterface",
      "outputs": [
        {
          "internalType": "bool",
          "name": "",
          "type": "bool"
        }
      ],
      "stateMutability": "view",
      "type": "function"
    },
    {
      "inputs": [
        {
          "internalType": "address",
          "name": "implementation",
          "type": "address"
        }
      ],
      "name": "upgradeMirrorToken",
      "outputs": [],
      "stateMutability": "nonpayable",
      "type": "function"
    },
    {
      "inputs": [
        {
          "internalType": "address",
          "name": "newImplementation",
          "type": "address"
        }
      ],
      "name": "upgradeTo",
      "outputs": [],
      "stateMutability": "nonpayable",
      "type": "function"
    },
    {
      "inputs": [
        {
          "internalType": "address",
          "name": "newImplementation",
          "type": "address"
        },
        {
          "internalType": "bytes",
          "name": "data",
          "type": "bytes"
        }
      ],
      "name": "upgradeToAndCall",
      "outputs": [],
      "stateMutability": "payable",
      "type": "function"
    }
  ],
  "numDeployments": 1,
  "solcInputHash": "dcb4cc8b7e5c749e95c1977b57e7355c",
  "bytecode": "0x60a06040523060805234801561001457600080fd5b5061001d610022565b6100e2565b600054610100900460ff161561008e5760405162461bcd60e51b815260206004820152602760248201527f496e697469616c697a61626c653a20636f6e747261637420697320696e697469604482015266616c697a696e6760c81b606482015260840160405180910390fd5b60005460ff90811610156100e0576000805460ff191660ff9081179091556040519081527f7f26b83ff96e1f2b6a682f133852f6798a09c465da95921460cefb38474024989060200160405180910390a15b565b60805161124c61011960003960008181610377015281816103c001528181610449015281816104890152610505015261124c6000f3fe6080604052600436106100e85760003560e01c806353d457bb1161008a578063c927a95a11610059578063c927a95a14610285578063c9c4bfca146102a6578063e425a132146102da578063f8bfb248146102fa57600080fd5b806353d457bb146101fc5780635c60da1b14610230578063adcd985814610245578063c3465db11461026557600080fd5b80634162169f116100c65780634162169f1461018657806341de6830146101b85780634f1ef286146101d457806352d1902d146101e757600080fd5b806301ffc9a7146100ed5780631560ac04146101225780633659cfe614610164575b600080fd5b3480156100f957600080fd5b5061010d610108366004610de7565b61031a565b60405190151581526020015b60405180910390f35b34801561012e57600080fd5b506101567fe99d56c75b60f20e27654d0696da47726b0097c90af5c8c04b753d47c48cfe8181565b604051908152602001610119565b34801561017057600080fd5b5061018461017f366004610e26565b61036c565b005b34801561019257600080fd5b5060c9546001600160a01b03165b6040516001600160a01b039091168152602001610119565b3480156101c457600080fd5b5060006040516101199190610e43565b6101846101e2366004610e81565b61043e565b3480156101f357600080fd5b506101566104f8565b34801561020857600080fd5b506101567fb5735927ab1f0c7521499f5c27eb45939e172256252e8a8a63909e246279311681565b34801561023c57600080fd5b506101a06105ab565b34801561025157600080fd5b50610184610260366004610e26565b6105ba565b34801561027157600080fd5b50610184610280366004610f45565b61065d565b34801561029157600080fd5b5061012d546101a0906001600160a01b031681565b3480156102b257600080fd5b506101567f821b6e3a557148015a918c89e5d092e878a69854a2d1a410635f771bd5a8a3f581565b3480156102e657600080fd5b506101846102f5366004610f7e565b61078d565b34801561030657600080fd5b50610184610315366004610f7e565b610821565b60006001600160e01b0319821663041de68360e41b148061034b57506001600160e01b031982166352d1902d60e01b145b8061036657506301ffc9a760e01b6001600160e01b03198316145b92915050565b306001600160a01b037f00000000000000000000000000000000000000000000000000000000000000001614156103be5760405162461bcd60e51b81526004016103b590610f97565b60405180910390fd5b7f00000000000000000000000000000000000000000000000000000000000000006001600160a01b03166103f06108b5565b6001600160a01b0316146104165760405162461bcd60e51b81526004016103b590610fe3565b61041f816108d1565b6040805160008082526020820190925261043b9183919061090a565b50565b306001600160a01b037f00000000000000000000000000000000000000000000000000000000000000001614156104875760405162461bcd60e51b81526004016103b590610f97565b7f00000000000000000000000000000000000000000000000000000000000000006001600160a01b03166104b96108b5565b6001600160a01b0316146104df5760405162461bcd60e51b81526004016103b590610fe3565b6104e8826108d1565b6104f48282600161090a565b5050565b6000306001600160a01b037f000000000000000000000000000000000000000000000000000000000000000016146105985760405162461bcd60e51b815260206004820152603860248201527f555550535570677261646561626c653a206d757374206e6f742062652063616c60448201527f6c6564207468726f7567682064656c656761746563616c6c000000000000000060648201526084016103b5565b506000805160206111d083398151915290565b60006105b56108b5565b905090565b60c9547fe99d56c75b60f20e27654d0696da47726b0097c90af5c8c04b753d47c48cfe81906105f8906001600160a01b031630335b84600036610a75565b61012d54604051631b2ce7f360e11b81526001600160a01b03848116600483015290911690633659cfe6906024015b600060405180830381600087803b15801561064157600080fd5b505af1158015610655573d6000803e3d6000fd5b505050505050565b600054610100900460ff161580801561067d5750600054600160ff909116105b806106975750303b158015610697575060005460ff166001145b6106fa5760405162461bcd60e51b815260206004820152602e60248201527f496e697469616c697a61626c653a20636f6e747261637420697320616c72656160448201526d191e481a5b9a5d1a585b1a5e995960921b60648201526084016103b5565b6000805460ff19166001179055801561071d576000805461ff0019166101001790555b61072683610b29565b61012d80546001600160a01b0319166001600160a01b0384161790558015610788576000805461ff0019169055604051600181527f7f26b83ff96e1f2b6a682f133852f6798a09c465da95921460cefb38474024989060200160405180910390a15b505050565b61012d546001600160a01b03166107b65760405162461bcd60e51b81526004016103b59061102f565b60c9547fb5735927ab1f0c7521499f5c27eb45939e172256252e8a8a63909e2462793116906107ef906001600160a01b031630336105ef565b61012d5460405163140e25ad60e31b8152600481018490526001600160a01b039091169063a0712d6890602401610627565b61012d546001600160a01b031661084a5760405162461bcd60e51b81526004016103b59061102f565b60c9547fb5735927ab1f0c7521499f5c27eb45939e172256252e8a8a63909e246279311690610883906001600160a01b031630336105ef565b61012d54604051630852cd8d60e31b8152600481018490526001600160a01b03909116906342966c6890602401610627565b6000805160206111d0833981519152546001600160a01b031690565b60c9547f821b6e3a557148015a918c89e5d092e878a69854a2d1a410635f771bd5a8a3f5906104f4906001600160a01b031630336105ef565b7f4910fdfa16fed3260ed0e7147f7cc6da11a60208b5b9406d12a635614ffd91435460ff161561093d5761078883610b59565b826001600160a01b03166352d1902d6040518163ffffffff1660e01b8152600401602060405180830381865afa925050508015610997575060408051601f3d908101601f191682019092526109949181019061107a565b60015b6109fa5760405162461bcd60e51b815260206004820152602e60248201527f45524331393637557067726164653a206e657720696d706c656d656e7461746960448201526d6f6e206973206e6f74205555505360901b60648201526084016103b5565b6000805160206111d08339815191528114610a695760405162461bcd60e51b815260206004820152602960248201527f45524331393637557067726164653a20756e737570706f727465642070726f786044820152681a58589b195555525160ba1b60648201526084016103b5565b50610788838383610bf5565b604051637ef7c88360e11b81526001600160a01b0387169063fdef910690610aa99088908890889088908890600401611093565b602060405180830381865afa158015610ac6573d6000803e3d6000fd5b505050506040513d601f19601f82011682018060405250810190610aea91906110e7565b61065557604051630cb6f8ed60e21b81526001600160a01b038088166004830152808716602483015285166044820152606481018490526084016103b5565b600054610100900460ff16610b505760405162461bcd60e51b81526004016103b590611109565b61043b81610c20565b6001600160a01b0381163b610bc65760405162461bcd60e51b815260206004820152602d60248201527f455243313936373a206e657720696d706c656d656e746174696f6e206973206e60448201526c1bdd08184818dbdb9d1c9858dd609a1b60648201526084016103b5565b6000805160206111d083398151915280546001600160a01b0319166001600160a01b0392909216919091179055565b610bfe83610c69565b600082511180610c0b5750805b1561078857610c1a8383610ca9565b50505050565b600054610100900460ff16610c475760405162461bcd60e51b81526004016103b590611109565b60c980546001600160a01b0319166001600160a01b0392909216919091179055565b610c7281610b59565b6040516001600160a01b038216907fbc7cd75a20ee27fd9adebab32041f755214dbc6bffa90cc0225b39da2e5c2d3b90600090a250565b60606001600160a01b0383163b610d115760405162461bcd60e51b815260206004820152602660248201527f416464726573733a2064656c65676174652063616c6c20746f206e6f6e2d636f6044820152651b9d1c9858dd60d21b60648201526084016103b5565b600080846001600160a01b031684604051610d2c9190611180565b600060405180830381855af49150503d8060008114610d67576040519150601f19603f3d011682016040523d82523d6000602084013e610d6c565b606091505b5091509150610d9482826040518060600160405280602781526020016111f060279139610d9d565b95945050505050565b60608315610dac575081610db6565b610db68383610dbd565b9392505050565b815115610dcd5781518083602001fd5b8060405162461bcd60e51b81526004016103b5919061119c565b600060208284031215610df957600080fd5b81356001600160e01b031981168114610db657600080fd5b6001600160a01b038116811461043b57600080fd5b600060208284031215610e3857600080fd5b8135610db681610e11565b6020810160038310610e6557634e487b7160e01b600052602160045260246000fd5b91905290565b634e487b7160e01b600052604160045260246000fd5b60008060408385031215610e9457600080fd5b8235610e9f81610e11565b9150602083013567ffffffffffffffff80821115610ebc57600080fd5b818501915085601f830112610ed057600080fd5b813581811115610ee257610ee2610e6b565b604051601f8201601f19908116603f01168101908382118183101715610f0a57610f0a610e6b565b81604052828152886020848701011115610f2357600080fd5b8260208601602083013760006020848301015280955050505050509250929050565b60008060408385031215610f5857600080fd5b8235610f6381610e11565b91506020830135610f7381610e11565b809150509250929050565b600060208284031215610f9057600080fd5b5035919050565b6020808252602c908201527f46756e6374696f6e206d7573742062652063616c6c6564207468726f7567682060408201526b19195b1959d85d1958d85b1b60a21b606082015260800190565b6020808252602c908201527f46756e6374696f6e206d7573742062652063616c6c6564207468726f7567682060408201526b6163746976652070726f787960a01b606082015260800190565b6020808252602b908201527f54726561737572792e746f6b656e536574203a204d6972726f7220746f6b656e60408201526a081a5cc81b9bdd081cd95d60aa1b606082015260800190565b60006020828403121561108c57600080fd5b5051919050565b6001600160a01b038681168252851660208201526040810184905260806060820181905281018290526000828460a0840137600060a0848401015260a0601f19601f85011683010190509695505050505050565b6000602082840312156110f957600080fd5b81518015158114610db657600080fd5b6020808252602b908201527f496e697469616c697a61626c653a20636f6e7472616374206973206e6f74206960408201526a6e697469616c697a696e6760a81b606082015260800190565b60005b8381101561116f578181015183820152602001611157565b83811115610c1a5750506000910152565b60008251611192818460208701611154565b9190910192915050565b60208152600082518060208401526111bb816040850160208701611154565b601f01601f1916919091016040019291505056fe360894a13ba1a3210667c828492db98dca3e2076cc3735a920a3ca505d382bbc416464726573733a206c6f772d6c6576656c2064656c65676174652063616c6c206661696c6564a26469706673582212203b3d3e2c0454ffcffc271e29d18f2e266d993c8659546b494f1008c25955dc9e64736f6c634300080b0033",
  "devdoc": {
    "author": "Mesher",
    "details": "This contract is upgradable.",
    "errors": {
      "DaoUnauthorized(address,address,address,bytes32)": [
        {
          "params": {
            "dao": "The associated DAO.",
            "permissionId": "The permission identifier.",
            "where": "The context in which the authorization reverted.",
            "who": "The address (EOA or contract) missing the permission."
          }
        }
      ]
    },
    "kind": "dev",
    "methods": {
      "burnMirrorToken(uint256)": {
        "params": {
          "amount": "amount of mirror token to be burned."
        }
      },
      "dao()": {
        "returns": {
          "_0": "The DAO contract."
        }
      },
      "implementation()": {
        "returns": {
          "_0": "The address of the implementation contract."
        }
      },
      "initializeBuild1(address,address)": {
        "params": {
          "_dao": "The DAO contract.",
          "_mirrorToken": "The mirror Token."
        }
      },
      "mintMirrorToken(uint256)": {
        "params": {
          "amount": "amount of mirror token to be minted."
        }
      },
      "proxiableUUID()": {
        "details": "Implementation of the ERC1822 {proxiableUUID} function. This returns the storage slot used by the implementation. It is used to validate the implementation's compatibility when performing an upgrade. IMPORTANT: A proxy pointing at a proxiable contract should not be considered proxiable itself, because this risks bricking a proxy that upgrades to it, by delegating to itself until out of gas. Thus it is critical that this function revert if invoked through a proxy. This is guaranteed by the `notDelegated` modifier."
      },
      "supportsInterface(bytes4)": {
        "params": {
          "_interfaceId": "The ID of the interface."
        },
        "returns": {
          "_0": "Returns `true` if the interface is supported."
        }
      },
      "upgradeMirrorToken(address)": {
        "details": "The caller must have the `TREASURY_UPDATOR_PERMISSION_ID` permission.",
        "params": {
          "implementation": "The address of a new implementation."
        }
      },
      "upgradeTo(address)": {
        "details": "Upgrade the implementation of the proxy to `newImplementation`. Calls {_authorizeUpgrade}. Emits an {Upgraded} event."
      },
      "upgradeToAndCall(address,bytes)": {
        "details": "Upgrade the implementation of the proxy to `newImplementation`, and subsequently execute the function call encoded in `data`. Calls {_authorizeUpgrade}. Emits an {Upgraded} event."
      }
    },
    "title": "TreasuryBuild1",
    "version": 1
  },
  "userdoc": {
    "errors": {
      "DaoUnauthorized(address,address,address,bytes32)": [
        {
          "notice": "Thrown if a call is unauthorized in the associated DAO."
        }
      ]
    },
    "kind": "user",
    "methods": {
      "TREASURY_EXECUTOR_PERMISSION_ID()": {
        "notice": "The ID of the permission required to call the `mintMirrorToken`, `burnMirrorToken` function."
      },
      "TREASURY_UPDATOR_PERMISSION_ID()": {
        "notice": "The ID of the permission required to call the `updateMirrorToken` function."
      },
      "UPGRADE_PLUGIN_PERMISSION_ID()": {
        "notice": "The ID of the permission required to call the `_authorizeUpgrade` function."
      },
      "burnMirrorToken(uint256)": {
        "notice": "Burn mirror token."
      },
      "dao()": {
        "notice": "Returns the DAO contract."
      },
      "implementation()": {
        "notice": "Returns the address of the implementation contract in the [proxy storage slot](https://eips.ethereum.org/EIPS/eip-1967) slot the [UUPS proxy](https://eips.ethereum.org/EIPS/eip-1822) is pointing to."
      },
      "initializeBuild1(address,address)": {
        "notice": "Initializes the treasury-plugin by storing a associated DAO and a related membership token."
      },
      "mintMirrorToken(uint256)": {
        "notice": "Mint mirror token."
      },
      "pluginType()": {
        "notice": "Returns the plugin's type"
      },
      "supportsInterface(bytes4)": {
        "notice": "Checks if an interface is supported by this or its parent contract."
      },
      "upgradeMirrorToken(address)": {
        "notice": "Upgrades a mirror token."
      }
    },
    "notice": "This contract is deployed by the DAO and is used to mint, burn and update mirror token for the DAO.",
    "version": 1
  },
  "storageLayout": {
    "storage": [
      {
        "astId": 1079,
        "contract": "src/plugins/wepublic/treasury/TreasuryBuild1.sol:TreasuryBuild1",
        "label": "_initialized",
        "offset": 0,
        "slot": "0",
        "type": "t_uint8"
      },
      {
        "astId": 1082,
        "contract": "src/plugins/wepublic/treasury/TreasuryBuild1.sol:TreasuryBuild1",
        "label": "_initializing",
        "offset": 1,
        "slot": "0",
        "type": "t_bool"
      },
      {
        "astId": 6448,
        "contract": "src/plugins/wepublic/treasury/TreasuryBuild1.sol:TreasuryBuild1",
        "label": "__gap",
        "offset": 0,
        "slot": "1",
        "type": "t_array(t_uint256)50_storage"
      },
      {
        "astId": 1061,
        "contract": "src/plugins/wepublic/treasury/TreasuryBuild1.sol:TreasuryBuild1",
        "label": "__gap",
        "offset": 0,
        "slot": "51",
        "type": "t_array(t_uint256)50_storage"
      },
      {
        "astId": 1376,
        "contract": "src/plugins/wepublic/treasury/TreasuryBuild1.sol:TreasuryBuild1",
        "label": "__gap",
        "offset": 0,
        "slot": "101",
        "type": "t_array(t_uint256)50_storage"
      },
      {
        "astId": 5584,
        "contract": "src/plugins/wepublic/treasury/TreasuryBuild1.sol:TreasuryBuild1",
        "label": "__gap",
        "offset": 0,
        "slot": "151",
        "type": "t_array(t_uint256)50_storage"
      },
      {
        "astId": 10434,
        "contract": "src/plugins/wepublic/treasury/TreasuryBuild1.sol:TreasuryBuild1",
        "label": "dao_",
        "offset": 0,
        "slot": "201",
        "type": "t_contract(IDAO)10250"
      },
      {
        "astId": 10483,
        "contract": "src/plugins/wepublic/treasury/TreasuryBuild1.sol:TreasuryBuild1",
        "label": "__gap",
        "offset": 0,
        "slot": "202",
        "type": "t_array(t_uint256)49_storage"
      },
      {
        "astId": 10418,
        "contract": "src/plugins/wepublic/treasury/TreasuryBuild1.sol:TreasuryBuild1",
        "label": "__gap",
        "offset": 0,
        "slot": "251",
        "type": "t_array(t_uint256)50_storage"
      },
      {
        "astId": 12250,
        "contract": "src/plugins/wepublic/treasury/TreasuryBuild1.sol:TreasuryBuild1",
        "label": "mirrorToken",
        "offset": 0,
        "slot": "301",
        "type": "t_contract(IMirrorToken)12710"
      }
    ],
    "types": {
      "t_array(t_uint256)49_storage": {
        "base": "t_uint256",
        "encoding": "inplace",
        "label": "uint256[49]",
        "numberOfBytes": "1568"
      },
      "t_array(t_uint256)50_storage": {
        "base": "t_uint256",
        "encoding": "inplace",
        "label": "uint256[50]",
        "numberOfBytes": "1600"
      },
      "t_bool": {
        "encoding": "inplace",
        "label": "bool",
        "numberOfBytes": "1"
      },
      "t_contract(IDAO)10250": {
        "encoding": "inplace",
        "label": "contract IDAO",
        "numberOfBytes": "20"
      },
      "t_contract(IMirrorToken)12710": {
        "encoding": "inplace",
        "label": "contract IMirrorToken",
        "numberOfBytes": "20"
      },
      "t_uint256": {
        "encoding": "inplace",
        "label": "uint256",
        "numberOfBytes": "32"
      },
      "t_uint8": {
        "encoding": "inplace",
        "label": "uint8",
        "numberOfBytes": "1"
      }
    }
  }
}